{
  "contractName": "PaymentBounty",
  "abi": [
    {
      "constant": true,
      "inputs": [
        {
          "name": "",
          "type": "address"
        }
      ],
      "name": "bounties",
      "outputs": [
        {
          "name": "owner",
          "type": "address"
        },
        {
          "name": "reward",
          "type": "uint256"
        }
      ],
      "payable": false,
      "stateMutability": "view",
      "type": "function"
    },
    {
      "anonymous": false,
      "inputs": [
        {
          "indexed": true,
          "name": "subscription",
          "type": "address"
        },
        {
          "indexed": true,
          "name": "token",
          "type": "address"
        },
        {
          "indexed": false,
          "name": "reward",
          "type": "uint256"
        }
      ],
      "name": "BountyRegistered",
      "type": "event"
    },
    {
      "anonymous": false,
      "inputs": [
        {
          "indexed": true,
          "name": "subscription",
          "type": "address"
        }
      ],
      "name": "BountyUnregistered",
      "type": "event"
    },
    {
      "anonymous": false,
      "inputs": [
        {
          "indexed": true,
          "name": "subscription",
          "type": "address"
        },
        {
          "indexed": true,
          "name": "subscriber",
          "type": "address"
        },
        {
          "indexed": true,
          "name": "token",
          "type": "address"
        },
        {
          "indexed": false,
          "name": "reward",
          "type": "uint256"
        }
      ],
      "name": "BountyClaimed",
      "type": "event"
    },
    {
      "constant": false,
      "inputs": [
        {
          "name": "subscription",
          "type": "address"
        },
        {
          "name": "reward",
          "type": "uint256"
        }
      ],
      "name": "register",
      "outputs": [],
      "payable": false,
      "stateMutability": "nonpayable",
      "type": "function"
    },
    {
      "constant": false,
      "inputs": [
        {
          "name": "subscription",
          "type": "address"
        }
      ],
      "name": "unregister",
      "outputs": [],
      "payable": false,
      "stateMutability": "nonpayable",
      "type": "function"
    },
    {
      "constant": true,
      "inputs": [
        {
          "name": "subscription",
          "type": "address"
        },
        {
          "name": "subscriber",
          "type": "address"
        }
      ],
      "name": "canClaimBounty",
      "outputs": [
        {
          "name": "",
          "type": "bool"
        }
      ],
      "payable": false,
      "stateMutability": "view",
      "type": "function"
    },
    {
      "constant": false,
      "inputs": [
        {
          "name": "subscription",
          "type": "address"
        },
        {
          "name": "subscriber",
          "type": "address"
        }
      ],
      "name": "claimBounty",
      "outputs": [],
      "payable": false,
      "stateMutability": "nonpayable",
      "type": "function"
    },
    {
      "constant": true,
      "inputs": [
        {
          "name": "subscription",
          "type": "address"
        }
      ],
      "name": "isRegistered",
      "outputs": [
        {
          "name": "",
          "type": "bool"
        }
      ],
      "payable": false,
      "stateMutability": "view",
      "type": "function"
    }
  ],
  "bytecode": "0x608060405234801561001057600080fd5b50611801806100206000396000f3fe608060405234801561001057600080fd5b506004361061007f576000357c0100000000000000000000000000000000000000000000000000000000900480632ec2c246146100845780636d705ebb146100c8578063847b9c50146101165780638ceb13d414610192578063c3c5a547146101f6578063cdfbea5814610252575b600080fd5b6100c66004803603602081101561009a57600080fd5b81019080803573ffffffffffffffffffffffffffffffffffffffff1690602001909291905050506102dd565b005b610114600480360360408110156100de57600080fd5b81019080803573ffffffffffffffffffffffffffffffffffffffff1690602001909291908035906020019092919050505061051a565b005b6101786004803603604081101561012c57600080fd5b81019080803573ffffffffffffffffffffffffffffffffffffffff169060200190929190803573ffffffffffffffffffffffffffffffffffffffff169060200190929190505050610a8d565b604051808215151515815260200191505060405180910390f35b6101f4600480360360408110156101a857600080fd5b81019080803573ffffffffffffffffffffffffffffffffffffffff169060200190929190803573ffffffffffffffffffffffffffffffffffffffff169060200190929190505050610e28565b005b6102386004803603602081101561020c57600080fd5b81019080803573ffffffffffffffffffffffffffffffffffffffff169060200190929190505050611691565b604051808215151515815260200191505060405180910390f35b6102946004803603602081101561026857600080fd5b81019080803573ffffffffffffffffffffffffffffffffffffffff1690602001909291905050506116de565b604051808373ffffffffffffffffffffffffffffffffffffffff1673ffffffffffffffffffffffffffffffffffffffff1681526020018281526020019250505060405180910390f35b6102e681611691565b151561035a576040517f08c379a000000000000000000000000000000000000000000000000000000000815260040180806020018281038252601e8152602001807f537562736372697074696f6e206973206e6f742072656769737465726564000081525060200191505060405180910390fd5b60008060008373ffffffffffffffffffffffffffffffffffffffff1673ffffffffffffffffffffffffffffffffffffffff16815260200190815260200160002090508060000160009054906101000a900473ffffffffffffffffffffffffffffffffffffffff1673ffffffffffffffffffffffffffffffffffffffff163373ffffffffffffffffffffffffffffffffffffffff16141515610463576040517f08c379a00000000000000000000000000000000000000000000000000000000081526004018080602001828103825260168152602001807f4e6f7420737562736372697074696f6e206f776e65720000000000000000000081525060200191505060405180910390fd5b6000808373ffffffffffffffffffffffffffffffffffffffff1673ffffffffffffffffffffffffffffffffffffffff168152602001908152602001600020600080820160006101000a81549073ffffffffffffffffffffffffffffffffffffffff0219169055600182016000905550508173ffffffffffffffffffffffffffffffffffffffff167f181da0f18499f2602872e8efd7b3f8b12375754a12a77869a29c004140e00b3e60405160405180910390a25050565b61052382611691565b15151561057b576040517f08c379a00000000000000000000000000000000000000000000000000000000081526004018080602001828103825260228152602001806117456022913960400191505060405180910390fd5b60008290508073ffffffffffffffffffffffffffffffffffffffff16638da5cb5b6040518163ffffffff167c010000000000000000000000000000000000000000000000000000000002815260040160206040518083038186803b1580156105e257600080fd5b505afa1580156105f6573d6000803e3d6000fd5b505050506040513d602081101561060c57600080fd5b810190808051906020019092919050505073ffffffffffffffffffffffffffffffffffffffff163373ffffffffffffffffffffffffffffffffffffffff161415156106bf576040517f08c379a00000000000000000000000000000000000000000000000000000000081526004018080602001828103825260168152602001807f4e6f7420737562736372697074696f6e206f776e65720000000000000000000081525060200191505060405180910390fd5b818173ffffffffffffffffffffffffffffffffffffffff1663aa8c217c6040518163ffffffff167c010000000000000000000000000000000000000000000000000000000002815260040160206040518083038186803b15801561072257600080fd5b505afa158015610736573d6000803e3d6000fd5b505050506040513d602081101561074c57600080fd5b8101908080519060200190929190505050101515156107b6576040517f08c379a000000000000000000000000000000000000000000000000000000000815260040180806020018281038252602f8152602001806117a7602f913960400191505060405180910390fd5b60008211151561082e576040517f08c379a000000000000000000000000000000000000000000000000000000000815260040180806020018281038252601d8152602001807f526577617264206d7573742062652067726561746572207468616e203000000081525060200191505060405180910390fd5b60408051908101604052808273ffffffffffffffffffffffffffffffffffffffff16638da5cb5b6040518163ffffffff167c010000000000000000000000000000000000000000000000000000000002815260040160206040518083038186803b15801561089b57600080fd5b505afa1580156108af573d6000803e3d6000fd5b505050506040513d60208110156108c557600080fd5b810190808051906020019092919050505073ffffffffffffffffffffffffffffffffffffffff168152602001838152506000808573ffffffffffffffffffffffffffffffffffffffff1673ffffffffffffffffffffffffffffffffffffffff16815260200190815260200160002060008201518160000160006101000a81548173ffffffffffffffffffffffffffffffffffffffff021916908373ffffffffffffffffffffffffffffffffffffffff160217905550602082015181600101559050508073ffffffffffffffffffffffffffffffffffffffff1663fc0c546a6040518163ffffffff167c010000000000000000000000000000000000000000000000000000000002815260040160206040518083038186803b1580156109e957600080fd5b505afa1580156109fd573d6000803e3d6000fd5b505050506040513d6020811015610a1357600080fd5b810190808051906020019092919050505073ffffffffffffffffffffffffffffffffffffffff168373ffffffffffffffffffffffffffffffffffffffff167fd7b0cfdac456ef4569b74d82f12bf845a7a0e6697bcbe8b3ed49dbab1b1ba937846040518082815260200191505060405180910390a3505050565b6000610a9883611691565b1515610aa75760009050610e22565b600083905060008173ffffffffffffffffffffffffffffffffffffffff1663fc0c546a6040518163ffffffff167c010000000000000000000000000000000000000000000000000000000002815260040160206040518083038186803b158015610b1057600080fd5b505afa158015610b24573d6000803e3d6000fd5b505050506040513d6020811015610b3a57600080fd5b8101908080519060200190929190505050905060008173ffffffffffffffffffffffffffffffffffffffff1663dd62ed3e8473ffffffffffffffffffffffffffffffffffffffff16638da5cb5b6040518163ffffffff167c010000000000000000000000000000000000000000000000000000000002815260040160206040518083038186803b158015610bcd57600080fd5b505afa158015610be1573d6000803e3d6000fd5b505050506040513d6020811015610bf757600080fd5b8101908080519060200190929190505050306040518363ffffffff167c0100000000000000000000000000000000000000000000000000000000028152600401808373ffffffffffffffffffffffffffffffffffffffff1673ffffffffffffffffffffffffffffffffffffffff1681526020018273ffffffffffffffffffffffffffffffffffffffff1673ffffffffffffffffffffffffffffffffffffffff1681526020019250505060206040518083038186803b158015610cb857600080fd5b505afa158015610ccc573d6000803e3d6000fd5b505050506040513d6020811015610ce257600080fd5b8101908080519060200190929190505050905060008060008873ffffffffffffffffffffffffffffffffffffffff1673ffffffffffffffffffffffffffffffffffffffff168152602001908152602001600020600101549050808210158015610e1b57508373ffffffffffffffffffffffffffffffffffffffff16630fd80f7e876040518263ffffffff167c0100000000000000000000000000000000000000000000000000000000028152600401808273ffffffffffffffffffffffffffffffffffffffff1673ffffffffffffffffffffffffffffffffffffffff16815260200191505060206040518083038186803b158015610ddf57600080fd5b505afa158015610df3573d6000803e3d6000fd5b505050506040513d6020811015610e0957600080fd5b81019080805190602001909291905050505b9450505050505b92915050565b8133600082905060008060008573ffffffffffffffffffffffffffffffffffffffff1673ffffffffffffffffffffffffffffffffffffffff168152602001908152602001600020905060008273ffffffffffffffffffffffffffffffffffffffff1663fc0c546a6040518163ffffffff167c010000000000000000000000000000000000000000000000000000000002815260040160206040518083038186803b158015610ed557600080fd5b505afa158015610ee9573d6000803e3d6000fd5b505050506040513d6020811015610eff57600080fd5b810190808051906020019092919050505073ffffffffffffffffffffffffffffffffffffffff166370a08231856040518263ffffffff167c0100000000000000000000000000000000000000000000000000000000028152600401808273ffffffffffffffffffffffffffffffffffffffff1673ffffffffffffffffffffffffffffffffffffffff16815260200191505060206040518083038186803b158015610fa857600080fd5b505afa158015610fbc573d6000803e3d6000fd5b505050506040513d6020811015610fd257600080fd5b81019080805190602001909291905050509050610fef8787610a8d565b1515611063576040517f08c379a00000000000000000000000000000000000000000000000000000000081526004018080602001828103825260168152602001807f43616e6e6f742070726f63657373207061796d656e740000000000000000000081525060200191505060405180910390fd5b600087905060008173ffffffffffffffffffffffffffffffffffffffff1663fc0c546a6040518163ffffffff167c010000000000000000000000000000000000000000000000000000000002815260040160206040518083038186803b1580156110cc57600080fd5b505afa1580156110e0573d6000803e3d6000fd5b505050506040513d60208110156110f657600080fd5b810190808051906020019092919050505090508173ffffffffffffffffffffffffffffffffffffffff16638fe123d7896040518263ffffffff167c0100000000000000000000000000000000000000000000000000000000028152600401808273ffffffffffffffffffffffffffffffffffffffff1673ffffffffffffffffffffffffffffffffffffffff168152602001915050600060405180830381600087803b1580156111a457600080fd5b505af11580156111b8573d6000803e3d6000fd5b5050505060008060008b73ffffffffffffffffffffffffffffffffffffffff1673ffffffffffffffffffffffffffffffffffffffff1681526020019081526020016000206001015490508173ffffffffffffffffffffffffffffffffffffffff166323b872dd8473ffffffffffffffffffffffffffffffffffffffff16638da5cb5b6040518163ffffffff167c010000000000000000000000000000000000000000000000000000000002815260040160206040518083038186803b15801561128057600080fd5b505afa158015611294573d6000803e3d6000fd5b505050506040513d60208110156112aa57600080fd5b810190808051906020019092919050505033846040518463ffffffff167c0100000000000000000000000000000000000000000000000000000000028152600401808473ffffffffffffffffffffffffffffffffffffffff1673ffffffffffffffffffffffffffffffffffffffff1681526020018373ffffffffffffffffffffffffffffffffffffffff1673ffffffffffffffffffffffffffffffffffffffff1681526020018281526020019350505050602060405180830381600087803b15801561137557600080fd5b505af1158015611389573d6000803e3d6000fd5b505050506040513d602081101561139f57600080fd5b81019080805190602001909291905050501515611407576040517f08c379a00000000000000000000000000000000000000000000000000000000081526004018080602001828103825260408152602001806117676040913960400191505060405180910390fd5b8173ffffffffffffffffffffffffffffffffffffffff168973ffffffffffffffffffffffffffffffffffffffff168b73ffffffffffffffffffffffffffffffffffffffff167fc11489bc0da5f677472803615340962519e2fc5a38ed06ecefc2f98cdaa1863a846040518082815260200191505060405180910390a450505060008373ffffffffffffffffffffffffffffffffffffffff1663fc0c546a6040518163ffffffff167c010000000000000000000000000000000000000000000000000000000002815260040160206040518083038186803b1580156114ea57600080fd5b505afa1580156114fe573d6000803e3d6000fd5b505050506040513d602081101561151457600080fd5b810190808051906020019092919050505073ffffffffffffffffffffffffffffffffffffffff166370a08231866040518263ffffffff167c0100000000000000000000000000000000000000000000000000000000028152600401808273ffffffffffffffffffffffffffffffffffffffff1673ffffffffffffffffffffffffffffffffffffffff16815260200191505060206040518083038186803b1580156115bd57600080fd5b505afa1580156115d1573d6000803e3d6000fd5b505050506040513d60208110156115e757600080fd5b810190808051906020019092919050505090508260010154611612838361172290919063ffffffff16565b141515611687576040517f08c379a000000000000000000000000000000000000000000000000000000000815260040180806020018281038252601a8152602001807f436865636b20746f6b656e2062616c616e6365206661696c656400000000000081525060200191505060405180910390fd5b5050505050505050565b6000806000808473ffffffffffffffffffffffffffffffffffffffff1673ffffffffffffffffffffffffffffffffffffffff16815260200190815260200160002060010154119050919050565b60006020528060005260406000206000915090508060000160009054906101000a900473ffffffffffffffffffffffffffffffffffffffff16908060010154905082565b600082821115151561173357600080fd5b60008284039050809150509291505056fe537562736372697074696f6e20697320616c72656164792072656769737465726564746f6b656e2e7472616e736665722066726f6d20746f6b656e537562736372697074696f6e2e6f776e657220746f206d73672e73656e646572206661696c6564426f756e7479207265776172642063616e6e6f742065786365656420737562736372697074696f6e20616d6f756e74a165627a7a72305820d07e933bb1e60a385c0f835ff8eef3e8c8beb4887e1b09601c55497f5f7138510029",
  "source": "pragma solidity 0.5.2;\n\nimport 'openzeppelin-solidity/contracts/token/ERC20/ERC20.sol';\nimport 'openzeppelin-solidity/contracts/math/SafeMath.sol';\nimport \"./Subscription.sol\";\n\n// TODO remove me\n// Gas used with lib\n// 1900000\n// without lib\n// 1683462\n\ncontract PaymentBounty {\n  using SafeMath for uint;\n\n  event BountyRegistered(\n    address indexed subscription, address indexed token, uint reward\n  );\n  event BountyUnregistered(address indexed subscription);\n  event BountyClaimed(\n    address indexed subscription,\n    address indexed subscriber,\n    address indexed token,\n    uint reward\n  );\n\n  struct Bounty {\n    address owner;\n    uint reward;\n  }\n\n  // mapping from subscription to bounty\n  mapping(address => Bounty) public bounties;\n\n  modifier checkTokenBalanceAfterTransfer(\n    address subscription, address tokenOwner\n  ) {\n    Subscription sub = Subscription(subscription);\n    Bounty storage bounty = bounties[subscription];\n\n    uint balanceBefore = ERC20(sub.token()).balanceOf(tokenOwner);\n    _;\n    uint balanceAfter = ERC20(sub.token()).balanceOf(tokenOwner);\n\n    require(\n      balanceAfter.sub(balanceBefore) == bounty.reward,\n      \"Check token balance failed\"\n    );\n  }\n\n  function register(address subscription, uint reward) public {\n    require(\n      !isRegistered(subscription),\n      \"Subscription is already registered\"\n    );\n\n    Subscription sub = Subscription(subscription);\n\n    require(msg.sender == sub.owner(), \"Not subscription owner\");\n\n    require(\n      sub.amount() >= reward,\n      \"Bounty reward cannot exceed subscription amount\"\n    );\n\n    require(reward > 0, \"Reward must be greater than 0\");\n\n    bounties[subscription] = Bounty({\n      owner: sub.owner(),\n      reward: reward\n    });\n\n    emit BountyRegistered(subscription, sub.token(), reward);\n  }\n\n  function unregister(address subscription) public {\n    require(isRegistered(subscription), \"Subscription is not registered\");\n\n    Bounty storage bounty = bounties[subscription];\n\n    require(msg.sender == bounty.owner, \"Not subscription owner\");\n\n    delete bounties[subscription];\n\n    emit BountyUnregistered(subscription);\n  }\n\n  function canClaimBounty(address subscription, address subscriber)\n    public\n    view\n    returns (bool)\n  {\n    if (!isRegistered(subscription)) {\n      return false;\n    }\n\n    // TODO if subscription does not exist return false\n\n    Subscription sub = Subscription(subscription);\n\n    ERC20 token = ERC20(sub.token());\n\n    uint allowance = token.allowance(sub.owner(), address(this));\n    uint reward = bounties[subscription].reward;\n\n    return (\n      allowance >= reward &&\n      sub.canProcessPayment(subscriber)\n    );\n  }\n\n  function claimBounty(address subscription, address subscriber)\n    public\n    checkTokenBalanceAfterTransfer(subscription, msg.sender)\n  {\n    require(\n      canClaimBounty(subscription, subscriber),\n      \"Cannot process payment\"\n    );\n\n    Subscription sub = Subscription(subscription);\n    ERC20 token = ERC20(sub.token());\n\n    sub.processPayment(subscriber);\n\n    uint reward = bounties[subscription].reward;\n\n    require(\n      token.transferFrom(sub.owner(), msg.sender, reward),\n      \"token.transfer from tokenSubscription.owner to msg.sender failed\"\n    );\n\n    emit BountyClaimed(subscription, subscriber, address(token), reward);\n  }\n\n  function isRegistered(address subscription)  public view returns (bool) {\n    return bounties[subscription].reward > 0;\n  }\n}\n",
  "sourcePath": "/home/t4sk/bkp/dev/t4sk/d-monetize/contracts/contracts/PaymentBounty.sol",
  "compiler": {
    "name": "solc",
    "version": "0.5.2+commit.1df8f40c.Linux.g++"
  },
  "schemaVersion": "3.0.2",
  "updatedAt": "2019-03-12T09:03:40.143Z",
  "devdoc": {
    "methods": {}
  },
  "userdoc": {
    "methods": {}
  }
}