{
  "contractName": "PaymentBounty",
  "abi": [
    {
      "constant": false,
      "inputs": [],
      "name": "renounceOwnership",
      "outputs": [],
      "payable": false,
      "stateMutability": "nonpayable",
      "type": "function",
      "signature": "0x715018a6"
    },
    {
      "constant": true,
      "inputs": [],
      "name": "owner",
      "outputs": [
        {
          "name": "",
          "type": "address"
        }
      ],
      "payable": false,
      "stateMutability": "view",
      "type": "function",
      "signature": "0x8da5cb5b"
    },
    {
      "constant": true,
      "inputs": [],
      "name": "isOwner",
      "outputs": [
        {
          "name": "",
          "type": "bool"
        }
      ],
      "payable": false,
      "stateMutability": "view",
      "type": "function",
      "signature": "0x8f32d59b"
    },
    {
      "constant": true,
      "inputs": [
        {
          "name": "",
          "type": "address"
        }
      ],
      "name": "bounties",
      "outputs": [
        {
          "name": "payer",
          "type": "address"
        },
        {
          "name": "reward",
          "type": "uint256"
        }
      ],
      "payable": false,
      "stateMutability": "view",
      "type": "function",
      "signature": "0xcdfbea58"
    },
    {
      "constant": false,
      "inputs": [
        {
          "name": "newOwner",
          "type": "address"
        }
      ],
      "name": "transferOwnership",
      "outputs": [],
      "payable": false,
      "stateMutability": "nonpayable",
      "type": "function",
      "signature": "0xf2fde38b"
    },
    {
      "anonymous": false,
      "inputs": [
        {
          "indexed": true,
          "name": "subscription",
          "type": "address"
        },
        {
          "indexed": true,
          "name": "token",
          "type": "address"
        },
        {
          "indexed": false,
          "name": "reward",
          "type": "uint256"
        }
      ],
      "name": "BountyRegistered",
      "type": "event",
      "signature": "0xd7b0cfdac456ef4569b74d82f12bf845a7a0e6697bcbe8b3ed49dbab1b1ba937"
    },
    {
      "anonymous": false,
      "inputs": [
        {
          "indexed": true,
          "name": "subscription",
          "type": "address"
        }
      ],
      "name": "BountyUnregistered",
      "type": "event",
      "signature": "0x181da0f18499f2602872e8efd7b3f8b12375754a12a77869a29c004140e00b3e"
    },
    {
      "anonymous": false,
      "inputs": [
        {
          "indexed": true,
          "name": "subscription",
          "type": "address"
        },
        {
          "indexed": true,
          "name": "subscriber",
          "type": "address"
        },
        {
          "indexed": true,
          "name": "token",
          "type": "address"
        },
        {
          "indexed": false,
          "name": "reward",
          "type": "uint256"
        }
      ],
      "name": "BountyClaimed",
      "type": "event",
      "signature": "0xc11489bc0da5f677472803615340962519e2fc5a38ed06ecefc2f98cdaa1863a"
    },
    {
      "anonymous": false,
      "inputs": [
        {
          "indexed": true,
          "name": "previousOwner",
          "type": "address"
        },
        {
          "indexed": true,
          "name": "newOwner",
          "type": "address"
        }
      ],
      "name": "OwnershipTransferred",
      "type": "event",
      "signature": "0x8be0079c531659141344cd1fd0a4f28419497f9722a3daafe3b4186f6b6457e0"
    },
    {
      "constant": false,
      "inputs": [
        {
          "name": "subscription",
          "type": "address"
        },
        {
          "name": "reward",
          "type": "uint256"
        }
      ],
      "name": "register",
      "outputs": [],
      "payable": false,
      "stateMutability": "nonpayable",
      "type": "function",
      "signature": "0x6d705ebb"
    },
    {
      "constant": false,
      "inputs": [
        {
          "name": "subscription",
          "type": "address"
        }
      ],
      "name": "unregister",
      "outputs": [],
      "payable": false,
      "stateMutability": "nonpayable",
      "type": "function",
      "signature": "0x2ec2c246"
    },
    {
      "constant": true,
      "inputs": [
        {
          "name": "subscription",
          "type": "address"
        },
        {
          "name": "subscriber",
          "type": "address"
        }
      ],
      "name": "canClaimBounty",
      "outputs": [
        {
          "name": "",
          "type": "bool"
        }
      ],
      "payable": false,
      "stateMutability": "view",
      "type": "function",
      "signature": "0x847b9c50"
    },
    {
      "constant": false,
      "inputs": [
        {
          "name": "subscription",
          "type": "address"
        },
        {
          "name": "subscriber",
          "type": "address"
        }
      ],
      "name": "claimBounty",
      "outputs": [],
      "payable": false,
      "stateMutability": "nonpayable",
      "type": "function",
      "signature": "0x8ceb13d4"
    },
    {
      "constant": true,
      "inputs": [
        {
          "name": "subscription",
          "type": "address"
        }
      ],
      "name": "isRegistered",
      "outputs": [
        {
          "name": "",
          "type": "bool"
        }
      ],
      "payable": false,
      "stateMutability": "view",
      "type": "function",
      "signature": "0xc3c5a547"
    }
  ],
  "bytecode": "0x6080604052336000806101000a81548173ffffffffffffffffffffffffffffffffffffffff021916908373ffffffffffffffffffffffffffffffffffffffff1602179055506000809054906101000a900473ffffffffffffffffffffffffffffffffffffffff1673ffffffffffffffffffffffffffffffffffffffff16600073ffffffffffffffffffffffffffffffffffffffff167f8be0079c531659141344cd1fd0a4f28419497f9722a3daafe3b4186f6b6457e060405160405180910390a3611985806100cf6000396000f3fe608060405234801561001057600080fd5b50600436106100bb576000357c0100000000000000000000000000000000000000000000000000000000900480638da5cb5b116100835780638da5cb5b1461023c5780638f32d59b14610286578063c3c5a547146102a8578063cdfbea5814610304578063f2fde38b1461038f576100bb565b80632ec2c246146100c05780636d705ebb14610104578063715018a614610152578063847b9c501461015c5780638ceb13d4146101d8575b600080fd5b610102600480360360208110156100d657600080fd5b81019080803573ffffffffffffffffffffffffffffffffffffffff1690602001909291905050506103d3565b005b6101506004803603604081101561011a57600080fd5b81019080803573ffffffffffffffffffffffffffffffffffffffff1690602001909291908035906020019092919050505061051a565b005b61015a610962565b005b6101be6004803603604081101561017257600080fd5b81019080803573ffffffffffffffffffffffffffffffffffffffff169060200190929190803573ffffffffffffffffffffffffffffffffffffffff169060200190929190505050610a34565b604051808215151515815260200191505060405180910390f35b61023a600480360360408110156101ee57600080fd5b81019080803573ffffffffffffffffffffffffffffffffffffffff169060200190929190803573ffffffffffffffffffffffffffffffffffffffff169060200190929190505050610dd0565b005b6102446116a2565b604051808273ffffffffffffffffffffffffffffffffffffffff1673ffffffffffffffffffffffffffffffffffffffff16815260200191505060405180910390f35b61028e6116cb565b604051808215151515815260200191505060405180910390f35b6102ea600480360360208110156102be57600080fd5b81019080803573ffffffffffffffffffffffffffffffffffffffff169060200190929190505050611722565b604051808215151515815260200191505060405180910390f35b6103466004803603602081101561031a57600080fd5b81019080803573ffffffffffffffffffffffffffffffffffffffff169060200190929190505050611770565b604051808373ffffffffffffffffffffffffffffffffffffffff1673ffffffffffffffffffffffffffffffffffffffff1681526020018281526020019250505060405180910390f35b6103d1600480360360208110156103a557600080fd5b81019080803573ffffffffffffffffffffffffffffffffffffffff1690602001909291905050506117b4565b005b6103db6116cb565b15156103e657600080fd5b6103ef81611722565b1515610463576040517f08c379a000000000000000000000000000000000000000000000000000000000815260040180806020018281038252601e8152602001807f537562736372697074696f6e206973206e6f742072656769737465726564000081525060200191505060405180910390fd5b600160008273ffffffffffffffffffffffffffffffffffffffff1673ffffffffffffffffffffffffffffffffffffffff168152602001908152602001600020600080820160006101000a81549073ffffffffffffffffffffffffffffffffffffffff0219169055600182016000905550508073ffffffffffffffffffffffffffffffffffffffff167f181da0f18499f2602872e8efd7b3f8b12375754a12a77869a29c004140e00b3e60405160405180910390a250565b6105226116cb565b151561052d57600080fd5b61053682611722565b15151561058e576040517f08c379a00000000000000000000000000000000000000000000000000000000081526004018080602001828103825260228152602001806118ce6022913960400191505060405180910390fd5b6000829050818173ffffffffffffffffffffffffffffffffffffffff1663aa8c217c6040518163ffffffff167c010000000000000000000000000000000000000000000000000000000002815260040160206040518083038186803b1580156105f657600080fd5b505afa15801561060a573d6000803e3d6000fd5b505050506040513d602081101561062057600080fd5b81019080805190602001909291905050501015151561068a576040517f08c379a000000000000000000000000000000000000000000000000000000000815260040180806020018281038252602f81526020018061192b602f913960400191505060405180910390fd5b600082111515610702576040517f08c379a000000000000000000000000000000000000000000000000000000000815260040180806020018281038252601d8152602001807f526577617264206d7573742062652067726561746572207468616e203000000081525060200191505060405180910390fd5b60408051908101604052808273ffffffffffffffffffffffffffffffffffffffff1663ae90b2136040518163ffffffff167c010000000000000000000000000000000000000000000000000000000002815260040160206040518083038186803b15801561076f57600080fd5b505afa158015610783573d6000803e3d6000fd5b505050506040513d602081101561079957600080fd5b810190808051906020019092919050505073ffffffffffffffffffffffffffffffffffffffff16815260200183815250600160008573ffffffffffffffffffffffffffffffffffffffff1673ffffffffffffffffffffffffffffffffffffffff16815260200190815260200160002060008201518160000160006101000a81548173ffffffffffffffffffffffffffffffffffffffff021916908373ffffffffffffffffffffffffffffffffffffffff160217905550602082015181600101559050508073ffffffffffffffffffffffffffffffffffffffff1663fc0c546a6040518163ffffffff167c010000000000000000000000000000000000000000000000000000000002815260040160206040518083038186803b1580156108be57600080fd5b505afa1580156108d2573d6000803e3d6000fd5b505050506040513d60208110156108e857600080fd5b810190808051906020019092919050505073ffffffffffffffffffffffffffffffffffffffff168373ffffffffffffffffffffffffffffffffffffffff167fd7b0cfdac456ef4569b74d82f12bf845a7a0e6697bcbe8b3ed49dbab1b1ba937846040518082815260200191505060405180910390a3505050565b61096a6116cb565b151561097557600080fd5b600073ffffffffffffffffffffffffffffffffffffffff166000809054906101000a900473ffffffffffffffffffffffffffffffffffffffff1673ffffffffffffffffffffffffffffffffffffffff167f8be0079c531659141344cd1fd0a4f28419497f9722a3daafe3b4186f6b6457e060405160405180910390a360008060006101000a81548173ffffffffffffffffffffffffffffffffffffffff021916908373ffffffffffffffffffffffffffffffffffffffff160217905550565b6000610a3f83611722565b1515610a4e5760009050610dca565b600083905060008173ffffffffffffffffffffffffffffffffffffffff1663fc0c546a6040518163ffffffff167c010000000000000000000000000000000000000000000000000000000002815260040160206040518083038186803b158015610ab757600080fd5b505afa158015610acb573d6000803e3d6000fd5b505050506040513d6020811015610ae157600080fd5b8101908080519060200190929190505050905060008173ffffffffffffffffffffffffffffffffffffffff1663dd62ed3e8473ffffffffffffffffffffffffffffffffffffffff1663ae90b2136040518163ffffffff167c010000000000000000000000000000000000000000000000000000000002815260040160206040518083038186803b158015610b7457600080fd5b505afa158015610b88573d6000803e3d6000fd5b505050506040513d6020811015610b9e57600080fd5b8101908080519060200190929190505050306040518363ffffffff167c0100000000000000000000000000000000000000000000000000000000028152600401808373ffffffffffffffffffffffffffffffffffffffff1673ffffffffffffffffffffffffffffffffffffffff1681526020018273ffffffffffffffffffffffffffffffffffffffff1673ffffffffffffffffffffffffffffffffffffffff1681526020019250505060206040518083038186803b158015610c5f57600080fd5b505afa158015610c73573d6000803e3d6000fd5b505050506040513d6020811015610c8957600080fd5b810190808051906020019092919050505090506000600160008873ffffffffffffffffffffffffffffffffffffffff1673ffffffffffffffffffffffffffffffffffffffff168152602001908152602001600020600101549050808210158015610dc357508373ffffffffffffffffffffffffffffffffffffffff16630fd80f7e876040518263ffffffff167c0100000000000000000000000000000000000000000000000000000000028152600401808273ffffffffffffffffffffffffffffffffffffffff1673ffffffffffffffffffffffffffffffffffffffff16815260200191505060206040518083038186803b158015610d8757600080fd5b505afa158015610d9b573d6000803e3d6000fd5b505050506040513d6020811015610db157600080fd5b81019080805190602001909291905050505b9450505050505b92915050565b813360008290506000600160008573ffffffffffffffffffffffffffffffffffffffff1673ffffffffffffffffffffffffffffffffffffffff168152602001908152602001600020905060008273ffffffffffffffffffffffffffffffffffffffff1663fc0c546a6040518163ffffffff167c010000000000000000000000000000000000000000000000000000000002815260040160206040518083038186803b158015610e7e57600080fd5b505afa158015610e92573d6000803e3d6000fd5b505050506040513d6020811015610ea857600080fd5b810190808051906020019092919050505073ffffffffffffffffffffffffffffffffffffffff166370a08231856040518263ffffffff167c0100000000000000000000000000000000000000000000000000000000028152600401808273ffffffffffffffffffffffffffffffffffffffff1673ffffffffffffffffffffffffffffffffffffffff16815260200191505060206040518083038186803b158015610f5157600080fd5b505afa158015610f65573d6000803e3d6000fd5b505050506040513d6020811015610f7b57600080fd5b81019080805190602001909291905050509050610f988787610a34565b151561100c576040517f08c379a00000000000000000000000000000000000000000000000000000000081526004018080602001828103825260168152602001807f43616e6e6f742070726f63657373207061796d656e740000000000000000000081525060200191505060405180910390fd5b600087905060008173ffffffffffffffffffffffffffffffffffffffff1663fc0c546a6040518163ffffffff167c010000000000000000000000000000000000000000000000000000000002815260040160206040518083038186803b15801561107557600080fd5b505afa158015611089573d6000803e3d6000fd5b505050506040513d602081101561109f57600080fd5b810190808051906020019092919050505090508173ffffffffffffffffffffffffffffffffffffffff16638fe123d7896040518263ffffffff167c0100000000000000000000000000000000000000000000000000000000028152600401808273ffffffffffffffffffffffffffffffffffffffff1673ffffffffffffffffffffffffffffffffffffffff168152602001915050600060405180830381600087803b15801561114d57600080fd5b505af1158015611161573d6000803e3d6000fd5b505050506000600160008b73ffffffffffffffffffffffffffffffffffffffff1673ffffffffffffffffffffffffffffffffffffffff1681526020019081526020016000206001015490508173ffffffffffffffffffffffffffffffffffffffff166323b872dd8473ffffffffffffffffffffffffffffffffffffffff1663ae90b2136040518163ffffffff167c010000000000000000000000000000000000000000000000000000000002815260040160206040518083038186803b15801561122a57600080fd5b505afa15801561123e573d6000803e3d6000fd5b505050506040513d602081101561125457600080fd5b810190808051906020019092919050505033846040518463ffffffff167c0100000000000000000000000000000000000000000000000000000000028152600401808473ffffffffffffffffffffffffffffffffffffffff1673ffffffffffffffffffffffffffffffffffffffff1681526020018373ffffffffffffffffffffffffffffffffffffffff1673ffffffffffffffffffffffffffffffffffffffff1681526020018281526020019350505050602060405180830381600087803b15801561131f57600080fd5b505af1158015611333573d6000803e3d6000fd5b505050506040513d602081101561134957600080fd5b810190808051906020019092919050505015156113b1576040517f08c379a000000000000000000000000000000000000000000000000000000000815260040180806020018281038252603b8152602001806118f0603b913960400191505060405180910390fd5b8173ffffffffffffffffffffffffffffffffffffffff168973ffffffffffffffffffffffffffffffffffffffff168b73ffffffffffffffffffffffffffffffffffffffff167fc11489bc0da5f677472803615340962519e2fc5a38ed06ecefc2f98cdaa1863a846040518082815260200191505060405180910390a450505060008373ffffffffffffffffffffffffffffffffffffffff1663fc0c546a6040518163ffffffff167c010000000000000000000000000000000000000000000000000000000002815260040160206040518083038186803b15801561149457600080fd5b505afa1580156114a8573d6000803e3d6000fd5b505050506040513d60208110156114be57600080fd5b810190808051906020019092919050505073ffffffffffffffffffffffffffffffffffffffff166370a08231866040518263ffffffff167c0100000000000000000000000000000000000000000000000000000000028152600401808273ffffffffffffffffffffffffffffffffffffffff1673ffffffffffffffffffffffffffffffffffffffff16815260200191505060206040518083038186803b15801561156757600080fd5b505afa15801561157b573d6000803e3d6000fd5b505050506040513d602081101561159157600080fd5b81019080805190602001909291905050509050818111151561161b576040517f08c379a00000000000000000000000000000000000000000000000000000000081526004018080602001828103825260158152602001807f546f6b656e207472616e73666572206661696c6564000000000000000000000081525060200191505060405180910390fd5b8260010154828203141515611698576040517f08c379a000000000000000000000000000000000000000000000000000000000815260040180806020018281038252601a8152602001807f436865636b20746f6b656e2062616c616e6365206661696c656400000000000081525060200191505060405180910390fd5b5050505050505050565b60008060009054906101000a900473ffffffffffffffffffffffffffffffffffffffff16905090565b60008060009054906101000a900473ffffffffffffffffffffffffffffffffffffffff1673ffffffffffffffffffffffffffffffffffffffff163373ffffffffffffffffffffffffffffffffffffffff1614905090565b600080600160008473ffffffffffffffffffffffffffffffffffffffff1673ffffffffffffffffffffffffffffffffffffffff16815260200190815260200160002060010154119050919050565b60016020528060005260406000206000915090508060000160009054906101000a900473ffffffffffffffffffffffffffffffffffffffff16908060010154905082565b6117bc6116cb565b15156117c757600080fd5b6117d0816117d3565b50565b600073ffffffffffffffffffffffffffffffffffffffff168173ffffffffffffffffffffffffffffffffffffffff161415151561180f57600080fd5b8073ffffffffffffffffffffffffffffffffffffffff166000809054906101000a900473ffffffffffffffffffffffffffffffffffffffff1673ffffffffffffffffffffffffffffffffffffffff167f8be0079c531659141344cd1fd0a4f28419497f9722a3daafe3b4186f6b6457e060405160405180910390a3806000806101000a81548173ffffffffffffffffffffffffffffffffffffffff021916908373ffffffffffffffffffffffffffffffffffffffff1602179055505056fe537562736372697074696f6e20697320616c72656164792072656769737465726564746f6b656e2e7472616e736665722066726f6d20737562736372697074696f6e20706179656520746f206d73672e73656e646572206661696c6564426f756e7479207265776172642063616e6e6f742065786365656420737562736372697074696f6e20616d6f756e74a165627a7a72305820c03d20e3f3b716a3f45cdf879b5644a434eba8ffd6a3d3c3cf0281a09339cf4f0029",
  "source": "pragma solidity 0.5.2;\n\nimport 'openzeppelin-solidity/contracts/ownership/Ownable.sol';\nimport 'openzeppelin-solidity/contracts/token/ERC20/ERC20.sol';\nimport \"./Subscription.sol\";\n\ncontract PaymentBounty is Ownable {\n  event BountyRegistered(\n    address indexed subscription, address indexed token, uint reward\n  );\n  event BountyUnregistered(address indexed subscription);\n  event BountyClaimed(\n    address indexed subscription,\n    address indexed subscriber,\n    address indexed token,\n    uint reward\n  );\n\n  struct Bounty {\n    address payer;\n    uint reward;\n  }\n\n  // mapping from subscription to bounty\n  mapping(address => Bounty) public bounties;\n\n  modifier checkTokenBalanceAfterTransfer(\n    address subscription, address tokenOwner\n  ) {\n    Subscription sub = Subscription(subscription);\n    Bounty storage bounty = bounties[subscription];\n\n    uint balanceBefore = ERC20(sub.token()).balanceOf(tokenOwner);\n    _;\n    uint balanceAfter = ERC20(sub.token()).balanceOf(tokenOwner);\n\n    require(balanceAfter > balanceBefore, \"Token transfer failed\");\n\n    require(\n      balanceAfter - balanceBefore == bounty.reward,\n      \"Check token balance failed\"\n    );\n  }\n\n  function register(address subscription, uint reward) public onlyOwner {\n    require(\n      !isRegistered(subscription),\n      \"Subscription is already registered\"\n    );\n\n    Subscription sub = Subscription(subscription);\n\n    require(\n      sub.amount() >= reward,\n      \"Bounty reward cannot exceed subscription amount\"\n    );\n\n    require(reward > 0, \"Reward must be greater than 0\");\n\n    bounties[subscription] = Bounty({\n      payer: sub.payee(),\n      reward: reward\n    });\n\n    emit BountyRegistered(subscription, sub.token(), reward);\n  }\n\n  function unregister(address subscription) public onlyOwner {\n    require(isRegistered(subscription), \"Subscription is not registered\");\n\n    delete bounties[subscription];\n\n    emit BountyUnregistered(subscription);\n  }\n\n  function canClaimBounty(address subscription, address subscriber)\n    public\n    view\n    returns (bool)\n  {\n    if (!isRegistered(subscription)) {\n      return false;\n    }\n\n    // TODO if subscription does not exist return false\n\n    Subscription sub = Subscription(subscription);\n\n    ERC20 token = ERC20(sub.token());\n\n    uint allowance = token.allowance(sub.payee(), address(this));\n    uint reward = bounties[subscription].reward;\n\n    return (\n      allowance >= reward &&\n      sub.canProcessPayment(subscriber)\n    );\n  }\n\n  function claimBounty(address subscription, address subscriber)\n    public\n    checkTokenBalanceAfterTransfer(subscription, msg.sender)\n  {\n    require(\n      canClaimBounty(subscription, subscriber),\n      \"Cannot process payment\"\n    );\n\n    Subscription sub = Subscription(subscription);\n    ERC20 token = ERC20(sub.token());\n\n    sub.processPayment(subscriber);\n\n    uint reward = bounties[subscription].reward;\n\n    require(\n      token.transferFrom(sub.payee(), msg.sender, reward),\n      \"token.transfer from subscription payee to msg.sender failed\"\n    );\n\n    emit BountyClaimed(subscription, subscriber, address(token), reward);\n  }\n\n  function isRegistered(address subscription)  public view returns (bool) {\n    return bounties[subscription].reward > 0;\n  }\n}\n",
  "sourcePath": "/home/t4sk/bkp/dev/t4sk/d-monetize/contracts/contracts/PaymentBounty.sol",
  "compiler": {
    "name": "solc",
    "version": "0.5.2+commit.1df8f40c.Linux.g++"
  },
  "schemaVersion": "3.0.2",
  "updatedAt": "2019-03-16T06:56:42.206Z",
  "devdoc": {
    "methods": {
      "isOwner()": {
        "return": "true if `msg.sender` is the owner of the contract."
      },
      "owner()": {
        "return": "the address of the owner."
      },
      "renounceOwnership()": {
        "details": "Allows the current owner to relinquish control of the contract."
      },
      "transferOwnership(address)": {
        "details": "Allows the current owner to transfer control of the contract to a newOwner.",
        "params": {
          "newOwner": "The address to transfer ownership to."
        }
      }
    }
  },
  "userdoc": {
    "methods": {
      "renounceOwnership()": {
        "notice": "Renouncing to ownership will leave the contract without an owner. It will not be possible to call the functions with the `onlyOwner` modifier anymore."
      }
    }
  }
}