{
  "contractName": "PaymentBounty",
  "abi": [
    {
      "constant": false,
      "inputs": [
        {
          "name": "recipient",
          "type": "address"
        }
      ],
      "name": "transferPrimary",
      "outputs": [],
      "payable": false,
      "stateMutability": "nonpayable",
      "type": "function"
    },
    {
      "constant": true,
      "inputs": [],
      "name": "primary",
      "outputs": [
        {
          "name": "",
          "type": "address"
        }
      ],
      "payable": false,
      "stateMutability": "view",
      "type": "function"
    },
    {
      "anonymous": false,
      "inputs": [
        {
          "indexed": true,
          "name": "subscription",
          "type": "address"
        },
        {
          "indexed": true,
          "name": "token",
          "type": "address"
        },
        {
          "indexed": false,
          "name": "reward",
          "type": "uint256"
        }
      ],
      "name": "BountyRegistered",
      "type": "event"
    },
    {
      "anonymous": false,
      "inputs": [
        {
          "indexed": true,
          "name": "subscription",
          "type": "address"
        }
      ],
      "name": "BountyUnregistered",
      "type": "event"
    },
    {
      "anonymous": false,
      "inputs": [
        {
          "indexed": true,
          "name": "subscription",
          "type": "address"
        },
        {
          "indexed": true,
          "name": "subscriber",
          "type": "address"
        },
        {
          "indexed": true,
          "name": "token",
          "type": "address"
        },
        {
          "indexed": false,
          "name": "reward",
          "type": "uint256"
        }
      ],
      "name": "PaymentProcessed",
      "type": "event"
    },
    {
      "anonymous": false,
      "inputs": [
        {
          "indexed": false,
          "name": "recipient",
          "type": "address"
        }
      ],
      "name": "PrimaryTransferred",
      "type": "event"
    },
    {
      "constant": false,
      "inputs": [
        {
          "name": "subscription",
          "type": "address"
        },
        {
          "name": "reward",
          "type": "uint256"
        }
      ],
      "name": "register",
      "outputs": [],
      "payable": false,
      "stateMutability": "nonpayable",
      "type": "function"
    },
    {
      "constant": false,
      "inputs": [
        {
          "name": "subscription",
          "type": "address"
        }
      ],
      "name": "unregister",
      "outputs": [],
      "payable": false,
      "stateMutability": "nonpayable",
      "type": "function"
    },
    {
      "constant": true,
      "inputs": [
        {
          "name": "subscription",
          "type": "address"
        },
        {
          "name": "subscriber",
          "type": "address"
        }
      ],
      "name": "canProcessPayment",
      "outputs": [
        {
          "name": "",
          "type": "bool"
        }
      ],
      "payable": false,
      "stateMutability": "view",
      "type": "function"
    },
    {
      "constant": false,
      "inputs": [
        {
          "name": "subscription",
          "type": "address"
        },
        {
          "name": "subscriber",
          "type": "address"
        }
      ],
      "name": "processPayment",
      "outputs": [],
      "payable": false,
      "stateMutability": "nonpayable",
      "type": "function"
    },
    {
      "constant": true,
      "inputs": [
        {
          "name": "subscription",
          "type": "address"
        }
      ],
      "name": "bountyExists",
      "outputs": [
        {
          "name": "",
          "type": "bool"
        }
      ],
      "payable": false,
      "stateMutability": "view",
      "type": "function"
    },
    {
      "constant": true,
      "inputs": [],
      "name": "getBountyCount",
      "outputs": [
        {
          "name": "",
          "type": "uint256"
        }
      ],
      "payable": false,
      "stateMutability": "view",
      "type": "function"
    },
    {
      "constant": true,
      "inputs": [
        {
          "name": "index",
          "type": "uint256"
        }
      ],
      "name": "getBounty",
      "outputs": [
        {
          "name": "subscription",
          "type": "address"
        },
        {
          "name": "reward",
          "type": "uint256"
        }
      ],
      "payable": false,
      "stateMutability": "view",
      "type": "function"
    }
  ],
  "bytecode": "0x6080604052336000806101000a81548173ffffffffffffffffffffffffffffffffffffffff021916908373ffffffffffffffffffffffffffffffffffffffff1602179055507f4101e71e974f68df5e9730cc223280b41654676bbb052cdcc735c3337e64d2d96000809054906101000a900473ffffffffffffffffffffffffffffffffffffffff16604051808273ffffffffffffffffffffffffffffffffffffffff1673ffffffffffffffffffffffffffffffffffffffff16815260200191505060405180910390a1611c85806100d76000396000f3fe608060405234801561001057600080fd5b50600436106100b0576000357c0100000000000000000000000000000000000000000000000000000000900480639a1a8551116100835780639a1a8551146101a9578063c6dbdf6114610225578063ce7a2b021461026f578063e95b0dc9146102d3578063ee8c4bbf1461032f576100b0565b806306641f7e146100b55780632348238c146100d35780632ec2c246146101175780636d705ebb1461015b575b600080fd5b6100bd6103a4565b6040518082815260200191505060405180910390f35b610115600480360360208110156100e957600080fd5b81019080803573ffffffffffffffffffffffffffffffffffffffff1690602001909291905050506103b5565b005b6101596004803603602081101561012d57600080fd5b81019080803573ffffffffffffffffffffffffffffffffffffffff169060200190929190505050610513565b005b6101a76004803603604081101561017157600080fd5b81019080803573ffffffffffffffffffffffffffffffffffffffff16906020019092919080359060200190929190505050610695565b005b61020b600480360360408110156101bf57600080fd5b81019080803573ffffffffffffffffffffffffffffffffffffffff169060200190929190803573ffffffffffffffffffffffffffffffffffffffff169060200190929190505050610a2e565b604051808215151515815260200191505060405180910390f35b61022d610dd2565b604051808273ffffffffffffffffffffffffffffffffffffffff1673ffffffffffffffffffffffffffffffffffffffff16815260200191505060405180910390f35b6102d16004803603604081101561028557600080fd5b81019080803573ffffffffffffffffffffffffffffffffffffffff169060200190929190803573ffffffffffffffffffffffffffffffffffffffff169060200190929190505050610dfb565b005b610315600480360360208110156102e957600080fd5b81019080803573ffffffffffffffffffffffffffffffffffffffff1690602001909291905050506116ea565b604051808215151515815260200191505060405180910390f35b61035b6004803603602081101561034557600080fd5b8101908080359060200190929190505050611707565b604051808373ffffffffffffffffffffffffffffffffffffffff1673ffffffffffffffffffffffffffffffffffffffff1681526020018281526020019250505060405180910390f35b60006103b0600261176d565b905090565b6000809054906101000a900473ffffffffffffffffffffffffffffffffffffffff1673ffffffffffffffffffffffffffffffffffffffff163373ffffffffffffffffffffffffffffffffffffffff1614151561041057600080fd5b600073ffffffffffffffffffffffffffffffffffffffff168173ffffffffffffffffffffffffffffffffffffffff161415151561044c57600080fd5b806000806101000a81548173ffffffffffffffffffffffffffffffffffffffff021916908373ffffffffffffffffffffffffffffffffffffffff1602179055507f4101e71e974f68df5e9730cc223280b41654676bbb052cdcc735c3337e64d2d96000809054906101000a900473ffffffffffffffffffffffffffffffffffffffff16604051808273ffffffffffffffffffffffffffffffffffffffff1673ffffffffffffffffffffffffffffffffffffffff16815260200191505060405180910390a150565b6000809054906101000a900473ffffffffffffffffffffffffffffffffffffffff1673ffffffffffffffffffffffffffffffffffffffff163373ffffffffffffffffffffffffffffffffffffffff1614151561056e57600080fd5b8061058381600261177e90919063ffffffff16565b15156105f7576040517f08c379a000000000000000000000000000000000000000000000000000000000815260040180806020018281038252601e8152602001807f537562736372697074696f6e206973206e6f742072656769737465726564000081525060200191505060405180910390fd5b61060b82600261185290919063ffffffff16565b600160008373ffffffffffffffffffffffffffffffffffffffff1673ffffffffffffffffffffffffffffffffffffffff168152602001908152602001600020600090558173ffffffffffffffffffffffffffffffffffffffff167f181da0f18499f2602872e8efd7b3f8b12375754a12a77869a29c004140e00b3e60405160405180910390a25050565b6000809054906101000a900473ffffffffffffffffffffffffffffffffffffffff1673ffffffffffffffffffffffffffffffffffffffff163373ffffffffffffffffffffffffffffffffffffffff161415156106f057600080fd5b61070482600261177e90919063ffffffff16565b15151561075c576040517f08c379a0000000000000000000000000000000000000000000000000000000008152600401808060200182810382526022815260200180611bc96022913960400191505060405180910390fd5b6000829050818173ffffffffffffffffffffffffffffffffffffffff1663aa8c217c6040518163ffffffff167c010000000000000000000000000000000000000000000000000000000002815260040160206040518083038186803b1580156107c457600080fd5b505afa1580156107d8573d6000803e3d6000fd5b505050506040513d60208110156107ee57600080fd5b810190808051906020019092919050505010151515610858576040517f08c379a000000000000000000000000000000000000000000000000000000000815260040180806020018281038252602f815260200180611c2b602f913960400191505060405180910390fd5b6000821115156108d0576040517f08c379a000000000000000000000000000000000000000000000000000000000815260040180806020018281038252601d8152602001807f526577617264206d7573742062652067726561746572207468616e203000000081525060200191505060405180910390fd5b6108e4836002611a8f90919063ffffffff16565b81600160008573ffffffffffffffffffffffffffffffffffffffff1673ffffffffffffffffffffffffffffffffffffffff168152602001908152602001600020819055508073ffffffffffffffffffffffffffffffffffffffff1663fc0c546a6040518163ffffffff167c010000000000000000000000000000000000000000000000000000000002815260040160206040518083038186803b15801561098a57600080fd5b505afa15801561099e573d6000803e3d6000fd5b505050506040513d60208110156109b457600080fd5b810190808051906020019092919050505073ffffffffffffffffffffffffffffffffffffffff168373ffffffffffffffffffffffffffffffffffffffff167fd7b0cfdac456ef4569b74d82f12bf845a7a0e6697bcbe8b3ed49dbab1b1ba937846040518082815260200191505060405180910390a3505050565b6000610a4483600261177e90919063ffffffff16565b1515610a535760009050610dcc565b600083905060008173ffffffffffffffffffffffffffffffffffffffff1663fc0c546a6040518163ffffffff167c010000000000000000000000000000000000000000000000000000000002815260040160206040518083038186803b158015610abc57600080fd5b505afa158015610ad0573d6000803e3d6000fd5b505050506040513d6020811015610ae657600080fd5b8101908080519060200190929190505050905060008173ffffffffffffffffffffffffffffffffffffffff1663dd62ed3e8473ffffffffffffffffffffffffffffffffffffffff16638da5cb5b6040518163ffffffff167c010000000000000000000000000000000000000000000000000000000002815260040160206040518083038186803b158015610b7957600080fd5b505afa158015610b8d573d6000803e3d6000fd5b505050506040513d6020811015610ba357600080fd5b8101908080519060200190929190505050306040518363ffffffff167c0100000000000000000000000000000000000000000000000000000000028152600401808373ffffffffffffffffffffffffffffffffffffffff1673ffffffffffffffffffffffffffffffffffffffff1681526020018273ffffffffffffffffffffffffffffffffffffffff1673ffffffffffffffffffffffffffffffffffffffff1681526020019250505060206040518083038186803b158015610c6457600080fd5b505afa158015610c78573d6000803e3d6000fd5b505050506040513d6020811015610c8e57600080fd5b810190808051906020019092919050505090506000600160008873ffffffffffffffffffffffffffffffffffffffff1673ffffffffffffffffffffffffffffffffffffffff168152602001908152602001600020549050808210158015610dc557508373ffffffffffffffffffffffffffffffffffffffff16630fd80f7e876040518263ffffffff167c0100000000000000000000000000000000000000000000000000000000028152600401808273ffffffffffffffffffffffffffffffffffffffff1673ffffffffffffffffffffffffffffffffffffffff16815260200191505060206040518083038186803b158015610d8957600080fd5b505afa158015610d9d573d6000803e3d6000fd5b505050506040513d6020811015610db357600080fd5b81019080805190602001909291905050505b9450505050505b92915050565b60008060009054906101000a900473ffffffffffffffffffffffffffffffffffffffff16905090565b81610e1081600261177e90919063ffffffff16565b1515610e84576040517f08c379a000000000000000000000000000000000000000000000000000000000815260040180806020018281038252601e8152602001807f537562736372697074696f6e206973206e6f742072656769737465726564000081525060200191505060405180910390fd5b823360008290506000600160008573ffffffffffffffffffffffffffffffffffffffff1673ffffffffffffffffffffffffffffffffffffffff16815260200190815260200160002054905060008273ffffffffffffffffffffffffffffffffffffffff1663fc0c546a6040518163ffffffff167c010000000000000000000000000000000000000000000000000000000002815260040160206040518083038186803b158015610f3357600080fd5b505afa158015610f47573d6000803e3d6000fd5b505050506040513d6020811015610f5d57600080fd5b810190808051906020019092919050505073ffffffffffffffffffffffffffffffffffffffff166370a08231856040518263ffffffff167c0100000000000000000000000000000000000000000000000000000000028152600401808273ffffffffffffffffffffffffffffffffffffffff1673ffffffffffffffffffffffffffffffffffffffff16815260200191505060206040518083038186803b15801561100657600080fd5b505afa15801561101a573d6000803e3d6000fd5b505050506040513d602081101561103057600080fd5b8101908080519060200190929190505050905061104d8888610a2e565b15156110c1576040517f08c379a00000000000000000000000000000000000000000000000000000000081526004018080602001828103825260168152602001807f43616e6e6f742070726f63657373207061796d656e740000000000000000000081525060200191505060405180910390fd5b600088905060008173ffffffffffffffffffffffffffffffffffffffff1663fc0c546a6040518163ffffffff167c010000000000000000000000000000000000000000000000000000000002815260040160206040518083038186803b15801561112a57600080fd5b505afa15801561113e573d6000803e3d6000fd5b505050506040513d602081101561115457600080fd5b810190808051906020019092919050505090508173ffffffffffffffffffffffffffffffffffffffff16638fe123d78a6040518263ffffffff167c0100000000000000000000000000000000000000000000000000000000028152600401808273ffffffffffffffffffffffffffffffffffffffff1673ffffffffffffffffffffffffffffffffffffffff168152602001915050600060405180830381600087803b15801561120257600080fd5b505af1158015611216573d6000803e3d6000fd5b505050506000600160008c73ffffffffffffffffffffffffffffffffffffffff1673ffffffffffffffffffffffffffffffffffffffff1681526020019081526020016000205490508173ffffffffffffffffffffffffffffffffffffffff166323b872dd8473ffffffffffffffffffffffffffffffffffffffff16638da5cb5b6040518163ffffffff167c010000000000000000000000000000000000000000000000000000000002815260040160206040518083038186803b1580156112dc57600080fd5b505afa1580156112f0573d6000803e3d6000fd5b505050506040513d602081101561130657600080fd5b810190808051906020019092919050505033846040518463ffffffff167c0100000000000000000000000000000000000000000000000000000000028152600401808473ffffffffffffffffffffffffffffffffffffffff1673ffffffffffffffffffffffffffffffffffffffff1681526020018373ffffffffffffffffffffffffffffffffffffffff1673ffffffffffffffffffffffffffffffffffffffff1681526020018281526020019350505050602060405180830381600087803b1580156113d157600080fd5b505af11580156113e5573d6000803e3d6000fd5b505050506040513d60208110156113fb57600080fd5b81019080805190602001909291905050501515611463576040517f08c379a0000000000000000000000000000000000000000000000000000000008152600401808060200182810382526040815260200180611beb6040913960400191505060405180910390fd5b8173ffffffffffffffffffffffffffffffffffffffff168a73ffffffffffffffffffffffffffffffffffffffff168c73ffffffffffffffffffffffffffffffffffffffff167fa48793584600905a3386f996bb7d0e3d8bd0cf62dce1ad2469c2e550207c3e34846040518082815260200191505060405180910390a450505060008373ffffffffffffffffffffffffffffffffffffffff1663fc0c546a6040518163ffffffff167c010000000000000000000000000000000000000000000000000000000002815260040160206040518083038186803b15801561154657600080fd5b505afa15801561155a573d6000803e3d6000fd5b505050506040513d602081101561157057600080fd5b810190808051906020019092919050505073ffffffffffffffffffffffffffffffffffffffff166370a08231866040518263ffffffff167c0100000000000000000000000000000000000000000000000000000000028152600401808273ffffffffffffffffffffffffffffffffffffffff1673ffffffffffffffffffffffffffffffffffffffff16815260200191505060206040518083038186803b15801561161957600080fd5b505afa15801561162d573d6000803e3d6000fd5b505050506040513d602081101561164357600080fd5b810190808051906020019092919050505090508261166a8383611b6090919063ffffffff16565b1415156116df576040517f08c379a000000000000000000000000000000000000000000000000000000000815260040180806020018281038252601a8152602001807f436865636b20746f6b656e2062616c616e6365206661696c656400000000000081525060200191505060405180910390fd5b505050505050505050565b600061170082600261177e90919063ffffffff16565b9050919050565b60008061171e836002611b8290919063ffffffff16565b9150600160008373ffffffffffffffffffffffffffffffffffffffff1673ffffffffffffffffffffffffffffffffffffffff168152602001908152602001600020549050818191509150915091565b600081600101805490509050919050565b60008083600101805490501415611798576000905061184c565b60008360000160008473ffffffffffffffffffffffffffffffffffffffff1673ffffffffffffffffffffffffffffffffffffffff1681526020019081526020016000205490508273ffffffffffffffffffffffffffffffffffffffff16846001018281548110151561180657fe5b9060005260206000200160009054906101000a900473ffffffffffffffffffffffffffffffffffffffff1673ffffffffffffffffffffffffffffffffffffffff16149150505b92915050565b61185c828261177e565b15156118d0576040517f08c379a00000000000000000000000000000000000000000000000000000000081526004018080602001828103825260168152602001807f4164647265737320646f6573206e6f742065786973740000000000000000000081525060200191505060405180910390fd5b60008260000160008373ffffffffffffffffffffffffffffffffffffffff1673ffffffffffffffffffffffffffffffffffffffff168152602001908152602001600020549050600083600101600185600101805490500381548110151561193357fe5b9060005260206000200160009054906101000a900473ffffffffffffffffffffffffffffffffffffffff16905080846001018381548110151561197257fe5b9060005260206000200160006101000a81548173ffffffffffffffffffffffffffffffffffffffff021916908373ffffffffffffffffffffffffffffffffffffffff160217905550818460000160008373ffffffffffffffffffffffffffffffffffffffff1673ffffffffffffffffffffffffffffffffffffffff16815260200190815260200160002081905550836001018054801515611a0f57fe5b6001900381819060005260206000200160006101000a81549073ffffffffffffffffffffffffffffffffffffffff021916905590558360000160008473ffffffffffffffffffffffffffffffffffffffff1673ffffffffffffffffffffffffffffffffffffffff1681526020019081526020016000206000905550505050565b611a99828261177e565b15611aa357611b5c565b816001018190806001815401808255809150509060018203906000526020600020016000909192909190916101000a81548173ffffffffffffffffffffffffffffffffffffffff021916908373ffffffffffffffffffffffffffffffffffffffff1602179055505060018260010180549050038260000160008373ffffffffffffffffffffffffffffffffffffffff1673ffffffffffffffffffffffffffffffffffffffff168152602001908152602001600020819055505b5050565b6000828211151515611b7157600080fd5b600082840390508091505092915050565b60008260010182815481101515611b9557fe5b9060005260206000200160009054906101000a900473ffffffffffffffffffffffffffffffffffffffff1690509291505056fe537562736372697074696f6e20697320616c72656164792072656769737465726564746f6b656e2e7472616e736665722066726f6d20746f6b656e537562736372697074696f6e2e6f776e657220746f206d73672e73656e646572206661696c6564426f756e7479207265776172642063616e6e6f742065786365656420737562736372697074696f6e20616d6f756e74a165627a7a723058204231e8512aa3b66affc771c5383ecc93e3f68afe2ab96ef3484408402ecc08c00029",
  "source": "pragma solidity 0.5.2;\n\nimport 'openzeppelin-solidity/contracts/ownership/Secondary.sol';\nimport 'openzeppelin-solidity/contracts/token/ERC20/ERC20.sol';\nimport 'openzeppelin-solidity/contracts/math/SafeMath.sol';\nimport \"./lib/Set.sol\";\nimport \"./Subscription.sol\";\n\ncontract PaymentBounty is Secondary {\n  using SafeMath for uint;\n  using Set for Set.AddressSet;\n\n  event BountyRegistered(\n    address indexed subscription, address indexed token, uint reward\n  );\n  event BountyUnregistered(address indexed subscription);\n  event PaymentProcessed(\n    address indexed subscription,\n    address indexed subscriber,\n    address indexed token,\n    uint reward\n  );\n\n  mapping(address => uint) rewards;\n  Set.AddressSet internal subscriptions;\n\n  modifier onlyRegistered(address subscription) {\n    require(subscriptions.has(subscription), \"Subscription is not registered\");\n    _;\n  }\n\n  modifier checkTokenBalanceAfterTransfer(\n    address subscription, address tokenOwner\n  ) {\n    Subscription sub = Subscription(subscription);\n    uint reward = rewards[subscription];\n\n    uint balanceBefore = ERC20(sub.token()).balanceOf(tokenOwner);\n    _;\n    uint balanceAfter = ERC20(sub.token()).balanceOf(tokenOwner);\n\n    require(\n      balanceAfter.sub(balanceBefore) == reward,\n      \"Check token balance failed\"\n    );\n  }\n\n  function register(address subscription, uint reward) public onlyPrimary {\n    require(\n      !subscriptions.has(subscription),\n      \"Subscription is already registered\"\n    );\n\n    Subscription sub = Subscription(subscription);\n\n    require(\n      sub.amount() >= reward,\n      \"Bounty reward cannot exceed subscription amount\"\n    );\n\n    require(reward > 0, \"Reward must be greater than 0\");\n\n    subscriptions.add(subscription);\n    rewards[subscription] = reward;\n\n    emit BountyRegistered(subscription, sub.token(), reward);\n  }\n\n  function unregister(address subscription)\n    public\n    onlyPrimary\n    onlyRegistered(subscription)\n  {\n    subscriptions.remove(subscription);\n    delete rewards[subscription];\n\n    emit BountyUnregistered(subscription);\n  }\n\n  function canProcessPayment(address subscription, address subscriber)\n    public\n    view\n    returns (bool)\n  {\n    if (!subscriptions.has(subscription)) {\n      return false;\n    }\n\n    Subscription sub = Subscription(subscription);\n\n    ERC20 token = ERC20(sub.token());\n\n    uint allowance = token.allowance(sub.owner(), address(this));\n    uint reward = rewards[subscription];\n\n    return (\n      allowance >= reward &&\n      sub.canProcessPayment(subscriber)\n    );\n  }\n\n  function processPayment(address subscription, address subscriber)\n    public\n    onlyRegistered(subscription)\n    checkTokenBalanceAfterTransfer(subscription, msg.sender)\n  {\n    require(\n      canProcessPayment(subscription, subscriber),\n      \"Cannot process payment\"\n    );\n\n    Subscription sub = Subscription(subscription);\n    ERC20 token = ERC20(sub.token());\n\n    sub.processPayment(subscriber);\n\n    uint reward = rewards[subscription];\n\n    require(\n      token.transferFrom(sub.owner(), msg.sender, reward),\n      \"token.transfer from tokenSubscription.owner to msg.sender failed\"\n    );\n\n    emit PaymentProcessed(subscription, subscriber, address(token), reward);\n  }\n\n  function bountyExists(address subscription)  public view returns (bool) {\n    return subscriptions.has(subscription);\n  }\n\n  function getBountyCount() public view returns (uint) {\n    return subscriptions.length();\n  }\n\n  function getBounty(uint index)\n    public\n    view\n    returns\n    (address subscription, uint reward)\n  {\n    subscription = subscriptions.get(index);\n    reward = rewards[subscription];\n\n    return (subscription, reward);\n  }\n}\n",
  "sourcePath": "/home/t4sk/bkp/dev/t4sk/d-monetize/contracts/contracts/PaymentBounty.sol",
  "compiler": {
    "name": "solc",
    "version": "0.5.2+commit.1df8f40c.Linux.g++"
  },
  "schemaVersion": "3.0.2",
  "updatedAt": "2019-03-08T08:58:12.874Z",
  "devdoc": {
    "methods": {
      "primary()": {
        "return": "the address of the primary."
      },
      "transferPrimary(address)": {
        "details": "Transfers contract to a new primary.",
        "params": {
          "recipient": "The address of new primary."
        }
      }
    }
  },
  "userdoc": {
    "methods": {}
  }
}