{
  "contractName": "SubscriptionRegistry",
  "abi": [
    {
      "constant": true,
      "inputs": [],
      "name": "paymentBounty",
      "outputs": [
        {
          "name": "",
          "type": "address"
        }
      ],
      "payable": false,
      "stateMutability": "view",
      "type": "function",
      "signature": "0x0cb89822"
    },
    {
      "constant": true,
      "inputs": [
        {
          "name": "",
          "type": "address"
        }
      ],
      "name": "ownerOf",
      "outputs": [
        {
          "name": "",
          "type": "address"
        }
      ],
      "payable": false,
      "stateMutability": "view",
      "type": "function",
      "signature": "0x14afd79e"
    },
    {
      "inputs": [
        {
          "name": "_paymentBounty",
          "type": "address"
        }
      ],
      "payable": false,
      "stateMutability": "nonpayable",
      "type": "constructor",
      "signature": "constructor"
    },
    {
      "anonymous": false,
      "inputs": [
        {
          "indexed": true,
          "name": "payee",
          "type": "address"
        },
        {
          "indexed": true,
          "name": "subscription",
          "type": "address"
        },
        {
          "indexed": true,
          "name": "token",
          "type": "address"
        },
        {
          "indexed": false,
          "name": "amount",
          "type": "uint256"
        },
        {
          "indexed": false,
          "name": "interval",
          "type": "uint256"
        }
      ],
      "name": "SubscriptionCreated",
      "type": "event",
      "signature": "0x6ef54bc6f74c810cee82d714c719cfd320bfc0ae477c8892874b8af94d9d805b"
    },
    {
      "anonymous": false,
      "inputs": [
        {
          "indexed": true,
          "name": "payee",
          "type": "address"
        },
        {
          "indexed": true,
          "name": "subscription",
          "type": "address"
        }
      ],
      "name": "SubscriptionDeleted",
      "type": "event",
      "signature": "0xc7318814302f90789441302362949693c047475a2f559426a37ee74b52ee9a80"
    },
    {
      "anonymous": false,
      "inputs": [
        {
          "indexed": true,
          "name": "subscription",
          "type": "address"
        }
      ],
      "name": "SubscriptionPaused",
      "type": "event",
      "signature": "0xcd71257f2998474633e94cfffa045014068f6218ffdca256b6f4aa9d5f15fb89"
    },
    {
      "anonymous": false,
      "inputs": [
        {
          "indexed": true,
          "name": "subscription",
          "type": "address"
        }
      ],
      "name": "SubscriptionUnpaused",
      "type": "event",
      "signature": "0x94482ee2b195c365dbbc2d689fd5a088d2b219abe44360ba8895525c9471d66f"
    },
    {
      "anonymous": false,
      "inputs": [
        {
          "indexed": true,
          "name": "payee",
          "type": "address"
        },
        {
          "indexed": true,
          "name": "subscription",
          "type": "address"
        },
        {
          "indexed": true,
          "name": "subscriber",
          "type": "address"
        }
      ],
      "name": "Subscribed",
      "type": "event",
      "signature": "0x47f199324fe2d6e5bb1444e863388080dafe3adba3ce9d77c239e4ad54f1b087"
    },
    {
      "anonymous": false,
      "inputs": [
        {
          "indexed": true,
          "name": "payee",
          "type": "address"
        },
        {
          "indexed": true,
          "name": "subscription",
          "type": "address"
        },
        {
          "indexed": true,
          "name": "subscriber",
          "type": "address"
        }
      ],
      "name": "Unsubscribed",
      "type": "event",
      "signature": "0x06e79c9e747b39cbc09a05b9287b59d08f7ecae572a927ca33f064c5458c03a8"
    },
    {
      "anonymous": false,
      "inputs": [
        {
          "indexed": true,
          "name": "subscription",
          "type": "address"
        }
      ],
      "name": "BountyRegistered",
      "type": "event",
      "signature": "0x93fa3117d8e79c7494f1f76c365a29703f5b54c8926ccda50c542fc876190af9"
    },
    {
      "anonymous": false,
      "inputs": [
        {
          "indexed": true,
          "name": "subscription",
          "type": "address"
        }
      ],
      "name": "BountyUnregistered",
      "type": "event",
      "signature": "0x181da0f18499f2602872e8efd7b3f8b12375754a12a77869a29c004140e00b3e"
    },
    {
      "constant": false,
      "inputs": [
        {
          "name": "token",
          "type": "address"
        },
        {
          "name": "amount",
          "type": "uint256"
        },
        {
          "name": "interval",
          "type": "uint256"
        }
      ],
      "name": "createSubscription",
      "outputs": [],
      "payable": false,
      "stateMutability": "nonpayable",
      "type": "function",
      "signature": "0x8a2405a8"
    },
    {
      "constant": false,
      "inputs": [
        {
          "name": "subscription",
          "type": "address"
        }
      ],
      "name": "deleteSubscription",
      "outputs": [],
      "payable": false,
      "stateMutability": "nonpayable",
      "type": "function",
      "signature": "0x9c3b47c5"
    },
    {
      "constant": false,
      "inputs": [
        {
          "name": "subscription",
          "type": "address"
        }
      ],
      "name": "pauseSubscription",
      "outputs": [],
      "payable": false,
      "stateMutability": "nonpayable",
      "type": "function",
      "signature": "0x3f5b2717"
    },
    {
      "constant": false,
      "inputs": [
        {
          "name": "subscription",
          "type": "address"
        }
      ],
      "name": "unpauseSubscription",
      "outputs": [],
      "payable": false,
      "stateMutability": "nonpayable",
      "type": "function",
      "signature": "0x0f1c4e9b"
    },
    {
      "constant": false,
      "inputs": [
        {
          "name": "subscription",
          "type": "address"
        }
      ],
      "name": "subscribe",
      "outputs": [],
      "payable": false,
      "stateMutability": "nonpayable",
      "type": "function",
      "signature": "0x41a7726a"
    },
    {
      "constant": false,
      "inputs": [
        {
          "name": "subscription",
          "type": "address"
        }
      ],
      "name": "unsubscribe",
      "outputs": [],
      "payable": false,
      "stateMutability": "nonpayable",
      "type": "function",
      "signature": "0x7262561c"
    },
    {
      "constant": false,
      "inputs": [
        {
          "name": "subscription",
          "type": "address"
        },
        {
          "name": "reward",
          "type": "uint256"
        }
      ],
      "name": "registerBounty",
      "outputs": [],
      "payable": false,
      "stateMutability": "nonpayable",
      "type": "function",
      "signature": "0x100f7a79"
    },
    {
      "constant": false,
      "inputs": [
        {
          "name": "subscription",
          "type": "address"
        }
      ],
      "name": "unregisterBounty",
      "outputs": [],
      "payable": false,
      "stateMutability": "nonpayable",
      "type": "function",
      "signature": "0xa6198000"
    }
  ],
  "bytecode": "0x608060405234801561001057600080fd5b5060405160208061392f8339810180604052602081101561003057600080fd5b8101908080519060200190929190505050806000806101000a81548173ffffffffffffffffffffffffffffffffffffffff021916908373ffffffffffffffffffffffffffffffffffffffff1602179055505061389e806100916000396000f3fe60806040523480156200001157600080fd5b5060043610620000c9576000357c01000000000000000000000000000000000000000000000000000000009004806341a7726a116200008c57806341a7726a14620002805780637262561c14620002c75780638a2405a8146200030e5780639c3b47c51462000369578063a619800014620003b057620000c9565b80630cb8982214620000ce5780630f1c4e9b146200011a578063100f7a79146200016157806314afd79e14620001b25780633f5b27171462000239575b600080fd5b620000d8620003f7565b604051808273ffffffffffffffffffffffffffffffffffffffff1673ffffffffffffffffffffffffffffffffffffffff16815260200191505060405180910390f35b6200015f600480360360208110156200013257600080fd5b81019080803573ffffffffffffffffffffffffffffffffffffffff1690602001909291905050506200041c565b005b620001b0600480360360408110156200017957600080fd5b81019080803573ffffffffffffffffffffffffffffffffffffffff16906020019092919080359060200190929190505050620005ed565b005b620001f760048036036020811015620001ca57600080fd5b81019080803573ffffffffffffffffffffffffffffffffffffffff16906020019092919050505062000819565b604051808273ffffffffffffffffffffffffffffffffffffffff1673ffffffffffffffffffffffffffffffffffffffff16815260200191505060405180910390f35b6200027e600480360360208110156200025157600080fd5b81019080803573ffffffffffffffffffffffffffffffffffffffff1690602001909291905050506200084c565b005b620002c5600480360360208110156200029857600080fd5b81019080803573ffffffffffffffffffffffffffffffffffffffff16906020019092919050505062000a1d565b005b6200030c60048036036020811015620002df57600080fd5b81019080803573ffffffffffffffffffffffffffffffffffffffff16906020019092919050505062000cf2565b005b62000367600480360360608110156200032657600080fd5b81019080803573ffffffffffffffffffffffffffffffffffffffff169060200190929190803590602001909291908035906020019092919050505062000fc7565b005b620003ae600480360360208110156200038157600080fd5b81019080803573ffffffffffffffffffffffffffffffffffffffff1690602001909291905050506200117c565b005b620003f560048036036020811015620003c857600080fd5b81019080803573ffffffffffffffffffffffffffffffffffffffff1690602001909291905050506200159b565b005b6000809054906101000a900473ffffffffffffffffffffffffffffffffffffffff1681565b33818173ffffffffffffffffffffffffffffffffffffffff16600160008373ffffffffffffffffffffffffffffffffffffffff1673ffffffffffffffffffffffffffffffffffffffff16815260200190815260200160002060009054906101000a900473ffffffffffffffffffffffffffffffffffffffff1673ffffffffffffffffffffffffffffffffffffffff1614151562000521576040517f08c379a000000000000000000000000000000000000000000000000000000000815260040180806020018281038252601d8152602001807f4e6f7420746865207061796565206f6620737562736372697069746f6e00000081525060200191505060405180910390fd5b60008390508073ffffffffffffffffffffffffffffffffffffffff16633f4ba83a6040518163ffffffff167c0100000000000000000000000000000000000000000000000000000000028152600401600060405180830381600087803b1580156200058b57600080fd5b505af1158015620005a0573d6000803e3d6000fd5b505050508373ffffffffffffffffffffffffffffffffffffffff167f94482ee2b195c365dbbc2d689fd5a088d2b219abe44360ba8895525c9471d66f60405160405180910390a250505050565b33828173ffffffffffffffffffffffffffffffffffffffff16600160008373ffffffffffffffffffffffffffffffffffffffff1673ffffffffffffffffffffffffffffffffffffffff16815260200190815260200160002060009054906101000a900473ffffffffffffffffffffffffffffffffffffffff1673ffffffffffffffffffffffffffffffffffffffff16141515620006f2576040517f08c379a000000000000000000000000000000000000000000000000000000000815260040180806020018281038252601d8152602001807f4e6f7420746865207061796565206f6620737562736372697069746f6e00000081525060200191505060405180910390fd5b6000809054906101000a900473ffffffffffffffffffffffffffffffffffffffff1673ffffffffffffffffffffffffffffffffffffffff16636d705ebb85856040518363ffffffff167c0100000000000000000000000000000000000000000000000000000000028152600401808373ffffffffffffffffffffffffffffffffffffffff1673ffffffffffffffffffffffffffffffffffffffff16815260200182815260200192505050600060405180830381600087803b158015620007b757600080fd5b505af1158015620007cc573d6000803e3d6000fd5b505050508373ffffffffffffffffffffffffffffffffffffffff167f93fa3117d8e79c7494f1f76c365a29703f5b54c8926ccda50c542fc876190af960405160405180910390a250505050565b60016020528060005260406000206000915054906101000a900473ffffffffffffffffffffffffffffffffffffffff1681565b33818173ffffffffffffffffffffffffffffffffffffffff16600160008373ffffffffffffffffffffffffffffffffffffffff1673ffffffffffffffffffffffffffffffffffffffff16815260200190815260200160002060009054906101000a900473ffffffffffffffffffffffffffffffffffffffff1673ffffffffffffffffffffffffffffffffffffffff1614151562000951576040517f08c379a000000000000000000000000000000000000000000000000000000000815260040180806020018281038252601d8152602001807f4e6f7420746865207061796565206f6620737562736372697069746f6e00000081525060200191505060405180910390fd5b60008390508073ffffffffffffffffffffffffffffffffffffffff16638456cb596040518163ffffffff167c0100000000000000000000000000000000000000000000000000000000028152600401600060405180830381600087803b158015620009bb57600080fd5b505af1158015620009d0573d6000803e3d6000fd5b505050508373ffffffffffffffffffffffffffffffffffffffff167fcd71257f2998474633e94cfffa045014068f6218ffdca256b6f4aa9d5f15fb8960405160405180910390a250505050565b80600073ffffffffffffffffffffffffffffffffffffffff16600160008373ffffffffffffffffffffffffffffffffffffffff1673ffffffffffffffffffffffffffffffffffffffff16815260200190815260200160002060009054906101000a900473ffffffffffffffffffffffffffffffffffffffff1673ffffffffffffffffffffffffffffffffffffffff161415151562000b23576040517f08c379a000000000000000000000000000000000000000000000000000000000815260040180806020018281038252601e8152602001807f537562736372697074696f6e206973206e6f742072656769737465726564000081525060200191505060405180910390fd5b60008290508073ffffffffffffffffffffffffffffffffffffffff166341a7726a336040518263ffffffff167c0100000000000000000000000000000000000000000000000000000000028152600401808273ffffffffffffffffffffffffffffffffffffffff1673ffffffffffffffffffffffffffffffffffffffff168152602001915050600060405180830381600087803b15801562000bc457600080fd5b505af115801562000bd9573d6000803e3d6000fd5b505050503373ffffffffffffffffffffffffffffffffffffffff168373ffffffffffffffffffffffffffffffffffffffff168273ffffffffffffffffffffffffffffffffffffffff1663ae90b2136040518163ffffffff167c010000000000000000000000000000000000000000000000000000000002815260040160206040518083038186803b15801562000c6e57600080fd5b505afa15801562000c83573d6000803e3d6000fd5b505050506040513d602081101562000c9a57600080fd5b810190808051906020019092919050505073ffffffffffffffffffffffffffffffffffffffff167f47f199324fe2d6e5bb1444e863388080dafe3adba3ce9d77c239e4ad54f1b08760405160405180910390a4505050565b80600073ffffffffffffffffffffffffffffffffffffffff16600160008373ffffffffffffffffffffffffffffffffffffffff1673ffffffffffffffffffffffffffffffffffffffff16815260200190815260200160002060009054906101000a900473ffffffffffffffffffffffffffffffffffffffff1673ffffffffffffffffffffffffffffffffffffffff161415151562000df8576040517f08c379a000000000000000000000000000000000000000000000000000000000815260040180806020018281038252601e8152602001807f537562736372697074696f6e206973206e6f742072656769737465726564000081525060200191505060405180910390fd5b60008290508073ffffffffffffffffffffffffffffffffffffffff16637262561c336040518263ffffffff167c0100000000000000000000000000000000000000000000000000000000028152600401808273ffffffffffffffffffffffffffffffffffffffff1673ffffffffffffffffffffffffffffffffffffffff168152602001915050600060405180830381600087803b15801562000e9957600080fd5b505af115801562000eae573d6000803e3d6000fd5b505050503373ffffffffffffffffffffffffffffffffffffffff168373ffffffffffffffffffffffffffffffffffffffff168273ffffffffffffffffffffffffffffffffffffffff1663ae90b2136040518163ffffffff167c010000000000000000000000000000000000000000000000000000000002815260040160206040518083038186803b15801562000f4357600080fd5b505afa15801562000f58573d6000803e3d6000fd5b505050506040513d602081101562000f6f57600080fd5b810190808051906020019092919050505073ffffffffffffffffffffffffffffffffffffffff167f06e79c9e747b39cbc09a05b9287b59d08f7ecae572a927ca33f064c5458c03a860405160405180910390a4505050565b60003384848462000fd7620017be565b808573ffffffffffffffffffffffffffffffffffffffff1673ffffffffffffffffffffffffffffffffffffffff1681526020018473ffffffffffffffffffffffffffffffffffffffff1673ffffffffffffffffffffffffffffffffffffffff168152602001838152602001828152602001945050505050604051809103906000f0801580156200106b573d6000803e3d6000fd5b509050600081905033600160008373ffffffffffffffffffffffffffffffffffffffff1673ffffffffffffffffffffffffffffffffffffffff16815260200190815260200160002060006101000a81548173ffffffffffffffffffffffffffffffffffffffff021916908373ffffffffffffffffffffffffffffffffffffffff1602179055508473ffffffffffffffffffffffffffffffffffffffff168173ffffffffffffffffffffffffffffffffffffffff163373ffffffffffffffffffffffffffffffffffffffff167f6ef54bc6f74c810cee82d714c719cfd320bfc0ae477c8892874b8af94d9d805b8787604051808381526020018281526020019250505060405180910390a45050505050565b33818173ffffffffffffffffffffffffffffffffffffffff16600160008373ffffffffffffffffffffffffffffffffffffffff1673ffffffffffffffffffffffffffffffffffffffff16815260200190815260200160002060009054906101000a900473ffffffffffffffffffffffffffffffffffffffff1673ffffffffffffffffffffffffffffffffffffffff1614151562001281576040517f08c379a000000000000000000000000000000000000000000000000000000000815260040180806020018281038252601d8152602001807f4e6f7420746865207061796565206f6620737562736372697069746f6e00000081525060200191505060405180910390fd5b6000839050600160008573ffffffffffffffffffffffffffffffffffffffff1673ffffffffffffffffffffffffffffffffffffffff16815260200190815260200160002060006101000a81549073ffffffffffffffffffffffffffffffffffffffff02191690558073ffffffffffffffffffffffffffffffffffffffff166341c0e1b56040518163ffffffff167c0100000000000000000000000000000000000000000000000000000000028152600401600060405180830381600087803b1580156200134d57600080fd5b505af115801562001362573d6000803e3d6000fd5b505050506000809054906101000a900473ffffffffffffffffffffffffffffffffffffffff1673ffffffffffffffffffffffffffffffffffffffff1663c3c5a547856040518263ffffffff167c0100000000000000000000000000000000000000000000000000000000028152600401808273ffffffffffffffffffffffffffffffffffffffff1673ffffffffffffffffffffffffffffffffffffffff16815260200191505060206040518083038186803b1580156200142157600080fd5b505afa15801562001436573d6000803e3d6000fd5b505050506040513d60208110156200144d57600080fd5b8101908080519060200190929190505050156200153b576000809054906101000a900473ffffffffffffffffffffffffffffffffffffffff1673ffffffffffffffffffffffffffffffffffffffff16632ec2c246856040518263ffffffff167c0100000000000000000000000000000000000000000000000000000000028152600401808273ffffffffffffffffffffffffffffffffffffffff1673ffffffffffffffffffffffffffffffffffffffff168152602001915050600060405180830381600087803b1580156200152157600080fd5b505af115801562001536573d6000803e3d6000fd5b505050505b8373ffffffffffffffffffffffffffffffffffffffff163373ffffffffffffffffffffffffffffffffffffffff167fc7318814302f90789441302362949693c047475a2f559426a37ee74b52ee9a8060405160405180910390a350505050565b33818173ffffffffffffffffffffffffffffffffffffffff16600160008373ffffffffffffffffffffffffffffffffffffffff1673ffffffffffffffffffffffffffffffffffffffff16815260200190815260200160002060009054906101000a900473ffffffffffffffffffffffffffffffffffffffff1673ffffffffffffffffffffffffffffffffffffffff16141515620016a0576040517f08c379a000000000000000000000000000000000000000000000000000000000815260040180806020018281038252601d8152602001807f4e6f7420746865207061796565206f6620737562736372697069746f6e00000081525060200191505060405180910390fd5b6000809054906101000a900473ffffffffffffffffffffffffffffffffffffffff1673ffffffffffffffffffffffffffffffffffffffff16632ec2c246846040518263ffffffff167c0100000000000000000000000000000000000000000000000000000000028152600401808273ffffffffffffffffffffffffffffffffffffffff1673ffffffffffffffffffffffffffffffffffffffff168152602001915050600060405180830381600087803b1580156200175d57600080fd5b505af115801562001772573d6000803e3d6000fd5b505050508273ffffffffffffffffffffffffffffffffffffffff167f181da0f18499f2602872e8efd7b3f8b12375754a12a77869a29c004140e00b3e60405160405180910390a2505050565b6040516120a380620017d08339019056fe60806040523480156200001157600080fd5b50604051608080620020a3833981018060405260808110156200003357600080fd5b8101908080519060200190929190805190602001909291908051906020019092919080519060200190929190505050336000806101000a81548173ffffffffffffffffffffffffffffffffffffffff021916908373ffffffffffffffffffffffffffffffffffffffff1602179055506000809054906101000a900473ffffffffffffffffffffffffffffffffffffffff1673ffffffffffffffffffffffffffffffffffffffff16600073ffffffffffffffffffffffffffffffffffffffff167f8be0079c531659141344cd1fd0a4f28419497f9722a3daafe3b4186f6b6457e060405160405180910390a362000138336200041f640100000000026401000000009004565b6000600260006101000a81548160ff021916908315150217905550600073ffffffffffffffffffffffffffffffffffffffff168473ffffffffffffffffffffffffffffffffffffffff1614151515620001f9576040517f08c379a00000000000000000000000000000000000000000000000000000000081526004018080602001828103825260198152602001807f506179656520616464726573732063616e6e6f7420626520300000000000000081525060200191505060405180910390fd5b600073ffffffffffffffffffffffffffffffffffffffff168373ffffffffffffffffffffffffffffffffffffffff16141515156200029f576040517f08c379a00000000000000000000000000000000000000000000000000000000081526004018080602001828103825260198152602001807f546f6b656e20616464726573732063616e6e6f7420626520300000000000000081525060200191505060405180910390fd5b60008211151562000318576040517f08c379a000000000000000000000000000000000000000000000000000000000815260040180806020018281038252601d8152602001807f416d6f756e74206d7573742062652067726561746572207468616e203000000081525060200191505060405180910390fd5b6000811180156200032c575063039ada0081105b151562000385576040517f08c379a00000000000000000000000000000000000000000000000000000000081526004018080602001828103825260278152602001806200207c6027913960400191505060405180910390fd5b83600260016101000a81548173ffffffffffffffffffffffffffffffffffffffff021916908373ffffffffffffffffffffffffffffffffffffffff16021790555082600360006101000a81548173ffffffffffffffffffffffffffffffffffffffff021916908373ffffffffffffffffffffffffffffffffffffffff160217905550816004819055508060058190555050505050620005e1565b620004438160016200048964010000000002620019af179091906401000000009004565b8073ffffffffffffffffffffffffffffffffffffffff167f6719d08c1888103bea251a4ed56406bd0c3e69723c8a1686e017e7bbe159b6f860405160405180910390a250565b600073ffffffffffffffffffffffffffffffffffffffff168173ffffffffffffffffffffffffffffffffffffffff1614151515620004c657600080fd5b620004e182826200054c640100000000026401000000009004565b151515620004ee57600080fd5b60018260000160008373ffffffffffffffffffffffffffffffffffffffff1673ffffffffffffffffffffffffffffffffffffffff16815260200190815260200160002060006101000a81548160ff0219169083151502179055505050565b60008073ffffffffffffffffffffffffffffffffffffffff168273ffffffffffffffffffffffffffffffffffffffff16141515156200058a57600080fd5b8260000160008373ffffffffffffffffffffffffffffffffffffffff1673ffffffffffffffffffffffffffffffffffffffff16815260200190815260200160002060009054906101000a900460ff16905092915050565b611a8b80620005f16000396000f3fe608060405234801561001057600080fd5b5060043610610154576000357c01000000000000000000000000000000000000000000000000000000009004806382dc1ec4116100d5578063947a36fb11610099578063947a36fb14610440578063aa8c217c1461045e578063ae90b2131461047c578063b92ae87c146104c6578063f2fde38b14610522578063fc0c546a1461056657610154565b806382dc1ec4146103425780638456cb59146103865780638da5cb5b146103905780638f32d59b146103da5780638fe123d7146103fc57610154565b80635745ae281161011c5780635745ae28146102695780635c975abb146102c85780636ef8d66d146102ea578063715018a6146102f45780637262561c146102fe57610154565b80630fd80f7e146101595780633f4ba83a146101b557806341a7726a146101bf57806341c0e1b51461020357806346fbf68e1461020d575b600080fd5b61019b6004803603602081101561016f57600080fd5b81019080803573ffffffffffffffffffffffffffffffffffffffff1690602001909291905050506105b0565b604051808215151515815260200191505060405180910390f35b6101bd61086f565b005b610201600480360360208110156101d557600080fd5b81019080803573ffffffffffffffffffffffffffffffffffffffff16906020019092919050505061091e565b005b61020b610b6e565b005b61024f6004803603602081101561022357600080fd5b81019080803573ffffffffffffffffffffffffffffffffffffffff169060200190929190505050610bbc565b604051808215151515815260200191505060405180910390f35b6102ab6004803603602081101561027f57600080fd5b81019080803573ffffffffffffffffffffffffffffffffffffffff169060200190929190505050610bd9565b604051808381526020018281526020019250505060405180910390f35b6102d0610bfd565b604051808215151515815260200191505060405180910390f35b6102f2610c14565b005b6102fc610c1f565b005b6103406004803603602081101561031457600080fd5b81019080803573ffffffffffffffffffffffffffffffffffffffff169060200190929190505050610cf1565b005b6103846004803603602081101561035857600080fd5b81019080803573ffffffffffffffffffffffffffffffffffffffff169060200190929190505050610e35565b005b61038e610e55565b005b610398610f05565b604051808273ffffffffffffffffffffffffffffffffffffffff1673ffffffffffffffffffffffffffffffffffffffff16815260200191505060405180910390f35b6103e2610f2e565b604051808215151515815260200191505060405180910390f35b61043e6004803603602081101561041257600080fd5b81019080803573ffffffffffffffffffffffffffffffffffffffff169060200190929190505050610f85565b005b6104486115f9565b6040518082815260200191505060405180910390f35b6104666115ff565b6040518082815260200191505060405180910390f35b610484611605565b604051808273ffffffffffffffffffffffffffffffffffffffff1673ffffffffffffffffffffffffffffffffffffffff16815260200191505060405180910390f35b610508600480360360208110156104dc57600080fd5b81019080803573ffffffffffffffffffffffffffffffffffffffff16906020019092919050505061162b565b604051808215151515815260200191505060405180910390f35b6105646004803603602081101561053857600080fd5b81019080803573ffffffffffffffffffffffffffffffffffffffff169060200190929190505050611679565b005b61056e611698565b604051808273ffffffffffffffffffffffffffffffffffffffff1673ffffffffffffffffffffffffffffffffffffffff16815260200191505060405180910390f35b60006105bb8261162b565b15156105ca576000905061086a565b6000600360009054906101000a900473ffffffffffffffffffffffffffffffffffffffff1673ffffffffffffffffffffffffffffffffffffffff1663dd62ed3e84306040518363ffffffff167c0100000000000000000000000000000000000000000000000000000000028152600401808373ffffffffffffffffffffffffffffffffffffffff1673ffffffffffffffffffffffffffffffffffffffff1681526020018273ffffffffffffffffffffffffffffffffffffffff1673ffffffffffffffffffffffffffffffffffffffff1681526020019250505060206040518083038186803b1580156106bb57600080fd5b505afa1580156106cf573d6000803e3d6000fd5b505050506040513d60208110156106e557600080fd5b810190808051906020019092919050505090506000600360009054906101000a900473ffffffffffffffffffffffffffffffffffffffff1673ffffffffffffffffffffffffffffffffffffffff166370a08231856040518263ffffffff167c0100000000000000000000000000000000000000000000000000000000028152600401808273ffffffffffffffffffffffffffffffffffffffff1673ffffffffffffffffffffffffffffffffffffffff16815260200191505060206040518083038186803b1580156107b557600080fd5b505afa1580156107c9573d6000803e3d6000fd5b505050506040513d60208110156107df57600080fd5b810190808051906020019092919050505090506107fa610bfd565b1580156108495750600660008573ffffffffffffffffffffffffffffffffffffffff1673ffffffffffffffffffffffffffffffffffffffff168152602001908152602001600020600101544210155b801561085757506004548210155b801561086557506004548110155b925050505b919050565b61087833610bbc565b151561088357600080fd5b600260009054906101000a900460ff16151561089e57600080fd5b6000600260006101000a81548160ff0219169083151502179055507f5db9ee0a495bf2e6ff9c91a7834c1ba4fdd244a5e8aa4e537bd38aeae4b073aa33604051808273ffffffffffffffffffffffffffffffffffffffff1673ffffffffffffffffffffffffffffffffffffffff16815260200191505060405180910390a1565b610926610f2e565b151561093157600080fd5b600260009054906101000a900460ff1615151561094d57600080fd5b600073ffffffffffffffffffffffffffffffffffffffff168173ffffffffffffffffffffffffffffffffffffffff16141515156109f2576040517f08c379a000000000000000000000000000000000000000000000000000000000815260040180806020018281038252600f8152602001807f496e76616c69642061646472657373000000000000000000000000000000000081525060200191505060405180910390fd5b6109fb8161162b565b151515610a70576040517f08c379a000000000000000000000000000000000000000000000000000000000815260040180806020018281038252601d8152602001807f4164647265737320697320616c7265616479207375627363726962656400000081525060200191505060405180910390fd5b604080519081016040528042815260200142815250600660008373ffffffffffffffffffffffffffffffffffffffff1673ffffffffffffffffffffffffffffffffffffffff16815260200190815260200160002060008201518160000155602082015181600101559050508073ffffffffffffffffffffffffffffffffffffffff167f4b90d6788928d63c1821907a6a8b95f40d26562d8fe41b105f7489db9966dfcb600660008473ffffffffffffffffffffffffffffffffffffffff1673ffffffffffffffffffffffffffffffffffffffff168152602001908152602001600020600101546040518082815260200191505060405180910390a250565b610b76610f2e565b1515610b8157600080fd5b600260019054906101000a900473ffffffffffffffffffffffffffffffffffffffff1673ffffffffffffffffffffffffffffffffffffffff16ff5b6000610bd28260016116be90919063ffffffff16565b9050919050565b60066020528060005260406000206000915090508060000154908060010154905082565b6000600260009054906101000a900460ff16905090565b610c1d33611752565b565b610c27610f2e565b1515610c3257600080fd5b600073ffffffffffffffffffffffffffffffffffffffff166000809054906101000a900473ffffffffffffffffffffffffffffffffffffffff1673ffffffffffffffffffffffffffffffffffffffff167f8be0079c531659141344cd1fd0a4f28419497f9722a3daafe3b4186f6b6457e060405160405180910390a360008060006101000a81548173ffffffffffffffffffffffffffffffffffffffff021916908373ffffffffffffffffffffffffffffffffffffffff160217905550565b610cf9610f2e565b1515610d0457600080fd5b600260009054906101000a900460ff16151515610d2057600080fd5b610d298161162b565b1515610d9d576040517f08c379a000000000000000000000000000000000000000000000000000000000815260040180806020018281038252600e8152602001807f4e6f74207375627363726962656400000000000000000000000000000000000081525060200191505060405180910390fd5b600660008273ffffffffffffffffffffffffffffffffffffffff1673ffffffffffffffffffffffffffffffffffffffff168152602001908152602001600020600080820160009055600182016000905550508073ffffffffffffffffffffffffffffffffffffffff167fae563681ccc696fae58fe830f401bc9c043a43ddb9f7c2830b32c3c70d9966e760405160405180910390a250565b610e3e33610bbc565b1515610e4957600080fd5b610e52816117ac565b50565b610e5e33610bbc565b1515610e6957600080fd5b600260009054906101000a900460ff16151515610e8557600080fd5b6001600260006101000a81548160ff0219169083151502179055507f62e78cea01bee320cd4e420270b5ea74000d11b0c9f74754ebdbfc544b05a25833604051808273ffffffffffffffffffffffffffffffffffffffff1673ffffffffffffffffffffffffffffffffffffffff16815260200191505060405180910390a1565b60008060009054906101000a900473ffffffffffffffffffffffffffffffffffffffff16905090565b60008060009054906101000a900473ffffffffffffffffffffffffffffffffffffffff1673ffffffffffffffffffffffffffffffffffffffff163373ffffffffffffffffffffffffffffffffffffffff1614905090565b600260009054906101000a900460ff16151515610fa157600080fd5b600260019054906101000a900473ffffffffffffffffffffffffffffffffffffffff166004546000600360009054906101000a900473ffffffffffffffffffffffffffffffffffffffff1673ffffffffffffffffffffffffffffffffffffffff166370a08231846040518263ffffffff167c0100000000000000000000000000000000000000000000000000000000028152600401808273ffffffffffffffffffffffffffffffffffffffff1673ffffffffffffffffffffffffffffffffffffffff16815260200191505060206040518083038186803b15801561108457600080fd5b505afa158015611098573d6000803e3d6000fd5b505050506040513d60208110156110ae57600080fd5b810190808051906020019092919050505090506110ca846105b0565b151561113e576040517f08c379a00000000000000000000000000000000000000000000000000000000081526004018080602001828103825260168152602001807f43616e6e6f742070726f63657373207061796d656e740000000000000000000081525060200191505060405180910390fd5b6000600660008673ffffffffffffffffffffffffffffffffffffffff1673ffffffffffffffffffffffffffffffffffffffff1681526020019081526020016000206000015490506000814203905060006005546005548381151561119e57fe5b06420301905080600660008973ffffffffffffffffffffffffffffffffffffffff1673ffffffffffffffffffffffffffffffffffffffff16815260200190815260200160002060010181905550600360009054906101000a900473ffffffffffffffffffffffffffffffffffffffff1673ffffffffffffffffffffffffffffffffffffffff166323b872dd88600260019054906101000a900473ffffffffffffffffffffffffffffffffffffffff166004546040518463ffffffff167c0100000000000000000000000000000000000000000000000000000000028152600401808473ffffffffffffffffffffffffffffffffffffffff1673ffffffffffffffffffffffffffffffffffffffff1681526020018373ffffffffffffffffffffffffffffffffffffffff1673ffffffffffffffffffffffffffffffffffffffff1681526020018281526020019350505050602060405180830381600087803b15801561130857600080fd5b505af115801561131c573d6000803e3d6000fd5b505050506040513d602081101561133257600080fd5b810190808051906020019092919050505015156113b7576040517f08c379a00000000000000000000000000000000000000000000000000000000081526004018080602001828103825260198152602001807f4661696c656420746f207472616e7366657220746f6b656e730000000000000081525060200191505060405180910390fd5b8673ffffffffffffffffffffffffffffffffffffffff167fa5957fefb5b0f981554450d4d8dde003083cd202e3d5a2992e09c88ad1f0d791826040518082815260200191505060405180910390a25050506000600360009054906101000a900473ffffffffffffffffffffffffffffffffffffffff1673ffffffffffffffffffffffffffffffffffffffff166370a08231856040518263ffffffff167c0100000000000000000000000000000000000000000000000000000000028152600401808273ffffffffffffffffffffffffffffffffffffffff1673ffffffffffffffffffffffffffffffffffffffff16815260200191505060206040518083038186803b1580156114c557600080fd5b505afa1580156114d9573d6000803e3d6000fd5b505050506040513d60208110156114ef57600080fd5b810190808051906020019092919050505090508181111515611579576040517f08c379a00000000000000000000000000000000000000000000000000000000081526004018080602001828103825260158152602001807f546f6b656e207472616e73666572206661696c6564000000000000000000000081525060200191505060405180910390fd5b828282031415156115f2576040517f08c379a000000000000000000000000000000000000000000000000000000000815260040180806020018281038252601a8152602001807f436865636b20746f6b656e2062616c616e6365206661696c656400000000000081525060200191505060405180910390fd5b5050505050565b60055481565b60045481565b600260019054906101000a900473ffffffffffffffffffffffffffffffffffffffff1681565b600080600660008473ffffffffffffffffffffffffffffffffffffffff1673ffffffffffffffffffffffffffffffffffffffff16815260200190815260200160002060000154119050919050565b611681610f2e565b151561168c57600080fd5b61169581611806565b50565b600360009054906101000a900473ffffffffffffffffffffffffffffffffffffffff1681565b60008073ffffffffffffffffffffffffffffffffffffffff168273ffffffffffffffffffffffffffffffffffffffff16141515156116fb57600080fd5b8260000160008373ffffffffffffffffffffffffffffffffffffffff1673ffffffffffffffffffffffffffffffffffffffff16815260200190815260200160002060009054906101000a900460ff16905092915050565b61176681600161190090919063ffffffff16565b8073ffffffffffffffffffffffffffffffffffffffff167fcd265ebaf09df2871cc7bd4133404a235ba12eff2041bb89d9c714a2621c7c7e60405160405180910390a250565b6117c08160016119af90919063ffffffff16565b8073ffffffffffffffffffffffffffffffffffffffff167f6719d08c1888103bea251a4ed56406bd0c3e69723c8a1686e017e7bbe159b6f860405160405180910390a250565b600073ffffffffffffffffffffffffffffffffffffffff168173ffffffffffffffffffffffffffffffffffffffff161415151561184257600080fd5b8073ffffffffffffffffffffffffffffffffffffffff166000809054906101000a900473ffffffffffffffffffffffffffffffffffffffff1673ffffffffffffffffffffffffffffffffffffffff167f8be0079c531659141344cd1fd0a4f28419497f9722a3daafe3b4186f6b6457e060405160405180910390a3806000806101000a81548173ffffffffffffffffffffffffffffffffffffffff021916908373ffffffffffffffffffffffffffffffffffffffff16021790555050565b600073ffffffffffffffffffffffffffffffffffffffff168173ffffffffffffffffffffffffffffffffffffffff161415151561193c57600080fd5b61194682826116be565b151561195157600080fd5b60008260000160008373ffffffffffffffffffffffffffffffffffffffff1673ffffffffffffffffffffffffffffffffffffffff16815260200190815260200160002060006101000a81548160ff0219169083151502179055505050565b600073ffffffffffffffffffffffffffffffffffffffff168173ffffffffffffffffffffffffffffffffffffffff16141515156119eb57600080fd5b6119f582826116be565b151515611a0157600080fd5b60018260000160008373ffffffffffffffffffffffffffffffffffffffff1673ffffffffffffffffffffffffffffffffffffffff16815260200190815260200160002060006101000a81548160ff021916908315150217905550505056fea165627a7a72305820f33e52c80f74821755b7133036d75698dd6677ad94fd1ef42d91477276fd250800295061796d656e7420696e74657276616c206d7573742062652067726561746572207468616e2030a165627a7a72305820c8a54479d497d89649429bc3665646482658ea193c4dd894fcfc9fbfe8cb93430029",
  "source": "pragma solidity 0.5.2;\n\nimport \"./Subscription.sol\";\nimport \"./PaymentBounty.sol\";\n\ncontract SubscriptionRegistry {\n  event SubscriptionCreated(\n    address indexed payee,\n    address indexed subscription,\n    address indexed token,\n    uint amount,\n    uint interval\n  );\n  event SubscriptionDeleted(\n    address indexed payee,\n    address indexed subscription\n  );\n  event SubscriptionPaused(address indexed subscription);\n  event SubscriptionUnpaused(address indexed subscription);\n  event Subscribed(\n    address indexed payee,\n    address indexed subscription,\n    address indexed subscriber\n  );\n  event Unsubscribed(\n    address indexed payee,\n    address indexed subscription,\n    address indexed subscriber\n  );\n  event BountyRegistered(address indexed subscription);\n  event BountyUnregistered(address indexed subscription);\n\n  PaymentBounty public paymentBounty;\n\n  mapping(address => address) public ownerOf;\n\n  constructor(address _paymentBounty) public {\n    paymentBounty = PaymentBounty(_paymentBounty);\n  }\n\n  modifier onlyPayee(address payee, address subscription) {\n    require(\n      ownerOf[subscription] == payee,\n      \"Not the payee of subscripiton\"\n    );\n    _;\n  }\n\n  modifier onlyRegistered(address subscription) {\n    require(\n      ownerOf[subscription] != address(0),\n      \"Subscription is not registered\"\n    );\n    _;\n  }\n\n  function createSubscription(address token, uint amount, uint interval)\n    public\n  {\n    Subscription sub = new Subscription(msg.sender, token, amount, interval);\n\n    address subscription = address(sub);\n    ownerOf[subscription] = msg.sender;\n\n    emit SubscriptionCreated(msg.sender, subscription, token, amount, interval);\n  }\n\n  function deleteSubscription(address subscription)\n    public\n    onlyPayee(msg.sender, subscription)\n  {\n    Subscription sub = Subscription(subscription);\n\n    delete ownerOf[subscription];\n    // TODO error handle when kill fails\n    sub.kill();\n\n    if (paymentBounty.isRegistered(subscription)) {\n      paymentBounty.unregister(subscription);\n    }\n\n    emit SubscriptionDeleted(msg.sender, subscription);\n  }\n\n  function pauseSubscription(address subscription)\n    public\n    onlyPayee(msg.sender, subscription)\n  {\n    Subscription sub = Subscription(subscription);\n    sub.pause();\n\n    emit SubscriptionPaused(subscription);\n  }\n\n  function unpauseSubscription(address subscription)\n    public\n    onlyPayee(msg.sender, subscription)\n  {\n    Subscription sub = Subscription(subscription);\n    sub.unpause();\n\n    emit SubscriptionUnpaused(subscription);\n  }\n\n  function subscribe(address subscription) public onlyRegistered(subscription) {\n    Subscription sub = Subscription(subscription);\n\n    sub.subscribe(msg.sender);\n\n    emit Subscribed(sub.payee(), subscription, msg.sender);\n  }\n\n  function unsubscribe(address subscription)\n    public\n    onlyRegistered(subscription)\n  {\n    Subscription sub = Subscription(subscription);\n\n    sub.unsubscribe(msg.sender);\n\n    emit Unsubscribed(sub.payee(), subscription, msg.sender);\n  }\n\n  function registerBounty(address subscription, uint reward)\n    public\n    onlyPayee(msg.sender, subscription)\n  {\n    paymentBounty.register(subscription, reward);\n\n    emit BountyRegistered(subscription);\n  }\n\n  function unregisterBounty(address subscription)\n    public\n    onlyPayee(msg.sender, subscription)\n  {\n    paymentBounty.unregister(subscription);\n\n    emit BountyUnregistered(subscription);\n  }\n}\n",
  "sourcePath": "/home/t4sk/bkp/dev/t4sk/d-monetize/contracts/contracts/SubcriptionRegistry.sol",
  "compiler": {
    "name": "solc",
    "version": "0.5.2+commit.1df8f40c.Linux.g++"
  },
  "schemaVersion": "3.0.2",
  "updatedAt": "2019-03-16T06:56:42.211Z",
  "devdoc": {
    "methods": {}
  },
  "userdoc": {
    "methods": {}
  }
}