{
  "contractName": "SubscriptionRegistry",
  "abi": [
    {
      "constant": true,
      "inputs": [],
      "name": "paymentBounty",
      "outputs": [
        {
          "name": "",
          "type": "address"
        }
      ],
      "payable": false,
      "stateMutability": "view",
      "type": "function"
    },
    {
      "constant": true,
      "inputs": [
        {
          "name": "",
          "type": "address"
        }
      ],
      "name": "deletedSubs",
      "outputs": [
        {
          "name": "",
          "type": "bool"
        }
      ],
      "payable": false,
      "stateMutability": "view",
      "type": "function"
    },
    {
      "anonymous": false,
      "inputs": [
        {
          "indexed": true,
          "name": "owner",
          "type": "address"
        },
        {
          "indexed": true,
          "name": "subscription",
          "type": "address"
        },
        {
          "indexed": true,
          "name": "token",
          "type": "address"
        },
        {
          "indexed": false,
          "name": "amount",
          "type": "uint256"
        },
        {
          "indexed": false,
          "name": "interval",
          "type": "uint256"
        }
      ],
      "name": "SubscriptionCreated",
      "type": "event"
    },
    {
      "anonymous": false,
      "inputs": [
        {
          "indexed": true,
          "name": "owner",
          "type": "address"
        },
        {
          "indexed": true,
          "name": "subscription",
          "type": "address"
        }
      ],
      "name": "SubscriptionDeleted",
      "type": "event"
    },
    {
      "anonymous": false,
      "inputs": [
        {
          "indexed": true,
          "name": "subscription",
          "type": "address"
        },
        {
          "indexed": true,
          "name": "subscriber",
          "type": "address"
        }
      ],
      "name": "Subscribed",
      "type": "event"
    },
    {
      "anonymous": false,
      "inputs": [
        {
          "indexed": true,
          "name": "subscription",
          "type": "address"
        },
        {
          "indexed": true,
          "name": "subscriber",
          "type": "address"
        }
      ],
      "name": "Unsubscribed",
      "type": "event"
    },
    {
      "constant": false,
      "inputs": [
        {
          "name": "token",
          "type": "address"
        },
        {
          "name": "amount",
          "type": "uint256"
        },
        {
          "name": "interval",
          "type": "uint256"
        }
      ],
      "name": "createSubscription",
      "outputs": [],
      "payable": false,
      "stateMutability": "nonpayable",
      "type": "function"
    },
    {
      "constant": false,
      "inputs": [
        {
          "name": "subscription",
          "type": "address"
        }
      ],
      "name": "deleteSubscription",
      "outputs": [],
      "payable": false,
      "stateMutability": "nonpayable",
      "type": "function"
    },
    {
      "constant": false,
      "inputs": [
        {
          "name": "subscription",
          "type": "address"
        }
      ],
      "name": "pauseSubscription",
      "outputs": [],
      "payable": false,
      "stateMutability": "nonpayable",
      "type": "function"
    },
    {
      "constant": false,
      "inputs": [
        {
          "name": "subscription",
          "type": "address"
        }
      ],
      "name": "unpauseSubscription",
      "outputs": [],
      "payable": false,
      "stateMutability": "nonpayable",
      "type": "function"
    },
    {
      "constant": false,
      "inputs": [
        {
          "name": "subscription",
          "type": "address"
        }
      ],
      "name": "subscribe",
      "outputs": [],
      "payable": false,
      "stateMutability": "nonpayable",
      "type": "function"
    },
    {
      "constant": false,
      "inputs": [
        {
          "name": "subscription",
          "type": "address"
        }
      ],
      "name": "unsubscribe",
      "outputs": [],
      "payable": false,
      "stateMutability": "nonpayable",
      "type": "function"
    },
    {
      "constant": false,
      "inputs": [
        {
          "name": "subscription",
          "type": "address"
        },
        {
          "name": "reward",
          "type": "uint256"
        }
      ],
      "name": "registerBounty",
      "outputs": [],
      "payable": false,
      "stateMutability": "nonpayable",
      "type": "function"
    },
    {
      "constant": false,
      "inputs": [
        {
          "name": "subscription",
          "type": "address"
        }
      ],
      "name": "unregisterBounty",
      "outputs": [],
      "payable": false,
      "stateMutability": "nonpayable",
      "type": "function"
    },
    {
      "constant": true,
      "inputs": [
        {
          "name": "owner",
          "type": "address"
        }
      ],
      "name": "getSubscriptionByOwnerCount",
      "outputs": [
        {
          "name": "",
          "type": "uint256"
        }
      ],
      "payable": false,
      "stateMutability": "view",
      "type": "function"
    },
    {
      "constant": true,
      "inputs": [
        {
          "name": "owner",
          "type": "address"
        },
        {
          "name": "index",
          "type": "uint256"
        }
      ],
      "name": "getSubscriptionByOwner",
      "outputs": [
        {
          "name": "",
          "type": "address"
        }
      ],
      "payable": false,
      "stateMutability": "view",
      "type": "function"
    },
    {
      "constant": true,
      "inputs": [
        {
          "name": "subscriber",
          "type": "address"
        }
      ],
      "name": "getSubscriptionBySubscriberCount",
      "outputs": [
        {
          "name": "",
          "type": "uint256"
        }
      ],
      "payable": false,
      "stateMutability": "view",
      "type": "function"
    },
    {
      "constant": true,
      "inputs": [
        {
          "name": "subscriber",
          "type": "address"
        },
        {
          "name": "index",
          "type": "uint256"
        }
      ],
      "name": "getSubscriptionBySubscriber",
      "outputs": [
        {
          "name": "",
          "type": "address"
        }
      ],
      "payable": false,
      "stateMutability": "view",
      "type": "function"
    }
  ],
  "bytecode": "0x60806040526200000e6200007f565b604051809103906000f0801580156200002b573d6000803e3d6000fd5b506000806101000a81548173ffffffffffffffffffffffffffffffffffffffff021916908373ffffffffffffffffffffffffffffffffffffffff1602179055503480156200007857600080fd5b5062000090565b604051611d5c8062004b4f83390190565b614aaf80620000a06000396000f3fe60806040523480156200001157600080fd5b50600436106200011d576000357c0100000000000000000000000000000000000000000000000000000000900480638a2405a811620000b6578063a7513179116200008c578063a7513179146200041f578063c4013968146200047e578063d9873534146200050f578063f4f5be35146200056a576200011d565b80638a2405a814620003365780639c3b47c51462000391578063a619800014620003d8576200011d565b80633e43e67111620000f85780633e43e67114620002065780633f5b2717146200026157806341a7726a14620002a85780637262561c14620002ef576200011d565b80630cb8982214620001225780630f1c4e9b146200016e578063100f7a7914620001b5575b600080fd5b6200012c620005fb565b604051808273ffffffffffffffffffffffffffffffffffffffff1673ffffffffffffffffffffffffffffffffffffffff16815260200191505060405180910390f35b620001b3600480360360208110156200018657600080fd5b81019080803573ffffffffffffffffffffffffffffffffffffffff16906020019092919050505062000620565b005b6200020460048036036040811015620001cd57600080fd5b81019080803573ffffffffffffffffffffffffffffffffffffffff16906020019092919080359060200190929190505050620008b8565b005b6200024b600480360360208110156200021e57600080fd5b81019080803573ffffffffffffffffffffffffffffffffffffffff16906020019092919050505062000bab565b6040518082815260200191505060405180910390f35b620002a6600480360360208110156200027957600080fd5b81019080803573ffffffffffffffffffffffffffffffffffffffff16906020019092919050505062000bfd565b005b620002ed60048036036020811015620002c057600080fd5b81019080803573ffffffffffffffffffffffffffffffffffffffff16906020019092919050505062000e95565b005b62000334600480360360208110156200030757600080fd5b81019080803573ffffffffffffffffffffffffffffffffffffffff1690602001909291905050506200120e565b005b6200038f600480360360608110156200034e57600080fd5b81019080803573ffffffffffffffffffffffffffffffffffffffff169060200190929190803590602001909291908035906020019092919050505062001612565b005b620003d660048036036020811015620003a957600080fd5b81019080803573ffffffffffffffffffffffffffffffffffffffff1690602001909291905050506200179c565b005b6200041d60048036036020811015620003f057600080fd5b81019080803573ffffffffffffffffffffffffffffffffffffffff16906020019092919050505062001d0e565b005b62000464600480360360208110156200043757600080fd5b81019080803573ffffffffffffffffffffffffffffffffffffffff16906020019092919050505062001ff8565b604051808215151515815260200191505060405180910390f35b620004cd600480360360408110156200049657600080fd5b81019080803573ffffffffffffffffffffffffffffffffffffffff1690602001909291908035906020019092919050505062002018565b604051808273ffffffffffffffffffffffffffffffffffffffff1673ffffffffffffffffffffffffffffffffffffffff16815260200191505060405180910390f35b62000554600480360360208110156200052757600080fd5b81019080803573ffffffffffffffffffffffffffffffffffffffff16906020019092919050505062002075565b6040518082815260200191505060405180910390f35b620005b9600480360360408110156200058257600080fd5b81019080803573ffffffffffffffffffffffffffffffffffffffff16906020019092919080359060200190929190505050620020c7565b604051808273ffffffffffffffffffffffffffffffffffffffff1673ffffffffffffffffffffffffffffffffffffffff16815260200191505060405180910390f35b6000809054906101000a900473ffffffffffffffffffffffffffffffffffffffff1681565b803073ffffffffffffffffffffffffffffffffffffffff168173ffffffffffffffffffffffffffffffffffffffff16638da5cb5b6040518163ffffffff167c010000000000000000000000000000000000000000000000000000000002815260040160206040518083038186803b1580156200069b57600080fd5b505afa158015620006b0573d6000803e3d6000fd5b505050506040513d6020811015620006c757600080fd5b810190808051906020019092919050505073ffffffffffffffffffffffffffffffffffffffff1614151562000764576040517f08c379a000000000000000000000000000000000000000000000000000000000815260040180806020018281038252601e8152602001807f537562736372697074696f6e206973206e6f742072656769737465726564000081525060200191505060405180910390fd5b3382620007b981600160008573ffffffffffffffffffffffffffffffffffffffff1673ffffffffffffffffffffffffffffffffffffffff1681526020019081526020016000206200212490919063ffffffff16565b15156200082e576040517f08c379a000000000000000000000000000000000000000000000000000000000815260040180806020018281038252601d8152602001807f4e6f7420746865206f776e6572206f6620737562736372697069746f6e00000081525060200191505060405180910390fd5b60008490508073ffffffffffffffffffffffffffffffffffffffff16633f4ba83a6040518163ffffffff167c0100000000000000000000000000000000000000000000000000000000028152600401600060405180830381600087803b1580156200089857600080fd5b505af1158015620008ad573d6000803e3d6000fd5b505050505050505050565b813073ffffffffffffffffffffffffffffffffffffffff168173ffffffffffffffffffffffffffffffffffffffff16638da5cb5b6040518163ffffffff167c010000000000000000000000000000000000000000000000000000000002815260040160206040518083038186803b1580156200093357600080fd5b505afa15801562000948573d6000803e3d6000fd5b505050506040513d60208110156200095f57600080fd5b810190808051906020019092919050505073ffffffffffffffffffffffffffffffffffffffff16141515620009fc576040517f08c379a000000000000000000000000000000000000000000000000000000000815260040180806020018281038252601e8152602001807f537562736372697074696f6e206973206e6f742072656769737465726564000081525060200191505060405180910390fd5b338362000a5181600160008573ffffffffffffffffffffffffffffffffffffffff1673ffffffffffffffffffffffffffffffffffffffff1681526020019081526020016000206200212490919063ffffffff16565b151562000ac6576040517f08c379a000000000000000000000000000000000000000000000000000000000815260040180806020018281038252601d8152602001807f4e6f7420746865206f776e6572206f6620737562736372697069746f6e00000081525060200191505060405180910390fd5b6000809054906101000a900473ffffffffffffffffffffffffffffffffffffffff1673ffffffffffffffffffffffffffffffffffffffff16636d705ebb86866040518363ffffffff167c0100000000000000000000000000000000000000000000000000000000028152600401808373ffffffffffffffffffffffffffffffffffffffff1673ffffffffffffffffffffffffffffffffffffffff16815260200182815260200192505050600060405180830381600087803b15801562000b8b57600080fd5b505af115801562000ba0573d6000803e3d6000fd5b505050505050505050565b600062000bf6600160008473ffffffffffffffffffffffffffffffffffffffff1673ffffffffffffffffffffffffffffffffffffffff168152602001908152602001600020620021fb565b9050919050565b803073ffffffffffffffffffffffffffffffffffffffff168173ffffffffffffffffffffffffffffffffffffffff16638da5cb5b6040518163ffffffff167c010000000000000000000000000000000000000000000000000000000002815260040160206040518083038186803b15801562000c7857600080fd5b505afa15801562000c8d573d6000803e3d6000fd5b505050506040513d602081101562000ca457600080fd5b810190808051906020019092919050505073ffffffffffffffffffffffffffffffffffffffff1614151562000d41576040517f08c379a000000000000000000000000000000000000000000000000000000000815260040180806020018281038252601e8152602001807f537562736372697074696f6e206973206e6f742072656769737465726564000081525060200191505060405180910390fd5b338262000d9681600160008573ffffffffffffffffffffffffffffffffffffffff1673ffffffffffffffffffffffffffffffffffffffff1681526020019081526020016000206200212490919063ffffffff16565b151562000e0b576040517f08c379a000000000000000000000000000000000000000000000000000000000815260040180806020018281038252601d8152602001807f4e6f7420746865206f776e6572206f6620737562736372697069746f6e00000081525060200191505060405180910390fd5b60008490508073ffffffffffffffffffffffffffffffffffffffff16638456cb596040518163ffffffff167c0100000000000000000000000000000000000000000000000000000000028152600401600060405180830381600087803b15801562000e7557600080fd5b505af115801562000e8a573d6000803e3d6000fd5b505050505050505050565b803073ffffffffffffffffffffffffffffffffffffffff168173ffffffffffffffffffffffffffffffffffffffff16638da5cb5b6040518163ffffffff167c010000000000000000000000000000000000000000000000000000000002815260040160206040518083038186803b15801562000f1057600080fd5b505afa15801562000f25573d6000803e3d6000fd5b505050506040513d602081101562000f3c57600080fd5b810190808051906020019092919050505073ffffffffffffffffffffffffffffffffffffffff1614151562000fd9576040517f08c379a000000000000000000000000000000000000000000000000000000000815260040180806020018281038252601e8152602001807f537562736372697074696f6e206973206e6f742072656769737465726564000081525060200191505060405180910390fd5b6200102c82600260003373ffffffffffffffffffffffffffffffffffffffff1673ffffffffffffffffffffffffffffffffffffffff1681526020019081526020016000206200212490919063ffffffff16565b151515620010a2576040517f08c379a00000000000000000000000000000000000000000000000000000000081526004018080602001828103825260128152602001807f416c72656164792073756273637269626564000000000000000000000000000081525060200191505060405180910390fd5b6000829050620010fa83600260003373ffffffffffffffffffffffffffffffffffffffff1673ffffffffffffffffffffffffffffffffffffffff1681526020019081526020016000206200220c90919063ffffffff16565b8073ffffffffffffffffffffffffffffffffffffffff166341a7726a336040518263ffffffff167c0100000000000000000000000000000000000000000000000000000000028152600401808273ffffffffffffffffffffffffffffffffffffffff1673ffffffffffffffffffffffffffffffffffffffff168152602001915050600060405180830381600087803b1580156200119657600080fd5b505af1158015620011ab573d6000803e3d6000fd5b505050503373ffffffffffffffffffffffffffffffffffffffff168373ffffffffffffffffffffffffffffffffffffffff167f5af76814d21ef4a656d75bdbdb9cc3efa85af5efca9dbca0397824217d9344b760405160405180910390a3505050565b60008190503073ffffffffffffffffffffffffffffffffffffffff168173ffffffffffffffffffffffffffffffffffffffff16638da5cb5b6040518163ffffffff167c010000000000000000000000000000000000000000000000000000000002815260040160206040518083038186803b1580156200128d57600080fd5b505afa158015620012a2573d6000803e3d6000fd5b505050506040513d6020811015620012b957600080fd5b810190808051906020019092919050505073ffffffffffffffffffffffffffffffffffffffff161480620013365750600360008373ffffffffffffffffffffffffffffffffffffffff1673ffffffffffffffffffffffffffffffffffffffff16815260200190815260200160002060009054906101000a900460ff165b15156200138f576040517f08c379a000000000000000000000000000000000000000000000000000000000815260040180806020018281038252602781526020018062004a5d6027913960400191505060405180910390fd5b620013e282600260003373ffffffffffffffffffffffffffffffffffffffff1673ffffffffffffffffffffffffffffffffffffffff1681526020019081526020016000206200212490919063ffffffff16565b151562001457576040517f08c379a000000000000000000000000000000000000000000000000000000000815260040180806020018281038252600e8152602001807f4e6f74207375627363726962656400000000000000000000000000000000000081525060200191505060405180910390fd5b620014aa82600260003373ffffffffffffffffffffffffffffffffffffffff1673ffffffffffffffffffffffffffffffffffffffff168152602001908152602001600020620022e190919063ffffffff16565b600360008373ffffffffffffffffffffffffffffffffffffffff1673ffffffffffffffffffffffffffffffffffffffff16815260200190815260200160002060009054906101000a900460ff161515620015b4578073ffffffffffffffffffffffffffffffffffffffff16637262561c336040518263ffffffff167c0100000000000000000000000000000000000000000000000000000000028152600401808273ffffffffffffffffffffffffffffffffffffffff1673ffffffffffffffffffffffffffffffffffffffff168152602001915050600060405180830381600087803b1580156200159a57600080fd5b505af1158015620015af573d6000803e3d6000fd5b505050505b3373ffffffffffffffffffffffffffffffffffffffff168273ffffffffffffffffffffffffffffffffffffffff167f7773c30acd0762ed6b4b92a9aa2c6b3c074e29ad93b334cbed8ba807c596f13a60405160405180910390a35050565b600033848484620016226200256b565b808573ffffffffffffffffffffffffffffffffffffffff1673ffffffffffffffffffffffffffffffffffffffff1681526020018473ffffffffffffffffffffffffffffffffffffffff1673ffffffffffffffffffffffffffffffffffffffff168152602001838152602001828152602001945050505050604051809103906000f080158015620016b6573d6000803e3d6000fd5b50905060008190506200171181600160003373ffffffffffffffffffffffffffffffffffffffff1673ffffffffffffffffffffffffffffffffffffffff1681526020019081526020016000206200220c90919063ffffffff16565b8473ffffffffffffffffffffffffffffffffffffffff168173ffffffffffffffffffffffffffffffffffffffff163373ffffffffffffffffffffffffffffffffffffffff167f6ef54bc6f74c810cee82d714c719cfd320bfc0ae477c8892874b8af94d9d805b8787604051808381526020018281526020019250505060405180910390a45050505050565b803073ffffffffffffffffffffffffffffffffffffffff168173ffffffffffffffffffffffffffffffffffffffff16638da5cb5b6040518163ffffffff167c010000000000000000000000000000000000000000000000000000000002815260040160206040518083038186803b1580156200181757600080fd5b505afa1580156200182c573d6000803e3d6000fd5b505050506040513d60208110156200184357600080fd5b810190808051906020019092919050505073ffffffffffffffffffffffffffffffffffffffff16141515620018e0576040517f08c379a000000000000000000000000000000000000000000000000000000000815260040180806020018281038252601e8152602001807f537562736372697074696f6e206973206e6f742072656769737465726564000081525060200191505060405180910390fd5b33826200193581600160008573ffffffffffffffffffffffffffffffffffffffff1673ffffffffffffffffffffffffffffffffffffffff1681526020019081526020016000206200212490919063ffffffff16565b1515620019aa576040517f08c379a000000000000000000000000000000000000000000000000000000000815260040180806020018281038252601d8152602001807f4e6f7420746865206f776e6572206f6620737562736372697069746f6e00000081525060200191505060405180910390fd5b600084905062001a0285600160003373ffffffffffffffffffffffffffffffffffffffff1673ffffffffffffffffffffffffffffffffffffffff168152602001908152602001600020620022e190919063ffffffff16565b6001600360008773ffffffffffffffffffffffffffffffffffffffff1673ffffffffffffffffffffffffffffffffffffffff16815260200190815260200160002060006101000a81548160ff0219169083151502179055508073ffffffffffffffffffffffffffffffffffffffff166341c0e1b56040518163ffffffff167c0100000000000000000000000000000000000000000000000000000000028152600401600060405180830381600087803b15801562001abf57600080fd5b505af115801562001ad4573d6000803e3d6000fd5b505050506000809054906101000a900473ffffffffffffffffffffffffffffffffffffffff1673ffffffffffffffffffffffffffffffffffffffff1663e95b0dc9866040518263ffffffff167c0100000000000000000000000000000000000000000000000000000000028152600401808273ffffffffffffffffffffffffffffffffffffffff1673ffffffffffffffffffffffffffffffffffffffff16815260200191505060206040518083038186803b15801562001b9357600080fd5b505afa15801562001ba8573d6000803e3d6000fd5b505050506040513d602081101562001bbf57600080fd5b81019080805190602001909291905050501562001cad576000809054906101000a900473ffffffffffffffffffffffffffffffffffffffff1673ffffffffffffffffffffffffffffffffffffffff16632ec2c246866040518263ffffffff167c0100000000000000000000000000000000000000000000000000000000028152600401808273ffffffffffffffffffffffffffffffffffffffff1673ffffffffffffffffffffffffffffffffffffffff168152602001915050600060405180830381600087803b15801562001c9357600080fd5b505af115801562001ca8573d6000803e3d6000fd5b505050505b8473ffffffffffffffffffffffffffffffffffffffff163373ffffffffffffffffffffffffffffffffffffffff167fc7318814302f90789441302362949693c047475a2f559426a37ee74b52ee9a8060405160405180910390a35050505050565b803073ffffffffffffffffffffffffffffffffffffffff168173ffffffffffffffffffffffffffffffffffffffff16638da5cb5b6040518163ffffffff167c010000000000000000000000000000000000000000000000000000000002815260040160206040518083038186803b15801562001d8957600080fd5b505afa15801562001d9e573d6000803e3d6000fd5b505050506040513d602081101562001db557600080fd5b810190808051906020019092919050505073ffffffffffffffffffffffffffffffffffffffff1614151562001e52576040517f08c379a000000000000000000000000000000000000000000000000000000000815260040180806020018281038252601e8152602001807f537562736372697074696f6e206973206e6f742072656769737465726564000081525060200191505060405180910390fd5b338262001ea781600160008573ffffffffffffffffffffffffffffffffffffffff1673ffffffffffffffffffffffffffffffffffffffff1681526020019081526020016000206200212490919063ffffffff16565b151562001f1c576040517f08c379a000000000000000000000000000000000000000000000000000000000815260040180806020018281038252601d8152602001807f4e6f7420746865206f776e6572206f6620737562736372697069746f6e00000081525060200191505060405180910390fd5b6000809054906101000a900473ffffffffffffffffffffffffffffffffffffffff1673ffffffffffffffffffffffffffffffffffffffff16632ec2c246856040518263ffffffff167c0100000000000000000000000000000000000000000000000000000000028152600401808273ffffffffffffffffffffffffffffffffffffffff1673ffffffffffffffffffffffffffffffffffffffff168152602001915050600060405180830381600087803b15801562001fd957600080fd5b505af115801562001fee573d6000803e3d6000fd5b5050505050505050565b60036020528060005260406000206000915054906101000a900460ff1681565b60006200206d82600260008673ffffffffffffffffffffffffffffffffffffffff1673ffffffffffffffffffffffffffffffffffffffff1681526020019081526020016000206200252490919063ffffffff16565b905092915050565b6000620020c0600260008473ffffffffffffffffffffffffffffffffffffffff1673ffffffffffffffffffffffffffffffffffffffff168152602001908152602001600020620021fb565b9050919050565b60006200211c82600160008673ffffffffffffffffffffffffffffffffffffffff1673ffffffffffffffffffffffffffffffffffffffff1681526020019081526020016000206200252490919063ffffffff16565b905092915050565b60008083600101805490501415620021405760009050620021f5565b60008360000160008473ffffffffffffffffffffffffffffffffffffffff1673ffffffffffffffffffffffffffffffffffffffff1681526020019081526020016000205490508273ffffffffffffffffffffffffffffffffffffffff168460010182815481101515620021af57fe5b9060005260206000200160009054906101000a900473ffffffffffffffffffffffffffffffffffffffff1673ffffffffffffffffffffffffffffffffffffffff16149150505b92915050565b600081600101805490509050919050565b62002218828262002124565b156200222457620022dd565b816001018190806001815401808255809150509060018203906000526020600020016000909192909190916101000a81548173ffffffffffffffffffffffffffffffffffffffff021916908373ffffffffffffffffffffffffffffffffffffffff1602179055505060018260010180549050038260000160008373ffffffffffffffffffffffffffffffffffffffff1673ffffffffffffffffffffffffffffffffffffffff168152602001908152602001600020819055505b5050565b620022ed828262002124565b151562002362576040517f08c379a00000000000000000000000000000000000000000000000000000000081526004018080602001828103825260168152602001807f4164647265737320646f6573206e6f742065786973740000000000000000000081525060200191505060405180910390fd5b60008260000160008373ffffffffffffffffffffffffffffffffffffffff1673ffffffffffffffffffffffffffffffffffffffff1681526020019081526020016000205490506000836001016001856001018054905003815481101515620023c657fe5b9060005260206000200160009054906101000a900473ffffffffffffffffffffffffffffffffffffffff1690508084600101838154811015156200240657fe5b9060005260206000200160006101000a81548173ffffffffffffffffffffffffffffffffffffffff021916908373ffffffffffffffffffffffffffffffffffffffff160217905550818460000160008373ffffffffffffffffffffffffffffffffffffffff1673ffffffffffffffffffffffffffffffffffffffff16815260200190815260200160002081905550836001018054801515620024a457fe5b6001900381819060005260206000200160006101000a81549073ffffffffffffffffffffffffffffffffffffffff021916905590558360000160008473ffffffffffffffffffffffffffffffffffffffff1673ffffffffffffffffffffffffffffffffffffffff1681526020019081526020016000206000905550505050565b600082600101828154811015156200253857fe5b9060005260206000200160009054906101000a900473ffffffffffffffffffffffffffffffffffffffff16905092915050565b6040516124e0806200257d8339019056fe60806040523480156200001157600080fd5b50604051608080620024e0833981018060405260808110156200003357600080fd5b8101908080519060200190929190805190602001909291908051906020019092919080519060200190929190505050336000806101000a81548173ffffffffffffffffffffffffffffffffffffffff021916908373ffffffffffffffffffffffffffffffffffffffff1602179055507f4101e71e974f68df5e9730cc223280b41654676bbb052cdcc735c3337e64d2d96000809054906101000a900473ffffffffffffffffffffffffffffffffffffffff16604051808273ffffffffffffffffffffffffffffffffffffffff1673ffffffffffffffffffffffffffffffffffffffff16815260200191505060405180910390a1620001403362000417640100000000026401000000009004565b6000600260006101000a81548160ff021916908315150217905550600073ffffffffffffffffffffffffffffffffffffffff168473ffffffffffffffffffffffffffffffffffffffff161415151562000201576040517f08c379a00000000000000000000000000000000000000000000000000000000081526004018080602001828103825260198152602001807f4f776e657220616464726573732063616e6e6f7420626520300000000000000081525060200191505060405180910390fd5b600073ffffffffffffffffffffffffffffffffffffffff168373ffffffffffffffffffffffffffffffffffffffff1614151515620002a7576040517f08c379a00000000000000000000000000000000000000000000000000000000081526004018080602001828103825260198152602001807f546f6b656e20616464726573732063616e6e6f7420626520300000000000000081525060200191505060405180910390fd5b60008211151562000320576040517f08c379a000000000000000000000000000000000000000000000000000000000815260040180806020018281038252601d8152602001807f416d6f756e74206d7573742062652067726561746572207468616e203000000081525060200191505060405180910390fd5b6000811115156200037d576040517f08c379a0000000000000000000000000000000000000000000000000000000008152600401808060200182810382526027815260200180620024b96027913960400191505060405180910390fd5b83600260016101000a81548173ffffffffffffffffffffffffffffffffffffffff021916908373ffffffffffffffffffffffffffffffffffffffff16021790555082600360006101000a81548173ffffffffffffffffffffffffffffffffffffffff021916908373ffffffffffffffffffffffffffffffffffffffff160217905550816004819055508060058190555050505050620005d9565b6200043b816001620004816401000000000262001df4179091906401000000009004565b8073ffffffffffffffffffffffffffffffffffffffff167f6719d08c1888103bea251a4ed56406bd0c3e69723c8a1686e017e7bbe159b6f860405160405180910390a250565b600073ffffffffffffffffffffffffffffffffffffffff168173ffffffffffffffffffffffffffffffffffffffff1614151515620004be57600080fd5b620004d9828262000544640100000000026401000000009004565b151515620004e657600080fd5b60018260000160008373ffffffffffffffffffffffffffffffffffffffff1673ffffffffffffffffffffffffffffffffffffffff16815260200190815260200160002060006101000a81548160ff0219169083151502179055505050565b60008073ffffffffffffffffffffffffffffffffffffffff168273ffffffffffffffffffffffffffffffffffffffff16141515156200058257600080fd5b8260000160008373ffffffffffffffffffffffffffffffffffffffff1673ffffffffffffffffffffffffffffffffffffffff16815260200190815260200160002060009054906101000a900460ff16905092915050565b611ed080620005e96000396000f3fe608060405234801561001057600080fd5b5060043610610149576000357c0100000000000000000000000000000000000000000000000000000000900480637262561c116100ca578063947a36fb1161008e578063947a36fb14610488578063aa8c217c146104a6578063b92ae87c146104c4578063c6dbdf6114610520578063fc0c546a1461056a57610149565b80637262561c1461036857806382dc1ec4146103ac5780638456cb59146103f05780638da5cb5b146103fa5780638fe123d71461044457610149565b806341a7726a1161011157806341a7726a1461029257806341c0e1b5146102d657806346fbf68e146102e05780635c975abb1461033c5780636ef8d66d1461035e57610149565b80630fd80f7e1461014e57806317e703ab146101aa5780632348238c146101c857806325df1e771461020c5780633f4ba83a14610288575b600080fd5b6101906004803603602081101561016457600080fd5b81019080803573ffffffffffffffffffffffffffffffffffffffff1690602001909291905050506105b4565b604051808215151515815260200191505060405180910390f35b6101b2610870565b6040518082815260200191505060405180910390f35b61020a600480360360208110156101de57600080fd5b81019080803573ffffffffffffffffffffffffffffffffffffffff169060200190929190505050610881565b005b6102386004803603602081101561022257600080fd5b81019080803590602001909291905050506109df565b604051808473ffffffffffffffffffffffffffffffffffffffff1673ffffffffffffffffffffffffffffffffffffffff168152602001838152602001828152602001935050505060405180910390f35b610290610a88565b005b6102d4600480360360208110156102a857600080fd5b81019080803573ffffffffffffffffffffffffffffffffffffffff169060200190929190505050610b37565b005b6102de610d22565b005b610322600480360360208110156102f657600080fd5b81019080803573ffffffffffffffffffffffffffffffffffffffff169060200190929190505050610d97565b604051808215151515815260200191505060405180910390f35b610344610db4565b604051808215151515815260200191505060405180910390f35b610366610dcb565b005b6103aa6004803603602081101561037e57600080fd5b81019080803573ffffffffffffffffffffffffffffffffffffffff169060200190929190505050610dd6565b005b6103ee600480360360208110156103c257600080fd5b81019080803573ffffffffffffffffffffffffffffffffffffffff169060200190929190505050610faa565b005b6103f8610fca565b005b61040261107a565b604051808273ffffffffffffffffffffffffffffffffffffffff1673ffffffffffffffffffffffffffffffffffffffff16815260200191505060405180910390f35b6104866004803603602081101561045a57600080fd5b81019080803573ffffffffffffffffffffffffffffffffffffffff1690602001909291905050506110a0565b005b6104906116e4565b6040518082815260200191505060405180910390f35b6104ae6116ea565b6040518082815260200191505060405180910390f35b610506600480360360208110156104da57600080fd5b81019080803573ffffffffffffffffffffffffffffffffffffffff1690602001909291905050506116f0565b604051808215151515815260200191505060405180910390f35b61052861170d565b604051808273ffffffffffffffffffffffffffffffffffffffff1673ffffffffffffffffffffffffffffffffffffffff16815260200191505060405180910390f35b610572611736565b604051808273ffffffffffffffffffffffffffffffffffffffff1673ffffffffffffffffffffffffffffffffffffffff16815260200191505060405180910390f35b60006105bf826116f0565b15156105ce576000905061086b565b6000600360009054906101000a900473ffffffffffffffffffffffffffffffffffffffff1673ffffffffffffffffffffffffffffffffffffffff1663dd62ed3e84306040518363ffffffff167c0100000000000000000000000000000000000000000000000000000000028152600401808373ffffffffffffffffffffffffffffffffffffffff1673ffffffffffffffffffffffffffffffffffffffff1681526020018273ffffffffffffffffffffffffffffffffffffffff1673ffffffffffffffffffffffffffffffffffffffff1681526020019250505060206040518083038186803b1580156106bf57600080fd5b505afa1580156106d3573d6000803e3d6000fd5b505050506040513d60208110156106e957600080fd5b810190808051906020019092919050505090506000600360009054906101000a900473ffffffffffffffffffffffffffffffffffffffff1673ffffffffffffffffffffffffffffffffffffffff166370a08231856040518263ffffffff167c0100000000000000000000000000000000000000000000000000000000028152600401808273ffffffffffffffffffffffffffffffffffffffff1673ffffffffffffffffffffffffffffffffffffffff16815260200191505060206040518083038186803b1580156107b957600080fd5b505afa1580156107cd573d6000803e3d6000fd5b505050506040513d60208110156107e357600080fd5b810190808051906020019092919050505090506107fe610db4565b15801561084a5750600960008573ffffffffffffffffffffffffffffffffffffffff1673ffffffffffffffffffffffffffffffffffffffff168152602001908152602001600020544210155b801561085857506004548210155b801561086657506004548110155b925050505b919050565b600061087c600661175c565b905090565b6000809054906101000a900473ffffffffffffffffffffffffffffffffffffffff1673ffffffffffffffffffffffffffffffffffffffff163373ffffffffffffffffffffffffffffffffffffffff161415156108dc57600080fd5b600073ffffffffffffffffffffffffffffffffffffffff168173ffffffffffffffffffffffffffffffffffffffff161415151561091857600080fd5b806000806101000a81548173ffffffffffffffffffffffffffffffffffffffff021916908373ffffffffffffffffffffffffffffffffffffffff1602179055507f4101e71e974f68df5e9730cc223280b41654676bbb052cdcc735c3337e64d2d96000809054906101000a900473ffffffffffffffffffffffffffffffffffffffff16604051808273ffffffffffffffffffffffffffffffffffffffff1673ffffffffffffffffffffffffffffffffffffffff16815260200191505060405180910390a150565b60008060006109f884600661176d90919063ffffffff16565b925082600860008573ffffffffffffffffffffffffffffffffffffffff1673ffffffffffffffffffffffffffffffffffffffff16815260200190815260200160002054600960008673ffffffffffffffffffffffffffffffffffffffff1673ffffffffffffffffffffffffffffffffffffffff168152602001908152602001600020549250925092509193909250565b610a9133610d97565b1515610a9c57600080fd5b600260009054906101000a900460ff161515610ab757600080fd5b6000600260006101000a81548160ff0219169083151502179055507f5db9ee0a495bf2e6ff9c91a7834c1ba4fdd244a5e8aa4e537bd38aeae4b073aa33604051808273ffffffffffffffffffffffffffffffffffffffff1673ffffffffffffffffffffffffffffffffffffffff16815260200191505060405180910390a1565b6000809054906101000a900473ffffffffffffffffffffffffffffffffffffffff1673ffffffffffffffffffffffffffffffffffffffff163373ffffffffffffffffffffffffffffffffffffffff16141515610b9257600080fd5b600260009054906101000a900460ff16151515610bae57600080fd5b610bb7816116f0565b151515610c2c576040517f08c379a000000000000000000000000000000000000000000000000000000000815260040180806020018281038252601d8152602001807f4164647265737320697320616c7265616479207375627363726962656400000081525060200191505060405180910390fd5b610c408160066117b390919063ffffffff16565b42600860008373ffffffffffffffffffffffffffffffffffffffff1673ffffffffffffffffffffffffffffffffffffffff16815260200190815260200160002081905550610c996005544261188490919063ffffffff16565b600960008373ffffffffffffffffffffffffffffffffffffffff1673ffffffffffffffffffffffffffffffffffffffff168152602001908152602001600020819055508073ffffffffffffffffffffffffffffffffffffffff167fa88fac53823b534c72d6958345adbe6801e072750d83b490d52ebbac51473a6360405160405180910390a250565b6000809054906101000a900473ffffffffffffffffffffffffffffffffffffffff1673ffffffffffffffffffffffffffffffffffffffff163373ffffffffffffffffffffffffffffffffffffffff16141515610d7d57600080fd5b600073ffffffffffffffffffffffffffffffffffffffff16ff5b6000610dad8260016118a590919063ffffffff16565b9050919050565b6000600260009054906101000a900460ff16905090565b610dd433611939565b565b6000809054906101000a900473ffffffffffffffffffffffffffffffffffffffff1673ffffffffffffffffffffffffffffffffffffffff163373ffffffffffffffffffffffffffffffffffffffff16141515610e3157600080fd5b600260009054906101000a900460ff16151515610e4d57600080fd5b610e56816116f0565b1515610eca576040517f08c379a000000000000000000000000000000000000000000000000000000000815260040180806020018281038252600e8152602001807f4e6f74207375627363726962656400000000000000000000000000000000000081525060200191505060405180910390fd5b610ede81600661199390919063ffffffff16565b600860008273ffffffffffffffffffffffffffffffffffffffff1673ffffffffffffffffffffffffffffffffffffffff16815260200190815260200160002060009055600960008273ffffffffffffffffffffffffffffffffffffffff1673ffffffffffffffffffffffffffffffffffffffff168152602001908152602001600020600090558073ffffffffffffffffffffffffffffffffffffffff167fae563681ccc696fae58fe830f401bc9c043a43ddb9f7c2830b32c3c70d9966e760405160405180910390a250565b610fb333610d97565b1515610fbe57600080fd5b610fc781611bd0565b50565b610fd333610d97565b1515610fde57600080fd5b600260009054906101000a900460ff16151515610ffa57600080fd5b6001600260006101000a81548160ff0219169083151502179055507f62e78cea01bee320cd4e420270b5ea74000d11b0c9f74754ebdbfc544b05a25833604051808273ffffffffffffffffffffffffffffffffffffffff1673ffffffffffffffffffffffffffffffffffffffff16815260200191505060405180910390a1565b600260019054906101000a900473ffffffffffffffffffffffffffffffffffffffff1681565b600260009054906101000a900460ff161515156110bc57600080fd5b600260019054906101000a900473ffffffffffffffffffffffffffffffffffffffff166004546000600360009054906101000a900473ffffffffffffffffffffffffffffffffffffffff1673ffffffffffffffffffffffffffffffffffffffff166370a08231846040518263ffffffff167c0100000000000000000000000000000000000000000000000000000000028152600401808273ffffffffffffffffffffffffffffffffffffffff1673ffffffffffffffffffffffffffffffffffffffff16815260200191505060206040518083038186803b15801561119f57600080fd5b505afa1580156111b3573d6000803e3d6000fd5b505050506040513d60208110156111c957600080fd5b810190808051906020019092919050505090506111e5846105b4565b1515611259576040517f08c379a00000000000000000000000000000000000000000000000000000000081526004018080602001828103825260168152602001807f43616e6e6f742070726f63657373207061796d656e740000000000000000000081525060200191505060405180910390fd5b6000600860008673ffffffffffffffffffffffffffffffffffffffff1673ffffffffffffffffffffffffffffffffffffffff16815260200190815260200160002054905060006112b28242611c2a90919063ffffffff16565b905060006112cb60055483611c4c90919063ffffffff16565b905060006112f66005546112e88442611c2a90919063ffffffff16565b61188490919063ffffffff16565b905080600960008a73ffffffffffffffffffffffffffffffffffffffff1673ffffffffffffffffffffffffffffffffffffffff16815260200190815260200160002081905550600360009054906101000a900473ffffffffffffffffffffffffffffffffffffffff1673ffffffffffffffffffffffffffffffffffffffff166323b872dd89600260019054906101000a900473ffffffffffffffffffffffffffffffffffffffff166004546040518463ffffffff167c0100000000000000000000000000000000000000000000000000000000028152600401808473ffffffffffffffffffffffffffffffffffffffff1673ffffffffffffffffffffffffffffffffffffffff1681526020018373ffffffffffffffffffffffffffffffffffffffff1673ffffffffffffffffffffffffffffffffffffffff1681526020018281526020019350505050602060405180830381600087803b15801561145957600080fd5b505af115801561146d573d6000803e3d6000fd5b505050506040513d602081101561148357600080fd5b81019080805190602001909291905050501515611508576040517f08c379a00000000000000000000000000000000000000000000000000000000081526004018080602001828103825260198152602001807f4661696c656420746f207472616e7366657220746f6b656e730000000000000081525060200191505060405180910390fd5b8773ffffffffffffffffffffffffffffffffffffffff167fa5957fefb5b0f981554450d4d8dde003083cd202e3d5a2992e09c88ad1f0d791826040518082815260200191505060405180910390a2505050506000600360009054906101000a900473ffffffffffffffffffffffffffffffffffffffff1673ffffffffffffffffffffffffffffffffffffffff166370a08231856040518263ffffffff167c0100000000000000000000000000000000000000000000000000000000028152600401808273ffffffffffffffffffffffffffffffffffffffff1673ffffffffffffffffffffffffffffffffffffffff16815260200191505060206040518083038186803b15801561161757600080fd5b505afa15801561162b573d6000803e3d6000fd5b505050506040513d602081101561164157600080fd5b81019080805190602001909291905050509050826116688383611c2a90919063ffffffff16565b1415156116dd576040517f08c379a000000000000000000000000000000000000000000000000000000000815260040180806020018281038252601a8152602001807f436865636b20746f6b656e2062616c616e6365206661696c656400000000000081525060200191505060405180910390fd5b5050505050565b60055481565b60045481565b6000611706826006611c7190919063ffffffff16565b9050919050565b60008060009054906101000a900473ffffffffffffffffffffffffffffffffffffffff16905090565b600360009054906101000a900473ffffffffffffffffffffffffffffffffffffffff1681565b600081600101805490509050919050565b6000826001018281548110151561178057fe5b9060005260206000200160009054906101000a900473ffffffffffffffffffffffffffffffffffffffff16905092915050565b6117bd8282611c71565b156117c757611880565b816001018190806001815401808255809150509060018203906000526020600020016000909192909190916101000a81548173ffffffffffffffffffffffffffffffffffffffff021916908373ffffffffffffffffffffffffffffffffffffffff1602179055505060018260010180549050038260000160008373ffffffffffffffffffffffffffffffffffffffff1673ffffffffffffffffffffffffffffffffffffffff168152602001908152602001600020819055505b5050565b600080828401905083811015151561189b57600080fd5b8091505092915050565b60008073ffffffffffffffffffffffffffffffffffffffff168273ffffffffffffffffffffffffffffffffffffffff16141515156118e257600080fd5b8260000160008373ffffffffffffffffffffffffffffffffffffffff1673ffffffffffffffffffffffffffffffffffffffff16815260200190815260200160002060009054906101000a900460ff16905092915050565b61194d816001611d4590919063ffffffff16565b8073ffffffffffffffffffffffffffffffffffffffff167fcd265ebaf09df2871cc7bd4133404a235ba12eff2041bb89d9c714a2621c7c7e60405160405180910390a250565b61199d8282611c71565b1515611a11576040517f08c379a00000000000000000000000000000000000000000000000000000000081526004018080602001828103825260168152602001807f4164647265737320646f6573206e6f742065786973740000000000000000000081525060200191505060405180910390fd5b60008260000160008373ffffffffffffffffffffffffffffffffffffffff1673ffffffffffffffffffffffffffffffffffffffff1681526020019081526020016000205490506000836001016001856001018054905003815481101515611a7457fe5b9060005260206000200160009054906101000a900473ffffffffffffffffffffffffffffffffffffffff169050808460010183815481101515611ab357fe5b9060005260206000200160006101000a81548173ffffffffffffffffffffffffffffffffffffffff021916908373ffffffffffffffffffffffffffffffffffffffff160217905550818460000160008373ffffffffffffffffffffffffffffffffffffffff1673ffffffffffffffffffffffffffffffffffffffff16815260200190815260200160002081905550836001018054801515611b5057fe5b6001900381819060005260206000200160006101000a81549073ffffffffffffffffffffffffffffffffffffffff021916905590558360000160008473ffffffffffffffffffffffffffffffffffffffff1673ffffffffffffffffffffffffffffffffffffffff1681526020019081526020016000206000905550505050565b611be4816001611df490919063ffffffff16565b8073ffffffffffffffffffffffffffffffffffffffff167f6719d08c1888103bea251a4ed56406bd0c3e69723c8a1686e017e7bbe159b6f860405160405180910390a250565b6000828211151515611c3b57600080fd5b600082840390508091505092915050565b6000808214151515611c5d57600080fd5b8183811515611c6857fe5b06905092915050565b60008083600101805490501415611c8b5760009050611d3f565b60008360000160008473ffffffffffffffffffffffffffffffffffffffff1673ffffffffffffffffffffffffffffffffffffffff1681526020019081526020016000205490508273ffffffffffffffffffffffffffffffffffffffff168460010182815481101515611cf957fe5b9060005260206000200160009054906101000a900473ffffffffffffffffffffffffffffffffffffffff1673ffffffffffffffffffffffffffffffffffffffff16149150505b92915050565b600073ffffffffffffffffffffffffffffffffffffffff168173ffffffffffffffffffffffffffffffffffffffff1614151515611d8157600080fd5b611d8b82826118a5565b1515611d9657600080fd5b60008260000160008373ffffffffffffffffffffffffffffffffffffffff1673ffffffffffffffffffffffffffffffffffffffff16815260200190815260200160002060006101000a81548160ff0219169083151502179055505050565b600073ffffffffffffffffffffffffffffffffffffffff168173ffffffffffffffffffffffffffffffffffffffff1614151515611e3057600080fd5b611e3a82826118a5565b151515611e4657600080fd5b60018260000160008373ffffffffffffffffffffffffffffffffffffffff1673ffffffffffffffffffffffffffffffffffffffff16815260200190815260200160002060006101000a81548160ff021916908315150217905550505056fea165627a7a72305820a52b3c36b90332ceeb07b1fc96690a0d82dac3f52e4dceea91b1ff485bb9840a00295061796d656e7420696e74657276616c206d7573742062652067726561746572207468616e2030537562736372697074696f6e206e6f742072656769737465726564206e6f722064656c65746564a165627a7a72305820467440face4bab274cfadc56fdae8273a86f5f0bdd2823a1bd69b0254c68266d00296080604052336000806101000a81548173ffffffffffffffffffffffffffffffffffffffff021916908373ffffffffffffffffffffffffffffffffffffffff1602179055507f4101e71e974f68df5e9730cc223280b41654676bbb052cdcc735c3337e64d2d96000809054906101000a900473ffffffffffffffffffffffffffffffffffffffff16604051808273ffffffffffffffffffffffffffffffffffffffff1673ffffffffffffffffffffffffffffffffffffffff16815260200191505060405180910390a1611c85806100d76000396000f3fe608060405234801561001057600080fd5b50600436106100b0576000357c0100000000000000000000000000000000000000000000000000000000900480639a1a8551116100835780639a1a8551146101a9578063c6dbdf6114610225578063ce7a2b021461026f578063e95b0dc9146102d3578063ee8c4bbf1461032f576100b0565b806306641f7e146100b55780632348238c146100d35780632ec2c246146101175780636d705ebb1461015b575b600080fd5b6100bd6103a4565b6040518082815260200191505060405180910390f35b610115600480360360208110156100e957600080fd5b81019080803573ffffffffffffffffffffffffffffffffffffffff1690602001909291905050506103b5565b005b6101596004803603602081101561012d57600080fd5b81019080803573ffffffffffffffffffffffffffffffffffffffff169060200190929190505050610513565b005b6101a76004803603604081101561017157600080fd5b81019080803573ffffffffffffffffffffffffffffffffffffffff16906020019092919080359060200190929190505050610695565b005b61020b600480360360408110156101bf57600080fd5b81019080803573ffffffffffffffffffffffffffffffffffffffff169060200190929190803573ffffffffffffffffffffffffffffffffffffffff169060200190929190505050610a2e565b604051808215151515815260200191505060405180910390f35b61022d610dd2565b604051808273ffffffffffffffffffffffffffffffffffffffff1673ffffffffffffffffffffffffffffffffffffffff16815260200191505060405180910390f35b6102d16004803603604081101561028557600080fd5b81019080803573ffffffffffffffffffffffffffffffffffffffff169060200190929190803573ffffffffffffffffffffffffffffffffffffffff169060200190929190505050610dfb565b005b610315600480360360208110156102e957600080fd5b81019080803573ffffffffffffffffffffffffffffffffffffffff1690602001909291905050506116ea565b604051808215151515815260200191505060405180910390f35b61035b6004803603602081101561034557600080fd5b8101908080359060200190929190505050611707565b604051808373ffffffffffffffffffffffffffffffffffffffff1673ffffffffffffffffffffffffffffffffffffffff1681526020018281526020019250505060405180910390f35b60006103b0600261176d565b905090565b6000809054906101000a900473ffffffffffffffffffffffffffffffffffffffff1673ffffffffffffffffffffffffffffffffffffffff163373ffffffffffffffffffffffffffffffffffffffff1614151561041057600080fd5b600073ffffffffffffffffffffffffffffffffffffffff168173ffffffffffffffffffffffffffffffffffffffff161415151561044c57600080fd5b806000806101000a81548173ffffffffffffffffffffffffffffffffffffffff021916908373ffffffffffffffffffffffffffffffffffffffff1602179055507f4101e71e974f68df5e9730cc223280b41654676bbb052cdcc735c3337e64d2d96000809054906101000a900473ffffffffffffffffffffffffffffffffffffffff16604051808273ffffffffffffffffffffffffffffffffffffffff1673ffffffffffffffffffffffffffffffffffffffff16815260200191505060405180910390a150565b6000809054906101000a900473ffffffffffffffffffffffffffffffffffffffff1673ffffffffffffffffffffffffffffffffffffffff163373ffffffffffffffffffffffffffffffffffffffff1614151561056e57600080fd5b8061058381600261177e90919063ffffffff16565b15156105f7576040517f08c379a000000000000000000000000000000000000000000000000000000000815260040180806020018281038252601e8152602001807f537562736372697074696f6e206973206e6f742072656769737465726564000081525060200191505060405180910390fd5b61060b82600261185290919063ffffffff16565b600160008373ffffffffffffffffffffffffffffffffffffffff1673ffffffffffffffffffffffffffffffffffffffff168152602001908152602001600020600090558173ffffffffffffffffffffffffffffffffffffffff167f181da0f18499f2602872e8efd7b3f8b12375754a12a77869a29c004140e00b3e60405160405180910390a25050565b6000809054906101000a900473ffffffffffffffffffffffffffffffffffffffff1673ffffffffffffffffffffffffffffffffffffffff163373ffffffffffffffffffffffffffffffffffffffff161415156106f057600080fd5b61070482600261177e90919063ffffffff16565b15151561075c576040517f08c379a0000000000000000000000000000000000000000000000000000000008152600401808060200182810382526022815260200180611bc96022913960400191505060405180910390fd5b6000829050818173ffffffffffffffffffffffffffffffffffffffff1663aa8c217c6040518163ffffffff167c010000000000000000000000000000000000000000000000000000000002815260040160206040518083038186803b1580156107c457600080fd5b505afa1580156107d8573d6000803e3d6000fd5b505050506040513d60208110156107ee57600080fd5b810190808051906020019092919050505010151515610858576040517f08c379a000000000000000000000000000000000000000000000000000000000815260040180806020018281038252602f815260200180611c2b602f913960400191505060405180910390fd5b6000821115156108d0576040517f08c379a000000000000000000000000000000000000000000000000000000000815260040180806020018281038252601d8152602001807f526577617264206d7573742062652067726561746572207468616e203000000081525060200191505060405180910390fd5b6108e4836002611a8f90919063ffffffff16565b81600160008573ffffffffffffffffffffffffffffffffffffffff1673ffffffffffffffffffffffffffffffffffffffff168152602001908152602001600020819055508073ffffffffffffffffffffffffffffffffffffffff1663fc0c546a6040518163ffffffff167c010000000000000000000000000000000000000000000000000000000002815260040160206040518083038186803b15801561098a57600080fd5b505afa15801561099e573d6000803e3d6000fd5b505050506040513d60208110156109b457600080fd5b810190808051906020019092919050505073ffffffffffffffffffffffffffffffffffffffff168373ffffffffffffffffffffffffffffffffffffffff167fd7b0cfdac456ef4569b74d82f12bf845a7a0e6697bcbe8b3ed49dbab1b1ba937846040518082815260200191505060405180910390a3505050565b6000610a4483600261177e90919063ffffffff16565b1515610a535760009050610dcc565b600083905060008173ffffffffffffffffffffffffffffffffffffffff1663fc0c546a6040518163ffffffff167c010000000000000000000000000000000000000000000000000000000002815260040160206040518083038186803b158015610abc57600080fd5b505afa158015610ad0573d6000803e3d6000fd5b505050506040513d6020811015610ae657600080fd5b8101908080519060200190929190505050905060008173ffffffffffffffffffffffffffffffffffffffff1663dd62ed3e8473ffffffffffffffffffffffffffffffffffffffff16638da5cb5b6040518163ffffffff167c010000000000000000000000000000000000000000000000000000000002815260040160206040518083038186803b158015610b7957600080fd5b505afa158015610b8d573d6000803e3d6000fd5b505050506040513d6020811015610ba357600080fd5b8101908080519060200190929190505050306040518363ffffffff167c0100000000000000000000000000000000000000000000000000000000028152600401808373ffffffffffffffffffffffffffffffffffffffff1673ffffffffffffffffffffffffffffffffffffffff1681526020018273ffffffffffffffffffffffffffffffffffffffff1673ffffffffffffffffffffffffffffffffffffffff1681526020019250505060206040518083038186803b158015610c6457600080fd5b505afa158015610c78573d6000803e3d6000fd5b505050506040513d6020811015610c8e57600080fd5b810190808051906020019092919050505090506000600160008873ffffffffffffffffffffffffffffffffffffffff1673ffffffffffffffffffffffffffffffffffffffff168152602001908152602001600020549050808210158015610dc557508373ffffffffffffffffffffffffffffffffffffffff16630fd80f7e876040518263ffffffff167c0100000000000000000000000000000000000000000000000000000000028152600401808273ffffffffffffffffffffffffffffffffffffffff1673ffffffffffffffffffffffffffffffffffffffff16815260200191505060206040518083038186803b158015610d8957600080fd5b505afa158015610d9d573d6000803e3d6000fd5b505050506040513d6020811015610db357600080fd5b81019080805190602001909291905050505b9450505050505b92915050565b60008060009054906101000a900473ffffffffffffffffffffffffffffffffffffffff16905090565b81610e1081600261177e90919063ffffffff16565b1515610e84576040517f08c379a000000000000000000000000000000000000000000000000000000000815260040180806020018281038252601e8152602001807f537562736372697074696f6e206973206e6f742072656769737465726564000081525060200191505060405180910390fd5b823360008290506000600160008573ffffffffffffffffffffffffffffffffffffffff1673ffffffffffffffffffffffffffffffffffffffff16815260200190815260200160002054905060008273ffffffffffffffffffffffffffffffffffffffff1663fc0c546a6040518163ffffffff167c010000000000000000000000000000000000000000000000000000000002815260040160206040518083038186803b158015610f3357600080fd5b505afa158015610f47573d6000803e3d6000fd5b505050506040513d6020811015610f5d57600080fd5b810190808051906020019092919050505073ffffffffffffffffffffffffffffffffffffffff166370a08231856040518263ffffffff167c0100000000000000000000000000000000000000000000000000000000028152600401808273ffffffffffffffffffffffffffffffffffffffff1673ffffffffffffffffffffffffffffffffffffffff16815260200191505060206040518083038186803b15801561100657600080fd5b505afa15801561101a573d6000803e3d6000fd5b505050506040513d602081101561103057600080fd5b8101908080519060200190929190505050905061104d8888610a2e565b15156110c1576040517f08c379a00000000000000000000000000000000000000000000000000000000081526004018080602001828103825260168152602001807f43616e6e6f742070726f63657373207061796d656e740000000000000000000081525060200191505060405180910390fd5b600088905060008173ffffffffffffffffffffffffffffffffffffffff1663fc0c546a6040518163ffffffff167c010000000000000000000000000000000000000000000000000000000002815260040160206040518083038186803b15801561112a57600080fd5b505afa15801561113e573d6000803e3d6000fd5b505050506040513d602081101561115457600080fd5b810190808051906020019092919050505090508173ffffffffffffffffffffffffffffffffffffffff16638fe123d78a6040518263ffffffff167c0100000000000000000000000000000000000000000000000000000000028152600401808273ffffffffffffffffffffffffffffffffffffffff1673ffffffffffffffffffffffffffffffffffffffff168152602001915050600060405180830381600087803b15801561120257600080fd5b505af1158015611216573d6000803e3d6000fd5b505050506000600160008c73ffffffffffffffffffffffffffffffffffffffff1673ffffffffffffffffffffffffffffffffffffffff1681526020019081526020016000205490508173ffffffffffffffffffffffffffffffffffffffff166323b872dd8473ffffffffffffffffffffffffffffffffffffffff16638da5cb5b6040518163ffffffff167c010000000000000000000000000000000000000000000000000000000002815260040160206040518083038186803b1580156112dc57600080fd5b505afa1580156112f0573d6000803e3d6000fd5b505050506040513d602081101561130657600080fd5b810190808051906020019092919050505033846040518463ffffffff167c0100000000000000000000000000000000000000000000000000000000028152600401808473ffffffffffffffffffffffffffffffffffffffff1673ffffffffffffffffffffffffffffffffffffffff1681526020018373ffffffffffffffffffffffffffffffffffffffff1673ffffffffffffffffffffffffffffffffffffffff1681526020018281526020019350505050602060405180830381600087803b1580156113d157600080fd5b505af11580156113e5573d6000803e3d6000fd5b505050506040513d60208110156113fb57600080fd5b81019080805190602001909291905050501515611463576040517f08c379a0000000000000000000000000000000000000000000000000000000008152600401808060200182810382526040815260200180611beb6040913960400191505060405180910390fd5b8173ffffffffffffffffffffffffffffffffffffffff168a73ffffffffffffffffffffffffffffffffffffffff168c73ffffffffffffffffffffffffffffffffffffffff167fa48793584600905a3386f996bb7d0e3d8bd0cf62dce1ad2469c2e550207c3e34846040518082815260200191505060405180910390a450505060008373ffffffffffffffffffffffffffffffffffffffff1663fc0c546a6040518163ffffffff167c010000000000000000000000000000000000000000000000000000000002815260040160206040518083038186803b15801561154657600080fd5b505afa15801561155a573d6000803e3d6000fd5b505050506040513d602081101561157057600080fd5b810190808051906020019092919050505073ffffffffffffffffffffffffffffffffffffffff166370a08231866040518263ffffffff167c0100000000000000000000000000000000000000000000000000000000028152600401808273ffffffffffffffffffffffffffffffffffffffff1673ffffffffffffffffffffffffffffffffffffffff16815260200191505060206040518083038186803b15801561161957600080fd5b505afa15801561162d573d6000803e3d6000fd5b505050506040513d602081101561164357600080fd5b810190808051906020019092919050505090508261166a8383611b6090919063ffffffff16565b1415156116df576040517f08c379a000000000000000000000000000000000000000000000000000000000815260040180806020018281038252601a8152602001807f436865636b20746f6b656e2062616c616e6365206661696c656400000000000081525060200191505060405180910390fd5b505050505050505050565b600061170082600261177e90919063ffffffff16565b9050919050565b60008061171e836002611b8290919063ffffffff16565b9150600160008373ffffffffffffffffffffffffffffffffffffffff1673ffffffffffffffffffffffffffffffffffffffff168152602001908152602001600020549050818191509150915091565b600081600101805490509050919050565b60008083600101805490501415611798576000905061184c565b60008360000160008473ffffffffffffffffffffffffffffffffffffffff1673ffffffffffffffffffffffffffffffffffffffff1681526020019081526020016000205490508273ffffffffffffffffffffffffffffffffffffffff16846001018281548110151561180657fe5b9060005260206000200160009054906101000a900473ffffffffffffffffffffffffffffffffffffffff1673ffffffffffffffffffffffffffffffffffffffff16149150505b92915050565b61185c828261177e565b15156118d0576040517f08c379a00000000000000000000000000000000000000000000000000000000081526004018080602001828103825260168152602001807f4164647265737320646f6573206e6f742065786973740000000000000000000081525060200191505060405180910390fd5b60008260000160008373ffffffffffffffffffffffffffffffffffffffff1673ffffffffffffffffffffffffffffffffffffffff168152602001908152602001600020549050600083600101600185600101805490500381548110151561193357fe5b9060005260206000200160009054906101000a900473ffffffffffffffffffffffffffffffffffffffff16905080846001018381548110151561197257fe5b9060005260206000200160006101000a81548173ffffffffffffffffffffffffffffffffffffffff021916908373ffffffffffffffffffffffffffffffffffffffff160217905550818460000160008373ffffffffffffffffffffffffffffffffffffffff1673ffffffffffffffffffffffffffffffffffffffff16815260200190815260200160002081905550836001018054801515611a0f57fe5b6001900381819060005260206000200160006101000a81549073ffffffffffffffffffffffffffffffffffffffff021916905590558360000160008473ffffffffffffffffffffffffffffffffffffffff1673ffffffffffffffffffffffffffffffffffffffff1681526020019081526020016000206000905550505050565b611a99828261177e565b15611aa357611b5c565b816001018190806001815401808255809150509060018203906000526020600020016000909192909190916101000a81548173ffffffffffffffffffffffffffffffffffffffff021916908373ffffffffffffffffffffffffffffffffffffffff1602179055505060018260010180549050038260000160008373ffffffffffffffffffffffffffffffffffffffff1673ffffffffffffffffffffffffffffffffffffffff168152602001908152602001600020819055505b5050565b6000828211151515611b7157600080fd5b600082840390508091505092915050565b60008260010182815481101515611b9557fe5b9060005260206000200160009054906101000a900473ffffffffffffffffffffffffffffffffffffffff1690509291505056fe537562736372697074696f6e20697320616c72656164792072656769737465726564746f6b656e2e7472616e736665722066726f6d20746f6b656e537562736372697074696f6e2e6f776e657220746f206d73672e73656e646572206661696c6564426f756e7479207265776172642063616e6e6f742065786365656420737562736372697074696f6e20616d6f756e74a165627a7a723058204231e8512aa3b66affc771c5383ecc93e3f68afe2ab96ef3484408402ecc08c00029",
  "source": "pragma solidity 0.5.2;\n\nimport \"./lib/Set.sol\";\nimport \"./PaymentBounty.sol\";\nimport \"./Subscription.sol\";\n\ncontract SubscriptionRegistry {\n  using Set for Set.AddressSet;\n\n  event SubscriptionCreated(\n    address indexed owner,\n    address indexed subscription,\n    address indexed token,\n    uint amount,\n    uint interval\n  );\n  event SubscriptionDeleted(address indexed owner, address indexed subscription);\n  event Subscribed(address indexed subscription, address indexed subscriber);\n  event Unsubscribed(address indexed subscription, address indexed subscriber);\n\n  PaymentBounty public paymentBounty = new PaymentBounty();\n\n  mapping(address => Set.AddressSet) private ownerToSubs;\n  mapping(address => Set.AddressSet) private subscriberToSubs;\n  mapping(address => bool) public deletedSubs;\n\n  modifier onlyRegistered(address subscription) {\n    require(\n      Subscription(subscription).owner() == address(this),\n      \"Subscription is not registered\"\n    );\n    _;\n  }\n\n  modifier onlySubscriptionOwner(address owner, address subscription) {\n    require(\n      ownerToSubs[owner].has(subscription),\n      \"Not the owner of subscripiton\"\n    );\n    _;\n  }\n\n  function createSubscription(address token, uint amount, uint interval)\n    public\n  {\n    Subscription sub = new Subscription(msg.sender, token, amount, interval);\n\n    address subscription = address(sub);\n\n    ownerToSubs[msg.sender].add(subscription);\n\n    emit SubscriptionCreated(msg.sender, subscription, token, amount, interval);\n  }\n\n  function deleteSubscription(address subscription)\n    public\n    onlyRegistered(subscription)\n    onlySubscriptionOwner(msg.sender, subscription)\n  {\n    Subscription sub = Subscription(subscription);\n\n    ownerToSubs[msg.sender].remove(subscription);\n    deletedSubs[subscription] = true;\n    // TODO error handle when kill fails\n    sub.kill();\n\n    if (paymentBounty.bountyExists(subscription)) {\n      paymentBounty.unregister(subscription);\n    }\n\n    emit SubscriptionDeleted(msg.sender, subscription);\n  }\n\n  function pauseSubscription(address subscription)\n    public\n    onlyRegistered(subscription)\n    onlySubscriptionOwner(msg.sender, subscription)\n  {\n    Subscription sub = Subscription(subscription);\n    sub.pause();\n  }\n\n  function unpauseSubscription(address subscription)\n    public\n    onlyRegistered(subscription)\n    onlySubscriptionOwner(msg.sender, subscription)\n  {\n    Subscription sub = Subscription(subscription);\n    sub.unpause();\n  }\n\n  function subscribe(address subscription) public onlyRegistered(subscription) {\n    require(\n      !subscriberToSubs[msg.sender].has(subscription),\n      \"Already subscribed\"\n    );\n\n    Subscription sub = Subscription(subscription);\n\n    subscriberToSubs[msg.sender].add(subscription);\n    sub.subscribe(msg.sender);\n\n    emit Subscribed(subscription, msg.sender);\n  }\n\n  function unsubscribe(address subscription) public {\n    // TODO what happens if contract is initialized at non- existing contract address\n    Subscription sub = Subscription(subscription);\n\n    require(\n      sub.owner() == address(this) || deletedSubs[subscription],\n      \"Subscription not registered nor deleted\"\n    );\n\n    require(subscriberToSubs[msg.sender].has(subscription), \"Not subscribed\");\n\n    subscriberToSubs[msg.sender].remove(subscription);\n\n    if (!deletedSubs[subscription]) {\n      sub.unsubscribe(msg.sender);\n    }\n\n    emit Unsubscribed(subscription, msg.sender);\n  }\n\n  function registerBounty(address subscription, uint reward)\n    public\n    onlyRegistered(subscription)\n    onlySubscriptionOwner(msg.sender, subscription)\n  {\n    paymentBounty.register(subscription, reward);\n  }\n\n  function unregisterBounty(address subscription)\n    public\n    onlyRegistered(subscription)\n    onlySubscriptionOwner(msg.sender, subscription)\n  {\n    paymentBounty.unregister(subscription);\n  }\n\n  function getSubscriptionByOwnerCount(address owner)\n    public\n    view\n    returns (uint)\n  {\n    return ownerToSubs[owner].length();\n  }\n\n  function getSubscriptionByOwner(address owner, uint index)\n    public\n    view\n    returns (address)\n  {\n    return ownerToSubs[owner].get(index);\n  }\n\n  function getSubscriptionBySubscriberCount(address subscriber)\n    public\n    view\n    returns (uint)\n  {\n    return subscriberToSubs[subscriber].length();\n  }\n\n  function getSubscriptionBySubscriber(address subscriber, uint index)\n    public\n    view\n    returns (address)\n  {\n    return subscriberToSubs[subscriber].get(index);\n  }\n}\n",
  "sourcePath": "/home/t4sk/bkp/dev/t4sk/d-monetize/contracts/contracts/SubcriptionRegistry.sol",
  "compiler": {
    "name": "solc",
    "version": "0.5.2+commit.1df8f40c.Linux.g++"
  },
  "schemaVersion": "3.0.2",
  "updatedAt": "2019-03-11T09:08:36.148Z",
  "devdoc": {
    "methods": {}
  },
  "userdoc": {
    "methods": {}
  }
}