{
  "contractName": "SubscriptionFactory",
  "abi": [
    {
      "constant": true,
      "inputs": [],
      "name": "subscriptionRegistry",
      "outputs": [
        {
          "name": "",
          "type": "address"
        }
      ],
      "payable": false,
      "stateMutability": "view",
      "type": "function",
      "signature": "0x20da7170"
    },
    {
      "inputs": [],
      "payable": false,
      "stateMutability": "nonpayable",
      "type": "constructor",
      "signature": "constructor"
    },
    {
      "anonymous": false,
      "inputs": [
        {
          "indexed": true,
          "name": "subscription",
          "type": "address"
        },
        {
          "indexed": true,
          "name": "owner",
          "type": "address"
        },
        {
          "indexed": true,
          "name": "token",
          "type": "address"
        },
        {
          "indexed": false,
          "name": "amount",
          "type": "uint256"
        },
        {
          "indexed": false,
          "name": "interval",
          "type": "uint256"
        },
        {
          "indexed": false,
          "name": "bounty",
          "type": "uint256"
        }
      ],
      "name": "SubscriptionCreated",
      "type": "event",
      "signature": "0x6050fd6a47da923ef04659f907e0422dc8b7ab529332644e4eeb52719bbb7566"
    },
    {
      "constant": false,
      "inputs": [
        {
          "name": "_token",
          "type": "address"
        },
        {
          "name": "_amount",
          "type": "uint256"
        },
        {
          "name": "_interval",
          "type": "uint256"
        },
        {
          "name": "_bounty",
          "type": "uint256"
        }
      ],
      "name": "create",
      "outputs": [],
      "payable": false,
      "stateMutability": "nonpayable",
      "type": "function",
      "signature": "0x8c71ec16"
    }
  ],
  "bytecode": "0x608060405234801561001057600080fd5b5060405161001d9061007e565b604051809103906000f080158015610039573d6000803e3d6000fd5b506000806101000a81548173ffffffffffffffffffffffffffffffffffffffff021916908373ffffffffffffffffffffffffffffffffffffffff16021790555061008b565b6119068061350183390190565b6134678061009a6000396000f3fe608060405234801561001057600080fd5b5060043610610053576000357c01000000000000000000000000000000000000000000000000000000009004806320da7170146100585780638c71ec16146100a2575b600080fd5b610060610104565b604051808273ffffffffffffffffffffffffffffffffffffffff1673ffffffffffffffffffffffffffffffffffffffff16815260200191505060405180910390f35b610102600480360360808110156100b857600080fd5b81019080803573ffffffffffffffffffffffffffffffffffffffff169060200190929190803590602001909291908035906020019092919080359060200190929190505050610129565b005b6000809054906101000a900473ffffffffffffffffffffffffffffffffffffffff1681565b6000848484846000809054906101000a900473ffffffffffffffffffffffffffffffffffffffff1660405161015d90610448565b808673ffffffffffffffffffffffffffffffffffffffff1673ffffffffffffffffffffffffffffffffffffffff1681526020018581526020018481526020018381526020018273ffffffffffffffffffffffffffffffffffffffff1673ffffffffffffffffffffffffffffffffffffffff16815260200195505050505050604051809103906000f0801580156101f7573d6000803e3d6000fd5b5090508073ffffffffffffffffffffffffffffffffffffffff1663f2fde38b336040518263ffffffff167c0100000000000000000000000000000000000000000000000000000000028152600401808273ffffffffffffffffffffffffffffffffffffffff1673ffffffffffffffffffffffffffffffffffffffff168152602001915050600060405180830381600087803b15801561029557600080fd5b505af11580156102a9573d6000803e3d6000fd5b505050506000809054906101000a900473ffffffffffffffffffffffffffffffffffffffff1673ffffffffffffffffffffffffffffffffffffffff1663c312c85582336040518363ffffffff167c0100000000000000000000000000000000000000000000000000000000028152600401808373ffffffffffffffffffffffffffffffffffffffff1673ffffffffffffffffffffffffffffffffffffffff1681526020018273ffffffffffffffffffffffffffffffffffffffff1673ffffffffffffffffffffffffffffffffffffffff16815260200192505050600060405180830381600087803b15801561039d57600080fd5b505af11580156103b1573d6000803e3d6000fd5b505050508473ffffffffffffffffffffffffffffffffffffffff163373ffffffffffffffffffffffffffffffffffffffff168273ffffffffffffffffffffffffffffffffffffffff167f6050fd6a47da923ef04659f907e0422dc8b7ab529332644e4eeb52719bbb756687878760405180848152602001838152602001828152602001935050505060405180910390a45050505050565b612fdd806104568339019056fe60806040523480156200001157600080fd5b5060405162002fdd38038062002fdd833981810160405260a08110156200003757600080fd5b81019080805190602001909291908051906020019092919080519060200190929190805190602001909291908051906020019092919050505084848484336000806101000a81548173ffffffffffffffffffffffffffffffffffffffff021916908373ffffffffffffffffffffffffffffffffffffffff1602179055506000809054906101000a900473ffffffffffffffffffffffffffffffffffffffff1673ffffffffffffffffffffffffffffffffffffffff16600073ffffffffffffffffffffffffffffffffffffffff167f8be0079c531659141344cd1fd0a4f28419497f9722a3daafe3b4186f6b6457e060405160405180910390a36200014a3362000474640100000000026401000000009004565b6000600260006101000a81548160ff021916908315150217905550600073ffffffffffffffffffffffffffffffffffffffff168473ffffffffffffffffffffffffffffffffffffffff16141562000209576040517f08c379a00000000000000000000000000000000000000000000000000000000081526004018080602001828103825260198152602001807f546f6b656e20616464726573732063616e6e6f7420626520300000000000000081525060200191505060405180910390fd5b6000831162000280576040517f08c379a000000000000000000000000000000000000000000000000000000000815260040180806020018281038252601d8152602001807f416d6f756e74206d7573742062652067726561746572207468616e203000000081525060200191505060405180910390fd5b82811115620002db576040517f08c379a000000000000000000000000000000000000000000000000000000000815260040180806020018281038252602881526020018062002f936028913960400191505060405180910390fd5b600082118015620002ef57506283d6008211155b62000346576040517f08c379a000000000000000000000000000000000000000000000000000000000815260040180806020018281038252604281526020018062002f516042913960600191505060405180910390fd5b83600260016101000a81548173ffffffffffffffffffffffffffffffffffffffff021916908373ffffffffffffffffffffffffffffffffffffffff16021790555082600381905550816004819055508060058190555050505050600073ffffffffffffffffffffffffffffffffffffffff168173ffffffffffffffffffffffffffffffffffffffff16141562000428576040517f08c379a000000000000000000000000000000000000000000000000000000000815260040180806020018281038252602581526020018062002f2c6025913960400191505060405180910390fd5b80600a60006101000a81548173ffffffffffffffffffffffffffffffffffffffff021916908373ffffffffffffffffffffffffffffffffffffffff1602179055505050505050620006ab565b62000498816001620004de6401000000000262002228179091906401000000009004565b8073ffffffffffffffffffffffffffffffffffffffff167f6719d08c1888103bea251a4ed56406bd0c3e69723c8a1686e017e7bbe159b6f860405160405180910390a250565b620004f98282620005cb640100000000026401000000009004565b156200056d576040517f08c379a000000000000000000000000000000000000000000000000000000000815260040180806020018281038252601f8152602001807f526f6c65733a206163636f756e7420616c72656164792068617320726f6c650081525060200191505060405180910390fd5b60018260000160008373ffffffffffffffffffffffffffffffffffffffff1673ffffffffffffffffffffffffffffffffffffffff16815260200190815260200160002060006101000a81548160ff0219169083151502179055505050565b60008073ffffffffffffffffffffffffffffffffffffffff168273ffffffffffffffffffffffffffffffffffffffff16141562000654576040517f08c379a000000000000000000000000000000000000000000000000000000000815260040180806020018281038252602281526020018062002fbb6022913960400191505060405180910390fd5b8260000160008373ffffffffffffffffffffffffffffffffffffffff1673ffffffffffffffffffffffffffffffffffffffff16815260200190815260200160002060009054906101000a900460ff16905092915050565b61287180620006bb6000396000f3fe608060405234801561001057600080fd5b5060043610610190576000357c01000000000000000000000000000000000000000000000000000000009004806382dc1ec4116100fb578063947a36fb116100b4578063f2fde38b1161008e578063f2fde38b1461056d578063fc0c546a146105b1578063fc6bd76a146105fb578063fcae44841461063f57610190565b8063947a36fb146104d5578063aa8c217c146104f3578063b92ae87c1461051157610190565b806382dc1ec4146103f35780638456cb59146104375780638da5cb5b146104415780638f32d59b1461048b5780638f449a05146104ad578063943dfef1146104b757610190565b806341c0e1b51161014d57806341c0e1b5146102ff57806346fbf68e146103095780635c975abb146103655780636c41ebdd146103875780636ef8d66d146103df578063715018a6146103e957610190565b806317e703ab146101955780631d6aa02c146101b357806320da71701461020f57806325df1e77146102595780633615770f146102c75780633f4ba83a146102f5575b600080fd5b61019d610649565b6040518082815260200191505060405180910390f35b6101f5600480360360208110156101c957600080fd5b81019080803573ffffffffffffffffffffffffffffffffffffffff16906020019092919050505061065a565b604051808215151515815260200191505060405180910390f35b610217610a40565b604051808273ffffffffffffffffffffffffffffffffffffffff1673ffffffffffffffffffffffffffffffffffffffff16815260200191505060405180910390f35b6102856004803603602081101561026f57600080fd5b8101908080359060200190929190505050610a66565b604051808273ffffffffffffffffffffffffffffffffffffffff1673ffffffffffffffffffffffffffffffffffffffff16815260200191505060405180910390f35b6102f3600480360360208110156102dd57600080fd5b8101908080359060200190929190505050610a83565b005b6102fd610bc1565b005b610307610d21565b005b61034b6004803603602081101561031f57600080fd5b81019080803573ffffffffffffffffffffffffffffffffffffffff169060200190929190505050610e52565b604051808215151515815260200191505060405180910390f35b61036d610e6f565b604051808215151515815260200191505060405180910390f35b6103c96004803603602081101561039d57600080fd5b81019080803573ffffffffffffffffffffffffffffffffffffffff169060200190929190505050610e86565b6040518082815260200191505060405180910390f35b6103e7610e9e565b005b6103f1610ea9565b005b6104356004803603602081101561040957600080fd5b81019080803573ffffffffffffffffffffffffffffffffffffffff169060200190929190505050610fe2565b005b61043f61104c565b005b6104496111ad565b604051808273ffffffffffffffffffffffffffffffffffffffff1673ffffffffffffffffffffffffffffffffffffffff16815260200191505060405180910390f35b6104936111d6565b604051808215151515815260200191505060405180910390f35b6104b561122d565b005b6104bf61130c565b6040518082815260200191505060405180910390f35b6104dd611312565b6040518082815260200191505060405180910390f35b6104fb611318565b6040518082815260200191505060405180910390f35b6105536004803603602081101561052757600080fd5b81019080803573ffffffffffffffffffffffffffffffffffffffff16906020019092919050505061131e565b604051808215151515815260200191505060405180910390f35b6105af6004803603602081101561058357600080fd5b81019080803573ffffffffffffffffffffffffffffffffffffffff16906020019092919050505061133b565b005b6105b96113c1565b604051808273ffffffffffffffffffffffffffffffffffffffff1673ffffffffffffffffffffffffffffffffffffffff16815260200191505060405180910390f35b61063d6004803603602081101561061157600080fd5b81019080803573ffffffffffffffffffffffffffffffffffffffff1690602001909291905050506113e7565b005b6106476119d0565b005b60006106556007611aaf565b905090565b6000610664610e6f565b15801561067657506106758261131e565b5b80156106c15750600660008373ffffffffffffffffffffffffffffffffffffffff1673ffffffffffffffffffffffffffffffffffffffff168152602001908152602001600020544210155b80156107f85750600354600260019054906101000a900473ffffffffffffffffffffffffffffffffffffffff1673ffffffffffffffffffffffffffffffffffffffff1663dd62ed3e84306040518363ffffffff167c0100000000000000000000000000000000000000000000000000000000028152600401808373ffffffffffffffffffffffffffffffffffffffff1673ffffffffffffffffffffffffffffffffffffffff1681526020018273ffffffffffffffffffffffffffffffffffffffff1673ffffffffffffffffffffffffffffffffffffffff1681526020019250505060206040518083038186803b1580156107ba57600080fd5b505afa1580156107ce573d6000803e3d6000fd5b505050506040513d60208110156107e457600080fd5b810190808051906020019092919050505010155b80156108fb5750600354600260019054906101000a900473ffffffffffffffffffffffffffffffffffffffff1673ffffffffffffffffffffffffffffffffffffffff166370a08231846040518263ffffffff167c0100000000000000000000000000000000000000000000000000000000028152600401808273ffffffffffffffffffffffffffffffffffffffff1673ffffffffffffffffffffffffffffffffffffffff16815260200191505060206040518083038186803b1580156108bd57600080fd5b505afa1580156108d1573d6000803e3d6000fd5b505050506040513d60208110156108e757600080fd5b810190808051906020019092919050505010155b8015610a395750600554600260019054906101000a900473ffffffffffffffffffffffffffffffffffffffff1673ffffffffffffffffffffffffffffffffffffffff1663dd62ed3e61094b6111ad565b306040518363ffffffff167c0100000000000000000000000000000000000000000000000000000000028152600401808373ffffffffffffffffffffffffffffffffffffffff1673ffffffffffffffffffffffffffffffffffffffff1681526020018273ffffffffffffffffffffffffffffffffffffffff1673ffffffffffffffffffffffffffffffffffffffff1681526020019250505060206040518083038186803b1580156109fb57600080fd5b505afa158015610a0f573d6000803e3d6000fd5b505050506040513d6020811015610a2557600080fd5b810190808051906020019092919050505010155b9050919050565b600a60009054906101000a900473ffffffffffffffffffffffffffffffffffffffff1681565b6000610a7c826007611ac090919063ffffffff16565b9050919050565b610a8b6111d6565b610afd576040517f08c379a00000000000000000000000000000000000000000000000000000000081526004018080602001828103825260208152602001807f4f776e61626c653a2063616c6c6572206973206e6f7420746865206f776e657281525060200191505060405180910390fd5b600260009054906101000a900460ff1615610b80576040517f08c379a00000000000000000000000000000000000000000000000000000000081526004018080602001828103825260108152602001807f5061757361626c653a207061757365640000000000000000000000000000000081525060200191505060405180910390fd5b806005819055507f16bad55f7ea4a80796c6f907e775cc23057b180a4bfbc4a3e25ea0d06fd37a68816040518082815260200191505060405180910390a150565b610bca33610e52565b610c1f576040517f08c379a00000000000000000000000000000000000000000000000000000000081526004018080602001828103825260308152602001806127a46030913960400191505060405180910390fd5b600260009054906101000a900460ff16610ca1576040517f08c379a00000000000000000000000000000000000000000000000000000000081526004018080602001828103825260148152602001807f5061757361626c653a206e6f742070617573656400000000000000000000000081525060200191505060405180910390fd5b6000600260006101000a81548160ff0219169083151502179055507f5db9ee0a495bf2e6ff9c91a7834c1ba4fdd244a5e8aa4e537bd38aeae4b073aa33604051808273ffffffffffffffffffffffffffffffffffffffff1673ffffffffffffffffffffffffffffffffffffffff16815260200191505060405180910390a1565b610d296111d6565b610d9b576040517f08c379a00000000000000000000000000000000000000000000000000000000081526004018080602001828103825260208152602001807f4f776e61626c653a2063616c6c6572206973206e6f7420746865206f776e657281525060200191505060405180910390fd5b600a60009054906101000a900473ffffffffffffffffffffffffffffffffffffffff1673ffffffffffffffffffffffffffffffffffffffff166316afeb8c6040518163ffffffff167c0100000000000000000000000000000000000000000000000000000000028152600401600060405180830381600087803b158015610e2157600080fd5b505af1158015610e35573d6000803e3d6000fd5b505050503373ffffffffffffffffffffffffffffffffffffffff16ff5b6000610e68826001611b0490919063ffffffff16565b9050919050565b6000600260009054906101000a900460ff16905090565b60066020528060005260406000206000915090505481565b610ea733611be2565b565b610eb16111d6565b610f23576040517f08c379a00000000000000000000000000000000000000000000000000000000081526004018080602001828103825260208152602001807f4f776e61626c653a2063616c6c6572206973206e6f7420746865206f776e657281525060200191505060405180910390fd5b600073ffffffffffffffffffffffffffffffffffffffff166000809054906101000a900473ffffffffffffffffffffffffffffffffffffffff1673ffffffffffffffffffffffffffffffffffffffff167f8be0079c531659141344cd1fd0a4f28419497f9722a3daafe3b4186f6b6457e060405160405180910390a360008060006101000a81548173ffffffffffffffffffffffffffffffffffffffff021916908373ffffffffffffffffffffffffffffffffffffffff160217905550565b610feb33610e52565b611040576040517f08c379a00000000000000000000000000000000000000000000000000000000081526004018080602001828103825260308152602001806127a46030913960400191505060405180910390fd5b61104981611c3c565b50565b61105533610e52565b6110aa576040517f08c379a00000000000000000000000000000000000000000000000000000000081526004018080602001828103825260308152602001806127a46030913960400191505060405180910390fd5b600260009054906101000a900460ff161561112d576040517f08c379a00000000000000000000000000000000000000000000000000000000081526004018080602001828103825260108152602001807f5061757361626c653a207061757365640000000000000000000000000000000081525060200191505060405180910390fd5b6001600260006101000a81548160ff0219169083151502179055507f62e78cea01bee320cd4e420270b5ea74000d11b0c9f74754ebdbfc544b05a25833604051808273ffffffffffffffffffffffffffffffffffffffff1673ffffffffffffffffffffffffffffffffffffffff16815260200191505060405180910390a1565b60008060009054906101000a900473ffffffffffffffffffffffffffffffffffffffff16905090565b60008060009054906101000a900473ffffffffffffffffffffffffffffffffffffffff1673ffffffffffffffffffffffffffffffffffffffff163373ffffffffffffffffffffffffffffffffffffffff1614905090565b611235611c96565b600a60009054906101000a900473ffffffffffffffffffffffffffffffffffffffff1673ffffffffffffffffffffffffffffffffffffffff166394555d1a336040518263ffffffff167c0100000000000000000000000000000000000000000000000000000000028152600401808273ffffffffffffffffffffffffffffffffffffffff1673ffffffffffffffffffffffffffffffffffffffff168152602001915050600060405180830381600087803b1580156112f257600080fd5b505af1158015611306573d6000803e3d6000fd5b50505050565b60055481565b60045481565b60035481565b6000611334826007611e3290919063ffffffff16565b9050919050565b6113436111d6565b6113b5576040517f08c379a00000000000000000000000000000000000000000000000000000000081526004018080602001828103825260208152602001807f4f776e61626c653a2063616c6c6572206973206e6f7420746865206f776e657281525060200191505060405180910390fd5b6113be81611e8b565b50565b600260019054906101000a900473ffffffffffffffffffffffffffffffffffffffff1681565b600260009054906101000a900460ff161561146a576040517f08c379a00000000000000000000000000000000000000000000000000000000081526004018080602001828103825260108152602001807f5061757361626c653a207061757365640000000000000000000000000000000081525060200191505060405180910390fd5b6114738161065a565b6114e5576040517f08c379a000000000000000000000000000000000000000000000000000000000815260040180806020018281038252600d8152602001807f43616e6e6f74206368617267650000000000000000000000000000000000000081525060200191505060405180910390fd5b6000600660008373ffffffffffffffffffffffffffffffffffffffff1673ffffffffffffffffffffffffffffffffffffffff1681526020019081526020016000205490506000600454600660008573ffffffffffffffffffffffffffffffffffffffff1673ffffffffffffffffffffffffffffffffffffffff1681526020019081526020016000205442038161157757fe5b06905080600454034201600660008573ffffffffffffffffffffffffffffffffffffffff1673ffffffffffffffffffffffffffffffffffffffff16815260200190815260200160002081905550600260019054906101000a900473ffffffffffffffffffffffffffffffffffffffff1673ffffffffffffffffffffffffffffffffffffffff166323b872dd8461160b6111ad565b6003546040518463ffffffff167c0100000000000000000000000000000000000000000000000000000000028152600401808473ffffffffffffffffffffffffffffffffffffffff1673ffffffffffffffffffffffffffffffffffffffff1681526020018373ffffffffffffffffffffffffffffffffffffffff1673ffffffffffffffffffffffffffffffffffffffff1681526020018281526020019350505050602060405180830381600087803b1580156116c657600080fd5b505af11580156116da573d6000803e3d6000fd5b505050506040513d60208110156116f057600080fd5b8101908080519060200190929190505050611773576040517f08c379a000000000000000000000000000000000000000000000000000000000815260040180806020018281038252601b8152602001807f4661696c656420746f207472616e7366657220746f206f776e6572000000000081525060200191505060405180910390fd5b6000600554111561192e57600260019054906101000a900473ffffffffffffffffffffffffffffffffffffffff1673ffffffffffffffffffffffffffffffffffffffff166323b872dd6117c46111ad565b336005546040518463ffffffff167c0100000000000000000000000000000000000000000000000000000000028152600401808473ffffffffffffffffffffffffffffffffffffffff1673ffffffffffffffffffffffffffffffffffffffff1681526020018373ffffffffffffffffffffffffffffffffffffffff1673ffffffffffffffffffffffffffffffffffffffff1681526020018281526020019350505050602060405180830381600087803b15801561188057600080fd5b505af1158015611894573d6000803e3d6000fd5b505050506040513d60208110156118aa57600080fd5b810190808051906020019092919050505061192d576040517f08c379a00000000000000000000000000000000000000000000000000000000081526004018080602001828103825260128152602001807f4661696c656420746f207472616e73666572000000000000000000000000000081525060200191505060405180910390fd5b5b8273ffffffffffffffffffffffffffffffffffffffff167f79bf8bc1d1a721050a41a66c19911b0219ff504f739f6316d7fb9e2135d44bf08342600660008873ffffffffffffffffffffffffffffffffffffffff1673ffffffffffffffffffffffffffffffffffffffff1681526020019081526020016000205460405180848152602001838152602001828152602001935050505060405180910390a2505050565b6119d8611fcf565b600a60009054906101000a900473ffffffffffffffffffffffffffffffffffffffff1673ffffffffffffffffffffffffffffffffffffffff1663627c34ad336040518263ffffffff167c0100000000000000000000000000000000000000000000000000000000028152600401808273ffffffffffffffffffffffffffffffffffffffff1673ffffffffffffffffffffffffffffffffffffffff168152602001915050600060405180830381600087803b158015611a9557600080fd5b505af1158015611aa9573d6000803e3d6000fd5b50505050565b600081600201805490509050919050565b6000826002018281548110611ad157fe5b9060005260206000200160009054906101000a900473ffffffffffffffffffffffffffffffffffffffff16905092915050565b60008073ffffffffffffffffffffffffffffffffffffffff168273ffffffffffffffffffffffffffffffffffffffff161415611b8b576040517f08c379a000000000000000000000000000000000000000000000000000000000815260040180806020018281038252602281526020018061281b6022913960400191505060405180910390fd5b8260000160008373ffffffffffffffffffffffffffffffffffffffff1673ffffffffffffffffffffffffffffffffffffffff16815260200190815260200160002060009054906101000a900460ff16905092915050565b611bf681600161216b90919063ffffffff16565b8073ffffffffffffffffffffffffffffffffffffffff167fcd265ebaf09df2871cc7bd4133404a235ba12eff2041bb89d9c714a2621c7c7e60405160405180910390a250565b611c5081600161222890919063ffffffff16565b8073ffffffffffffffffffffffffffffffffffffffff167f6719d08c1888103bea251a4ed56406bd0c3e69723c8a1686e017e7bbe159b6f860405160405180910390a250565b600260009054906101000a900460ff1615611d19576040517f08c379a00000000000000000000000000000000000000000000000000000000081526004018080602001828103825260108152602001807f5061757361626c653a207061757365640000000000000000000000000000000081525060200191505060405180910390fd5b611d223361131e565b15611d95576040517f08c379a00000000000000000000000000000000000000000000000000000000081526004018080602001828103825260128152602001807f416c72656164792073756273637269626564000000000000000000000000000081525060200191505060405180910390fd5b611da933600761230390919063ffffffff16565b42600660003373ffffffffffffffffffffffffffffffffffffffff1673ffffffffffffffffffffffffffffffffffffffff168152602001908152602001600020819055503373ffffffffffffffffffffffffffffffffffffffff167fa88fac53823b534c72d6958345adbe6801e072750d83b490d52ebbac51473a6360405160405180910390a2565b60008260000160008373ffffffffffffffffffffffffffffffffffffffff1673ffffffffffffffffffffffffffffffffffffffff16815260200190815260200160002060009054906101000a900460ff16905092915050565b600073ffffffffffffffffffffffffffffffffffffffff168173ffffffffffffffffffffffffffffffffffffffff161415611f11576040517f08c379a00000000000000000000000000000000000000000000000000000000081526004018080602001828103825260268152602001806127d46026913960400191505060405180910390fd5b8073ffffffffffffffffffffffffffffffffffffffff166000809054906101000a900473ffffffffffffffffffffffffffffffffffffffff1673ffffffffffffffffffffffffffffffffffffffff167f8be0079c531659141344cd1fd0a4f28419497f9722a3daafe3b4186f6b6457e060405160405180910390a3806000806101000a81548173ffffffffffffffffffffffffffffffffffffffff021916908373ffffffffffffffffffffffffffffffffffffffff16021790555050565b600260009054906101000a900460ff1615612052576040517f08c379a00000000000000000000000000000000000000000000000000000000081526004018080602001828103825260108152602001807f5061757361626c653a207061757365640000000000000000000000000000000081525060200191505060405180910390fd5b61205b3361131e565b6120cd576040517f08c379a000000000000000000000000000000000000000000000000000000000815260040180806020018281038252600e8152602001807f4e6f74207375627363726962656400000000000000000000000000000000000081525060200191505060405180910390fd5b6120e13360076124d890919063ffffffff16565b6000600660003373ffffffffffffffffffffffffffffffffffffffff1673ffffffffffffffffffffffffffffffffffffffff168152602001908152602001600020819055503373ffffffffffffffffffffffffffffffffffffffff167fae563681ccc696fae58fe830f401bc9c043a43ddb9f7c2830b32c3c70d9966e760405160405180910390a2565b6121758282611b04565b6121ca576040517f08c379a00000000000000000000000000000000000000000000000000000000081526004018080602001828103825260218152602001806127fa6021913960400191505060405180910390fd5b60008260000160008373ffffffffffffffffffffffffffffffffffffffff1673ffffffffffffffffffffffffffffffffffffffff16815260200190815260200160002060006101000a81548160ff0219169083151502179055505050565b6122328282611b04565b156122a5576040517f08c379a000000000000000000000000000000000000000000000000000000000815260040180806020018281038252601f8152602001807f526f6c65733a206163636f756e7420616c72656164792068617320726f6c650081525060200191505060405180910390fd5b60018260000160008373ffffffffffffffffffffffffffffffffffffffff1673ffffffffffffffffffffffffffffffffffffffff16815260200190815260200160002060006101000a81548160ff0219169083151502179055505050565b8160000160008273ffffffffffffffffffffffffffffffffffffffff1673ffffffffffffffffffffffffffffffffffffffff16815260200190815260200160002060009054906101000a900460ff16156123c5576040517f08c379a000000000000000000000000000000000000000000000000000000000815260040180806020018281038252601b8152602001807f4164647265737320697320616c726561647920696e736572746564000000000081525060200191505060405180910390fd5b60018260000160008373ffffffffffffffffffffffffffffffffffffffff1673ffffffffffffffffffffffffffffffffffffffff16815260200190815260200160002060006101000a81548160ff02191690831515021790555081600201805490508260010160008373ffffffffffffffffffffffffffffffffffffffff1673ffffffffffffffffffffffffffffffffffffffff16815260200190815260200160002081905550816002018190806001815401808255809150509060018203906000526020600020016000909192909190916101000a81548173ffffffffffffffffffffffffffffffffffffffff021916908373ffffffffffffffffffffffffffffffffffffffff160217905550505050565b8160000160008273ffffffffffffffffffffffffffffffffffffffff1673ffffffffffffffffffffffffffffffffffffffff16815260200190815260200160002060009054906101000a900460ff16612599576040517f08c379a000000000000000000000000000000000000000000000000000000000815260040180806020018281038252601b8152602001807f41646472657373206973206e6f742079657420696e736572746564000000000081525060200191505060405180910390fd5b60008260010160008373ffffffffffffffffffffffffffffffffffffffff1673ffffffffffffffffffffffffffffffffffffffff1681526020019081526020016000205490506000836002016001856002018054905003815481106125fa57fe5b9060005260206000200160009054906101000a900473ffffffffffffffffffffffffffffffffffffffff1690508084600201838154811061263757fe5b9060005260206000200160006101000a81548173ffffffffffffffffffffffffffffffffffffffff021916908373ffffffffffffffffffffffffffffffffffffffff160217905550818460010160008373ffffffffffffffffffffffffffffffffffffffff1673ffffffffffffffffffffffffffffffffffffffff16815260200190815260200160002081905550836002018054806126d257fe5b6001900381819060005260206000200160006101000a81549073ffffffffffffffffffffffffffffffffffffffff021916905590558360010160008473ffffffffffffffffffffffffffffffffffffffff1673ffffffffffffffffffffffffffffffffffffffff168152602001908152602001600020600090558360000160008473ffffffffffffffffffffffffffffffffffffffff1673ffffffffffffffffffffffffffffffffffffffff16815260200190815260200160002060006101000a81549060ff02191690555050505056fe506175736572526f6c653a2063616c6c657220646f6573206e6f742068617665207468652050617573657220726f6c654f776e61626c653a206e6577206f776e657220697320746865207a65726f2061646472657373526f6c65733a206163636f756e7420646f6573206e6f74206861766520726f6c65526f6c65733a206163636f756e7420697320746865207a65726f2061646472657373a265627a7a72305820a7b33c80b78ab26862d3d11d8bb926c45acd6ab7d89166089d43b3992dc232a964736f6c634300050a0032696e76616c696420737562736372697074696f6e2072656769737472792061646472657373496e74657276616c206d7573742062652067726561746572207468616e203020616e64206c657373207468616e206f7220657175616c20746f203130302064617973426f756e7479206d757374206265206c657373207468616e206f7220657175616c20616d6f756e74526f6c65733a206163636f756e7420697320746865207a65726f2061646472657373a265627a7a723058208a765cb3381a02ba2dd7583f3f43fcb518455bcfe7d1688d3d92c719326d2db664736f6c634300050a00326080604052336000806101000a81548173ffffffffffffffffffffffffffffffffffffffff021916908373ffffffffffffffffffffffffffffffffffffffff1602179055506000809054906101000a900473ffffffffffffffffffffffffffffffffffffffff1673ffffffffffffffffffffffffffffffffffffffff16600073ffffffffffffffffffffffffffffffffffffffff167f8be0079c531659141344cd1fd0a4f28419497f9722a3daafe3b4186f6b6457e060405160405180910390a3611837806100cf6000396000f3fe608060405234801561001057600080fd5b506004361061011d576000357c01000000000000000000000000000000000000000000000000000000009004806394555d1a116100b4578063d1ebd06c11610083578063d1ebd06c146104a8578063dc311dd314610500578063f2fde38b1461056e578063fbfac369146105b25761011d565b806394555d1a14610316578063ad8dde4c1461035a578063b9181611146103e8578063c312c855146104445761011d565b8063715018a6116100f0578063715018a6146102125780637812b1a51461021c5780638da5cb5b146102aa5780638f32d59b146102f45761011d565b806314afd79e1461012257806316afeb8c146101a6578063627c34ad146101b057806366419970146101f4575b600080fd5b6101646004803603602081101561013857600080fd5b81019080803573ffffffffffffffffffffffffffffffffffffffff16906020019092919050505061060a565b604051808273ffffffffffffffffffffffffffffffffffffffff1673ffffffffffffffffffffffffffffffffffffffff16815260200191505060405180910390f35b6101ae61063d565b005b6101f2600480360360208110156101c657600080fd5b81019080803573ffffffffffffffffffffffffffffffffffffffff1690602001909291905050506108d3565b005b6101fc610a40565b6040518082815260200191505060405180910390f35b61021a610a51565b005b6102686004803603604081101561023257600080fd5b81019080803573ffffffffffffffffffffffffffffffffffffffff16906020019092919080359060200190929190505050610b8a565b604051808273ffffffffffffffffffffffffffffffffffffffff1673ffffffffffffffffffffffffffffffffffffffff16815260200191505060405180910390f35b6102b2610be5565b604051808273ffffffffffffffffffffffffffffffffffffffff1673ffffffffffffffffffffffffffffffffffffffff16815260200191505060405180910390f35b6102fc610c0e565b604051808215151515815260200191505060405180910390f35b6103586004803603602081101561032c57600080fd5b81019080803573ffffffffffffffffffffffffffffffffffffffff169060200190929190505050610c65565b005b6103a66004803603604081101561037057600080fd5b81019080803573ffffffffffffffffffffffffffffffffffffffff16906020019092919080359060200190929190505050610dd2565b604051808273ffffffffffffffffffffffffffffffffffffffff1673ffffffffffffffffffffffffffffffffffffffff16815260200191505060405180910390f35b61042a600480360360208110156103fe57600080fd5b81019080803573ffffffffffffffffffffffffffffffffffffffff169060200190929190505050610e2d565b604051808215151515815260200191505060405180910390f35b6104a66004803603604081101561045a57600080fd5b81019080803573ffffffffffffffffffffffffffffffffffffffff169060200190929190803573ffffffffffffffffffffffffffffffffffffffff169060200190929190505050610e4d565b005b6104ea600480360360208110156104be57600080fd5b81019080803573ffffffffffffffffffffffffffffffffffffffff169060200190929190505050611060565b6040518082815260200191505060405180910390f35b61052c6004803603602081101561051657600080fd5b81019080803590602001909291905050506110b0565b604051808273ffffffffffffffffffffffffffffffffffffffff1673ffffffffffffffffffffffffffffffffffffffff16815260200191505060405180910390f35b6105b06004803603602081101561058457600080fd5b81019080803573ffffffffffffffffffffffffffffffffffffffff1690602001909291905050506110cd565b005b6105f4600480360360208110156105c857600080fd5b81019080803573ffffffffffffffffffffffffffffffffffffffff169060200190929190505050611153565b6040518082815260200191505060405180910390f35b60066020528060005260406000206000915054906101000a900473ffffffffffffffffffffffffffffffffffffffff1681565b600760003373ffffffffffffffffffffffffffffffffffffffff1673ffffffffffffffffffffffffffffffffffffffff16815260200190815260200160002060009054906101000a900460ff166106fc576040517f08c379a000000000000000000000000000000000000000000000000000000000815260040180806020018281038252601e8152602001807f537562736372697074696f6e206973206e6f7420617574686f72697a6564000081525060200191505060405180910390fd5b6000600660003373ffffffffffffffffffffffffffffffffffffffff1673ffffffffffffffffffffffffffffffffffffffff16815260200190815260200160002060009054906101000a900473ffffffffffffffffffffffffffffffffffffffff169050600660003373ffffffffffffffffffffffffffffffffffffffff1673ffffffffffffffffffffffffffffffffffffffff16815260200190815260200160002060006101000a81549073ffffffffffffffffffffffffffffffffffffffff0219169055600760003373ffffffffffffffffffffffffffffffffffffffff1673ffffffffffffffffffffffffffffffffffffffff16815260200190815260200160002060006101000a81549060ff02191690556108253360016111a390919063ffffffff16565b61087633600460008473ffffffffffffffffffffffffffffffffffffffff1673ffffffffffffffffffffffffffffffffffffffff1681526020019081526020016000206111a390919063ffffffff16565b8073ffffffffffffffffffffffffffffffffffffffff163373ffffffffffffffffffffffffffffffffffffffff167fc7318814302f90789441302362949693c047475a2f559426a37ee74b52ee9a8060405160405180910390a350565b600760003373ffffffffffffffffffffffffffffffffffffffff1673ffffffffffffffffffffffffffffffffffffffff16815260200190815260200160002060009054906101000a900460ff16610992576040517f08c379a000000000000000000000000000000000000000000000000000000000815260040180806020018281038252601e8152602001807f537562736372697074696f6e206973206e6f7420617574686f72697a6564000081525060200191505060405180910390fd5b6109e333600560008473ffffffffffffffffffffffffffffffffffffffff1673ffffffffffffffffffffffffffffffffffffffff1681526020019081526020016000206111a390919063ffffffff16565b8073ffffffffffffffffffffffffffffffffffffffff163373ffffffffffffffffffffffffffffffffffffffff167f5b2dbc8284cbdb99be6caf6a1b755bab94bda5c247492c5639875a2d957e307260405160405180910390a350565b6000610a4c600161146e565b905090565b610a59610c0e565b610acb576040517f08c379a00000000000000000000000000000000000000000000000000000000081526004018080602001828103825260208152602001807f4f776e61626c653a2063616c6c6572206973206e6f7420746865206f776e657281525060200191505060405180910390fd5b600073ffffffffffffffffffffffffffffffffffffffff166000809054906101000a900473ffffffffffffffffffffffffffffffffffffffff1673ffffffffffffffffffffffffffffffffffffffff167f8be0079c531659141344cd1fd0a4f28419497f9722a3daafe3b4186f6b6457e060405160405180910390a360008060006101000a81548173ffffffffffffffffffffffffffffffffffffffff021916908373ffffffffffffffffffffffffffffffffffffffff160217905550565b6000610bdd82600460008673ffffffffffffffffffffffffffffffffffffffff1673ffffffffffffffffffffffffffffffffffffffff16815260200190815260200160002061147f90919063ffffffff16565b905092915050565b60008060009054906101000a900473ffffffffffffffffffffffffffffffffffffffff16905090565b60008060009054906101000a900473ffffffffffffffffffffffffffffffffffffffff1673ffffffffffffffffffffffffffffffffffffffff163373ffffffffffffffffffffffffffffffffffffffff1614905090565b600760003373ffffffffffffffffffffffffffffffffffffffff1673ffffffffffffffffffffffffffffffffffffffff16815260200190815260200160002060009054906101000a900460ff16610d24576040517f08c379a000000000000000000000000000000000000000000000000000000000815260040180806020018281038252601e8152602001807f537562736372697074696f6e206973206e6f7420617574686f72697a6564000081525060200191505060405180910390fd5b610d7533600560008473ffffffffffffffffffffffffffffffffffffffff1673ffffffffffffffffffffffffffffffffffffffff1681526020019081526020016000206114c390919063ffffffff16565b8073ffffffffffffffffffffffffffffffffffffffff163373ffffffffffffffffffffffffffffffffffffffff167f0ba9a25a244a7ababd5bd896c6446922510e611a1b5ad90d043a4eab8b2ef39d60405160405180910390a350565b6000610e2582600560008673ffffffffffffffffffffffffffffffffffffffff1673ffffffffffffffffffffffffffffffffffffffff16815260200190815260200160002061147f90919063ffffffff16565b905092915050565b60076020528060005260406000206000915054906101000a900460ff1681565b610e55610c0e565b610ec7576040517f08c379a00000000000000000000000000000000000000000000000000000000081526004018080602001828103825260208152602001807f4f776e61626c653a2063616c6c6572206973206e6f7420746865206f776e657281525060200191505060405180910390fd5b610edb8260016114c390919063ffffffff16565b610f2c82600460008473ffffffffffffffffffffffffffffffffffffffff1673ffffffffffffffffffffffffffffffffffffffff1681526020019081526020016000206114c390919063ffffffff16565b80600660008473ffffffffffffffffffffffffffffffffffffffff1673ffffffffffffffffffffffffffffffffffffffff16815260200190815260200160002060006101000a81548173ffffffffffffffffffffffffffffffffffffffff021916908373ffffffffffffffffffffffffffffffffffffffff1602179055506001600760008473ffffffffffffffffffffffffffffffffffffffff1673ffffffffffffffffffffffffffffffffffffffff16815260200190815260200160002060006101000a81548160ff0219169083151502179055508073ffffffffffffffffffffffffffffffffffffffff168273ffffffffffffffffffffffffffffffffffffffff167f72a065a849998b02cabacd96c5c2fa26daa682a707d454005367f445b465889360405160405180910390a35050565b60006110a9600560008473ffffffffffffffffffffffffffffffffffffffff1673ffffffffffffffffffffffffffffffffffffffff16815260200190815260200160002061146e565b9050919050565b60006110c682600161147f90919063ffffffff16565b9050919050565b6110d5610c0e565b611147576040517f08c379a00000000000000000000000000000000000000000000000000000000081526004018080602001828103825260208152602001807f4f776e61626c653a2063616c6c6572206973206e6f7420746865206f776e657281525060200191505060405180910390fd5b61115081611698565b50565b600061119c600460008473ffffffffffffffffffffffffffffffffffffffff1673ffffffffffffffffffffffffffffffffffffffff16815260200190815260200160002061146e565b9050919050565b8160000160008273ffffffffffffffffffffffffffffffffffffffff1673ffffffffffffffffffffffffffffffffffffffff16815260200190815260200160002060009054906101000a900460ff16611264576040517f08c379a000000000000000000000000000000000000000000000000000000000815260040180806020018281038252601b8152602001807f41646472657373206973206e6f742079657420696e736572746564000000000081525060200191505060405180910390fd5b60008260010160008373ffffffffffffffffffffffffffffffffffffffff1673ffffffffffffffffffffffffffffffffffffffff1681526020019081526020016000205490506000836002016001856002018054905003815481106112c557fe5b9060005260206000200160009054906101000a900473ffffffffffffffffffffffffffffffffffffffff1690508084600201838154811061130257fe5b9060005260206000200160006101000a81548173ffffffffffffffffffffffffffffffffffffffff021916908373ffffffffffffffffffffffffffffffffffffffff160217905550818460010160008373ffffffffffffffffffffffffffffffffffffffff1673ffffffffffffffffffffffffffffffffffffffff168152602001908152602001600020819055508360020180548061139d57fe5b6001900381819060005260206000200160006101000a81549073ffffffffffffffffffffffffffffffffffffffff021916905590558360010160008473ffffffffffffffffffffffffffffffffffffffff1673ffffffffffffffffffffffffffffffffffffffff168152602001908152602001600020600090558360000160008473ffffffffffffffffffffffffffffffffffffffff1673ffffffffffffffffffffffffffffffffffffffff16815260200190815260200160002060006101000a81549060ff021916905550505050565b600081600201805490509050919050565b600082600201828154811061149057fe5b9060005260206000200160009054906101000a900473ffffffffffffffffffffffffffffffffffffffff16905092915050565b8160000160008273ffffffffffffffffffffffffffffffffffffffff1673ffffffffffffffffffffffffffffffffffffffff16815260200190815260200160002060009054906101000a900460ff1615611585576040517f08c379a000000000000000000000000000000000000000000000000000000000815260040180806020018281038252601b8152602001807f4164647265737320697320616c726561647920696e736572746564000000000081525060200191505060405180910390fd5b60018260000160008373ffffffffffffffffffffffffffffffffffffffff1673ffffffffffffffffffffffffffffffffffffffff16815260200190815260200160002060006101000a81548160ff02191690831515021790555081600201805490508260010160008373ffffffffffffffffffffffffffffffffffffffff1673ffffffffffffffffffffffffffffffffffffffff16815260200190815260200160002081905550816002018190806001815401808255809150509060018203906000526020600020016000909192909190916101000a81548173ffffffffffffffffffffffffffffffffffffffff021916908373ffffffffffffffffffffffffffffffffffffffff160217905550505050565b600073ffffffffffffffffffffffffffffffffffffffff168173ffffffffffffffffffffffffffffffffffffffff16141561171e576040517f08c379a00000000000000000000000000000000000000000000000000000000081526004018080602001828103825260268152602001806117dd6026913960400191505060405180910390fd5b8073ffffffffffffffffffffffffffffffffffffffff166000809054906101000a900473ffffffffffffffffffffffffffffffffffffffff1673ffffffffffffffffffffffffffffffffffffffff167f8be0079c531659141344cd1fd0a4f28419497f9722a3daafe3b4186f6b6457e060405160405180910390a3806000806101000a81548173ffffffffffffffffffffffffffffffffffffffff021916908373ffffffffffffffffffffffffffffffffffffffff1602179055505056fe4f776e61626c653a206e6577206f776e657220697320746865207a65726f2061646472657373a265627a7a72305820abaeb7f824fbbe1ffd5a730dea82a13d8d82cd82ca7cc6eaa56409a47e64095764736f6c634300050a0032",
  "source": "pragma solidity 0.5.10;\n\nimport \"./SubscriptionRegistry.sol\";\nimport \"./SubscriptionWithRegistry.sol\";\n\ncontract SubscriptionFactory {\n  event SubscriptionCreated(\n    address indexed subscription,\n    address indexed owner,\n    address indexed token,\n    uint amount,\n    uint interval,\n    uint bounty\n  );\n\n  SubscriptionRegistry public subscriptionRegistry;\n\n  constructor() public {\n    subscriptionRegistry = new SubscriptionRegistry();\n  }\n\n  function create(address _token, uint _amount, uint _interval, uint _bounty)\n    public\n  {\n    SubscriptionWithRegistry subscription = new SubscriptionWithRegistry(\n      _token,\n      _amount,\n      _interval,\n      _bounty,\n      address(subscriptionRegistry)\n    );\n\n    subscription.transferOwnership(msg.sender);\n\n    subscriptionRegistry.addSubscription(address(subscription), msg.sender);\n\n    emit SubscriptionCreated(\n      address(subscription), msg.sender, _token, _amount, _interval, _bounty\n    );\n  }\n}\n",
  "sourcePath": "/home/t4sk/bkp/dev/t4sk/d-monetize/contracts/contracts/SubscriptionFactory.sol",
  "compiler": {
    "name": "solc",
    "version": "0.5.10+commit.5a6ea5b1.Linux.g++"
  },
  "schemaVersion": "3.0.2",
  "updatedAt": "2019-08-31T03:49:56.407Z",
  "devdoc": {
    "methods": {}
  },
  "userdoc": {
    "methods": {}
  }
}