{
  "contractName": "Subscription",
  "abi": [
    {
      "constant": false,
      "inputs": [
        {
          "name": "recipient",
          "type": "address"
        }
      ],
      "name": "transferPrimary",
      "outputs": [],
      "payable": false,
      "stateMutability": "nonpayable",
      "type": "function"
    },
    {
      "constant": false,
      "inputs": [],
      "name": "unpause",
      "outputs": [],
      "payable": false,
      "stateMutability": "nonpayable",
      "type": "function"
    },
    {
      "constant": true,
      "inputs": [
        {
          "name": "account",
          "type": "address"
        }
      ],
      "name": "isPauser",
      "outputs": [
        {
          "name": "",
          "type": "bool"
        }
      ],
      "payable": false,
      "stateMutability": "view",
      "type": "function"
    },
    {
      "constant": true,
      "inputs": [
        {
          "name": "",
          "type": "address"
        }
      ],
      "name": "subscribers",
      "outputs": [
        {
          "name": "subscribedAt",
          "type": "uint256"
        },
        {
          "name": "nextPaymentAt",
          "type": "uint256"
        }
      ],
      "payable": false,
      "stateMutability": "view",
      "type": "function"
    },
    {
      "constant": true,
      "inputs": [],
      "name": "paused",
      "outputs": [
        {
          "name": "",
          "type": "bool"
        }
      ],
      "payable": false,
      "stateMutability": "view",
      "type": "function"
    },
    {
      "constant": false,
      "inputs": [],
      "name": "renouncePauser",
      "outputs": [],
      "payable": false,
      "stateMutability": "nonpayable",
      "type": "function"
    },
    {
      "constant": false,
      "inputs": [
        {
          "name": "account",
          "type": "address"
        }
      ],
      "name": "addPauser",
      "outputs": [],
      "payable": false,
      "stateMutability": "nonpayable",
      "type": "function"
    },
    {
      "constant": false,
      "inputs": [],
      "name": "pause",
      "outputs": [],
      "payable": false,
      "stateMutability": "nonpayable",
      "type": "function"
    },
    {
      "constant": true,
      "inputs": [],
      "name": "owner",
      "outputs": [
        {
          "name": "",
          "type": "address"
        }
      ],
      "payable": false,
      "stateMutability": "view",
      "type": "function"
    },
    {
      "constant": true,
      "inputs": [],
      "name": "interval",
      "outputs": [
        {
          "name": "",
          "type": "uint256"
        }
      ],
      "payable": false,
      "stateMutability": "view",
      "type": "function"
    },
    {
      "constant": true,
      "inputs": [],
      "name": "amount",
      "outputs": [
        {
          "name": "",
          "type": "uint256"
        }
      ],
      "payable": false,
      "stateMutability": "view",
      "type": "function"
    },
    {
      "constant": true,
      "inputs": [],
      "name": "primary",
      "outputs": [
        {
          "name": "",
          "type": "address"
        }
      ],
      "payable": false,
      "stateMutability": "view",
      "type": "function"
    },
    {
      "constant": true,
      "inputs": [],
      "name": "token",
      "outputs": [
        {
          "name": "",
          "type": "address"
        }
      ],
      "payable": false,
      "stateMutability": "view",
      "type": "function"
    },
    {
      "inputs": [
        {
          "name": "_owner",
          "type": "address"
        },
        {
          "name": "_token",
          "type": "address"
        },
        {
          "name": "_amount",
          "type": "uint256"
        },
        {
          "name": "_interval",
          "type": "uint256"
        }
      ],
      "payable": false,
      "stateMutability": "nonpayable",
      "type": "constructor"
    },
    {
      "anonymous": false,
      "inputs": [
        {
          "indexed": true,
          "name": "subscriber",
          "type": "address"
        },
        {
          "indexed": false,
          "name": "nextPaymentAt",
          "type": "uint256"
        }
      ],
      "name": "Subscribed",
      "type": "event"
    },
    {
      "anonymous": false,
      "inputs": [
        {
          "indexed": true,
          "name": "subscriber",
          "type": "address"
        }
      ],
      "name": "Unsubscribed",
      "type": "event"
    },
    {
      "anonymous": false,
      "inputs": [
        {
          "indexed": true,
          "name": "subscriber",
          "type": "address"
        },
        {
          "indexed": false,
          "name": "nextPaymentAt",
          "type": "uint256"
        }
      ],
      "name": "PaymentProcessed",
      "type": "event"
    },
    {
      "anonymous": false,
      "inputs": [
        {
          "indexed": false,
          "name": "account",
          "type": "address"
        }
      ],
      "name": "Paused",
      "type": "event"
    },
    {
      "anonymous": false,
      "inputs": [
        {
          "indexed": false,
          "name": "account",
          "type": "address"
        }
      ],
      "name": "Unpaused",
      "type": "event"
    },
    {
      "anonymous": false,
      "inputs": [
        {
          "indexed": true,
          "name": "account",
          "type": "address"
        }
      ],
      "name": "PauserAdded",
      "type": "event"
    },
    {
      "anonymous": false,
      "inputs": [
        {
          "indexed": true,
          "name": "account",
          "type": "address"
        }
      ],
      "name": "PauserRemoved",
      "type": "event"
    },
    {
      "anonymous": false,
      "inputs": [
        {
          "indexed": false,
          "name": "recipient",
          "type": "address"
        }
      ],
      "name": "PrimaryTransferred",
      "type": "event"
    },
    {
      "constant": true,
      "inputs": [
        {
          "name": "addr",
          "type": "address"
        }
      ],
      "name": "isSubscribed",
      "outputs": [
        {
          "name": "",
          "type": "bool"
        }
      ],
      "payable": false,
      "stateMutability": "view",
      "type": "function"
    },
    {
      "constant": false,
      "inputs": [
        {
          "name": "subscriber",
          "type": "address"
        }
      ],
      "name": "subscribe",
      "outputs": [],
      "payable": false,
      "stateMutability": "nonpayable",
      "type": "function"
    },
    {
      "constant": false,
      "inputs": [
        {
          "name": "subscriber",
          "type": "address"
        }
      ],
      "name": "unsubscribe",
      "outputs": [],
      "payable": false,
      "stateMutability": "nonpayable",
      "type": "function"
    },
    {
      "constant": true,
      "inputs": [
        {
          "name": "subscriber",
          "type": "address"
        }
      ],
      "name": "canProcessPayment",
      "outputs": [
        {
          "name": "",
          "type": "bool"
        }
      ],
      "payable": false,
      "stateMutability": "view",
      "type": "function"
    },
    {
      "constant": false,
      "inputs": [
        {
          "name": "subscriber",
          "type": "address"
        }
      ],
      "name": "processPayment",
      "outputs": [],
      "payable": false,
      "stateMutability": "nonpayable",
      "type": "function"
    },
    {
      "constant": false,
      "inputs": [],
      "name": "kill",
      "outputs": [],
      "payable": false,
      "stateMutability": "nonpayable",
      "type": "function"
    }
  ],
  "bytecode": "0x60806040523480156200001157600080fd5b5060405160808062001ffa833981018060405260808110156200003357600080fd5b8101908080519060200190929190805190602001909291908051906020019092919080519060200190929190505050336000806101000a81548173ffffffffffffffffffffffffffffffffffffffff021916908373ffffffffffffffffffffffffffffffffffffffff1602179055507f4101e71e974f68df5e9730cc223280b41654676bbb052cdcc735c3337e64d2d96000809054906101000a900473ffffffffffffffffffffffffffffffffffffffff16604051808273ffffffffffffffffffffffffffffffffffffffff1673ffffffffffffffffffffffffffffffffffffffff16815260200191505060405180910390a1620001403362000417640100000000026401000000009004565b6000600260006101000a81548160ff021916908315150217905550600073ffffffffffffffffffffffffffffffffffffffff168473ffffffffffffffffffffffffffffffffffffffff161415151562000201576040517f08c379a00000000000000000000000000000000000000000000000000000000081526004018080602001828103825260198152602001807f4f776e657220616464726573732063616e6e6f7420626520300000000000000081525060200191505060405180910390fd5b600073ffffffffffffffffffffffffffffffffffffffff168373ffffffffffffffffffffffffffffffffffffffff1614151515620002a7576040517f08c379a00000000000000000000000000000000000000000000000000000000081526004018080602001828103825260198152602001807f546f6b656e20616464726573732063616e6e6f7420626520300000000000000081525060200191505060405180910390fd5b60008211151562000320576040517f08c379a000000000000000000000000000000000000000000000000000000000815260040180806020018281038252601d8152602001807f416d6f756e74206d7573742062652067726561746572207468616e203000000081525060200191505060405180910390fd5b6000811115156200037d576040517f08c379a000000000000000000000000000000000000000000000000000000000815260040180806020018281038252602781526020018062001fd36027913960400191505060405180910390fd5b83600260016101000a81548173ffffffffffffffffffffffffffffffffffffffff021916908373ffffffffffffffffffffffffffffffffffffffff16021790555082600360006101000a81548173ffffffffffffffffffffffffffffffffffffffff021916908373ffffffffffffffffffffffffffffffffffffffff160217905550816004819055508060058190555050505050620005d9565b6200043b81600162000481640100000000026200190e179091906401000000009004565b8073ffffffffffffffffffffffffffffffffffffffff167f6719d08c1888103bea251a4ed56406bd0c3e69723c8a1686e017e7bbe159b6f860405160405180910390a250565b600073ffffffffffffffffffffffffffffffffffffffff168173ffffffffffffffffffffffffffffffffffffffff1614151515620004be57600080fd5b620004d9828262000544640100000000026401000000009004565b151515620004e657600080fd5b60018260000160008373ffffffffffffffffffffffffffffffffffffffff1673ffffffffffffffffffffffffffffffffffffffff16815260200190815260200160002060006101000a81548160ff0219169083151502179055505050565b60008073ffffffffffffffffffffffffffffffffffffffff168273ffffffffffffffffffffffffffffffffffffffff16141515156200058257600080fd5b8260000160008373ffffffffffffffffffffffffffffffffffffffff1673ffffffffffffffffffffffffffffffffffffffff16815260200190815260200160002060009054906101000a900460ff16905092915050565b6119ea80620005e96000396000f3fe608060405234801561001057600080fd5b506004361061013e576000357c0100000000000000000000000000000000000000000000000000000000900480637262561c116100ca578063947a36fb1161008e578063947a36fb14610442578063aa8c217c14610460578063b92ae87c1461047e578063c6dbdf61146104da578063fc0c546a146105245761013e565b80637262561c1461032257806382dc1ec4146103665780638456cb59146103aa5780638da5cb5b146103b45780638fe123d7146103fe5761013e565b806341c0e1b51161011157806341c0e1b51461023157806346fbf68e1461023b5780635745ae28146102975780635c975abb146102f65780636ef8d66d146103185761013e565b80630fd80f7e146101435780632348238c1461019f5780633f4ba83a146101e357806341a7726a146101ed575b600080fd5b6101856004803603602081101561015957600080fd5b81019080803573ffffffffffffffffffffffffffffffffffffffff16906020019092919050505061056e565b604051808215151515815260200191505060405180910390f35b6101e1600480360360208110156101b557600080fd5b81019080803573ffffffffffffffffffffffffffffffffffffffff16906020019092919050505061082d565b005b6101eb61098b565b005b61022f6004803603602081101561020357600080fd5b81019080803573ffffffffffffffffffffffffffffffffffffffff169060200190929190505050610a3a565b005b610239610c41565b005b61027d6004803603602081101561025157600080fd5b81019080803573ffffffffffffffffffffffffffffffffffffffff169060200190929190505050610cd7565b604051808215151515815260200191505060405180910390f35b6102d9600480360360208110156102ad57600080fd5b81019080803573ffffffffffffffffffffffffffffffffffffffff169060200190929190505050610cf4565b604051808381526020018281526020019250505060405180910390f35b6102fe610d18565b604051808215151515815260200191505060405180910390f35b610320610d2f565b005b6103646004803603602081101561033857600080fd5b81019080803573ffffffffffffffffffffffffffffffffffffffff169060200190929190505050610d3a565b005b6103a86004803603602081101561037c57600080fd5b81019080803573ffffffffffffffffffffffffffffffffffffffff169060200190929190505050610ec6565b005b6103b2610ee6565b005b6103bc610f96565b604051808273ffffffffffffffffffffffffffffffffffffffff1673ffffffffffffffffffffffffffffffffffffffff16815260200191505060405180910390f35b6104406004803603602081101561041457600080fd5b81019080803573ffffffffffffffffffffffffffffffffffffffff169060200190929190505050610fbc565b005b61044a611606565b6040518082815260200191505060405180910390f35b61046861160c565b6040518082815260200191505060405180910390f35b6104c06004803603602081101561049457600080fd5b81019080803573ffffffffffffffffffffffffffffffffffffffff169060200190929190505050611612565b604051808215151515815260200191505060405180910390f35b6104e2611660565b604051808273ffffffffffffffffffffffffffffffffffffffff1673ffffffffffffffffffffffffffffffffffffffff16815260200191505060405180910390f35b61052c611689565b604051808273ffffffffffffffffffffffffffffffffffffffff1673ffffffffffffffffffffffffffffffffffffffff16815260200191505060405180910390f35b600061057982611612565b15156105885760009050610828565b6000600360009054906101000a900473ffffffffffffffffffffffffffffffffffffffff1673ffffffffffffffffffffffffffffffffffffffff1663dd62ed3e84306040518363ffffffff167c0100000000000000000000000000000000000000000000000000000000028152600401808373ffffffffffffffffffffffffffffffffffffffff1673ffffffffffffffffffffffffffffffffffffffff1681526020018273ffffffffffffffffffffffffffffffffffffffff1673ffffffffffffffffffffffffffffffffffffffff1681526020019250505060206040518083038186803b15801561067957600080fd5b505afa15801561068d573d6000803e3d6000fd5b505050506040513d60208110156106a357600080fd5b810190808051906020019092919050505090506000600360009054906101000a900473ffffffffffffffffffffffffffffffffffffffff1673ffffffffffffffffffffffffffffffffffffffff166370a08231856040518263ffffffff167c0100000000000000000000000000000000000000000000000000000000028152600401808273ffffffffffffffffffffffffffffffffffffffff1673ffffffffffffffffffffffffffffffffffffffff16815260200191505060206040518083038186803b15801561077357600080fd5b505afa158015610787573d6000803e3d6000fd5b505050506040513d602081101561079d57600080fd5b810190808051906020019092919050505090506107b8610d18565b1580156108075750600660008573ffffffffffffffffffffffffffffffffffffffff1673ffffffffffffffffffffffffffffffffffffffff168152602001908152602001600020600101544210155b801561081557506004548210155b801561082357506004548110155b925050505b919050565b6000809054906101000a900473ffffffffffffffffffffffffffffffffffffffff1673ffffffffffffffffffffffffffffffffffffffff163373ffffffffffffffffffffffffffffffffffffffff1614151561088857600080fd5b600073ffffffffffffffffffffffffffffffffffffffff168173ffffffffffffffffffffffffffffffffffffffff16141515156108c457600080fd5b806000806101000a81548173ffffffffffffffffffffffffffffffffffffffff021916908373ffffffffffffffffffffffffffffffffffffffff1602179055507f4101e71e974f68df5e9730cc223280b41654676bbb052cdcc735c3337e64d2d96000809054906101000a900473ffffffffffffffffffffffffffffffffffffffff16604051808273ffffffffffffffffffffffffffffffffffffffff1673ffffffffffffffffffffffffffffffffffffffff16815260200191505060405180910390a150565b61099433610cd7565b151561099f57600080fd5b600260009054906101000a900460ff1615156109ba57600080fd5b6000600260006101000a81548160ff0219169083151502179055507f5db9ee0a495bf2e6ff9c91a7834c1ba4fdd244a5e8aa4e537bd38aeae4b073aa33604051808273ffffffffffffffffffffffffffffffffffffffff1673ffffffffffffffffffffffffffffffffffffffff16815260200191505060405180910390a1565b6000809054906101000a900473ffffffffffffffffffffffffffffffffffffffff1673ffffffffffffffffffffffffffffffffffffffff163373ffffffffffffffffffffffffffffffffffffffff16141515610a9557600080fd5b600260009054906101000a900460ff16151515610ab157600080fd5b610aba81611612565b151515610b2f576040517f08c379a000000000000000000000000000000000000000000000000000000000815260040180806020018281038252601d8152602001807f4164647265737320697320616c7265616479207375627363726962656400000081525060200191505060405180910390fd5b6040805190810160405280428152602001610b55600554426116af90919063ffffffff16565b815250600660008373ffffffffffffffffffffffffffffffffffffffff1673ffffffffffffffffffffffffffffffffffffffff16815260200190815260200160002060008201518160000155602082015181600101559050508073ffffffffffffffffffffffffffffffffffffffff167f4b90d6788928d63c1821907a6a8b95f40d26562d8fe41b105f7489db9966dfcb600660008473ffffffffffffffffffffffffffffffffffffffff1673ffffffffffffffffffffffffffffffffffffffff168152602001908152602001600020600101546040518082815260200191505060405180910390a250565b6000809054906101000a900473ffffffffffffffffffffffffffffffffffffffff1673ffffffffffffffffffffffffffffffffffffffff163373ffffffffffffffffffffffffffffffffffffffff16141515610c9c57600080fd5b600260019054906101000a900473ffffffffffffffffffffffffffffffffffffffff1673ffffffffffffffffffffffffffffffffffffffff16ff5b6000610ced8260016116d090919063ffffffff16565b9050919050565b60066020528060005260406000206000915090508060000154908060010154905082565b6000600260009054906101000a900460ff16905090565b610d3833611764565b565b6000809054906101000a900473ffffffffffffffffffffffffffffffffffffffff1673ffffffffffffffffffffffffffffffffffffffff163373ffffffffffffffffffffffffffffffffffffffff16141515610d9557600080fd5b600260009054906101000a900460ff16151515610db157600080fd5b610dba81611612565b1515610e2e576040517f08c379a000000000000000000000000000000000000000000000000000000000815260040180806020018281038252600e8152602001807f4e6f74207375627363726962656400000000000000000000000000000000000081525060200191505060405180910390fd5b600660008273ffffffffffffffffffffffffffffffffffffffff1673ffffffffffffffffffffffffffffffffffffffff168152602001908152602001600020600080820160009055600182016000905550508073ffffffffffffffffffffffffffffffffffffffff167fae563681ccc696fae58fe830f401bc9c043a43ddb9f7c2830b32c3c70d9966e760405160405180910390a250565b610ecf33610cd7565b1515610eda57600080fd5b610ee3816117be565b50565b610eef33610cd7565b1515610efa57600080fd5b600260009054906101000a900460ff16151515610f1657600080fd5b6001600260006101000a81548160ff0219169083151502179055507f62e78cea01bee320cd4e420270b5ea74000d11b0c9f74754ebdbfc544b05a25833604051808273ffffffffffffffffffffffffffffffffffffffff1673ffffffffffffffffffffffffffffffffffffffff16815260200191505060405180910390a1565b600260019054906101000a900473ffffffffffffffffffffffffffffffffffffffff1681565b600260009054906101000a900460ff16151515610fd857600080fd5b600260019054906101000a900473ffffffffffffffffffffffffffffffffffffffff166004546000600360009054906101000a900473ffffffffffffffffffffffffffffffffffffffff1673ffffffffffffffffffffffffffffffffffffffff166370a08231846040518263ffffffff167c0100000000000000000000000000000000000000000000000000000000028152600401808273ffffffffffffffffffffffffffffffffffffffff1673ffffffffffffffffffffffffffffffffffffffff16815260200191505060206040518083038186803b1580156110bb57600080fd5b505afa1580156110cf573d6000803e3d6000fd5b505050506040513d60208110156110e557600080fd5b810190808051906020019092919050505090506111018461056e565b1515611175576040517f08c379a00000000000000000000000000000000000000000000000000000000081526004018080602001828103825260168152602001807f43616e6e6f742070726f63657373207061796d656e740000000000000000000081525060200191505060405180910390fd5b6000600660008673ffffffffffffffffffffffffffffffffffffffff1673ffffffffffffffffffffffffffffffffffffffff16815260200190815260200160002060000154905060006111d1824261181890919063ffffffff16565b905060006111ea6005548361183a90919063ffffffff16565b90506000611215600554611207844261181890919063ffffffff16565b6116af90919063ffffffff16565b905080600660008a73ffffffffffffffffffffffffffffffffffffffff1673ffffffffffffffffffffffffffffffffffffffff16815260200190815260200160002060010181905550600360009054906101000a900473ffffffffffffffffffffffffffffffffffffffff1673ffffffffffffffffffffffffffffffffffffffff166323b872dd89600260019054906101000a900473ffffffffffffffffffffffffffffffffffffffff166004546040518463ffffffff167c0100000000000000000000000000000000000000000000000000000000028152600401808473ffffffffffffffffffffffffffffffffffffffff1673ffffffffffffffffffffffffffffffffffffffff1681526020018373ffffffffffffffffffffffffffffffffffffffff1673ffffffffffffffffffffffffffffffffffffffff1681526020018281526020019350505050602060405180830381600087803b15801561137b57600080fd5b505af115801561138f573d6000803e3d6000fd5b505050506040513d60208110156113a557600080fd5b8101908080519060200190929190505050151561142a576040517f08c379a00000000000000000000000000000000000000000000000000000000081526004018080602001828103825260198152602001807f4661696c656420746f207472616e7366657220746f6b656e730000000000000081525060200191505060405180910390fd5b8773ffffffffffffffffffffffffffffffffffffffff167fa5957fefb5b0f981554450d4d8dde003083cd202e3d5a2992e09c88ad1f0d791826040518082815260200191505060405180910390a2505050506000600360009054906101000a900473ffffffffffffffffffffffffffffffffffffffff1673ffffffffffffffffffffffffffffffffffffffff166370a08231856040518263ffffffff167c0100000000000000000000000000000000000000000000000000000000028152600401808273ffffffffffffffffffffffffffffffffffffffff1673ffffffffffffffffffffffffffffffffffffffff16815260200191505060206040518083038186803b15801561153957600080fd5b505afa15801561154d573d6000803e3d6000fd5b505050506040513d602081101561156357600080fd5b810190808051906020019092919050505090508261158a838361181890919063ffffffff16565b1415156115ff576040517f08c379a000000000000000000000000000000000000000000000000000000000815260040180806020018281038252601a8152602001807f436865636b20746f6b656e2062616c616e6365206661696c656400000000000081525060200191505060405180910390fd5b5050505050565b60055481565b60045481565b600080600660008473ffffffffffffffffffffffffffffffffffffffff1673ffffffffffffffffffffffffffffffffffffffff16815260200190815260200160002060000154119050919050565b60008060009054906101000a900473ffffffffffffffffffffffffffffffffffffffff16905090565b600360009054906101000a900473ffffffffffffffffffffffffffffffffffffffff1681565b60008082840190508381101515156116c657600080fd5b8091505092915050565b60008073ffffffffffffffffffffffffffffffffffffffff168273ffffffffffffffffffffffffffffffffffffffff161415151561170d57600080fd5b8260000160008373ffffffffffffffffffffffffffffffffffffffff1673ffffffffffffffffffffffffffffffffffffffff16815260200190815260200160002060009054906101000a900460ff16905092915050565b61177881600161185f90919063ffffffff16565b8073ffffffffffffffffffffffffffffffffffffffff167fcd265ebaf09df2871cc7bd4133404a235ba12eff2041bb89d9c714a2621c7c7e60405160405180910390a250565b6117d281600161190e90919063ffffffff16565b8073ffffffffffffffffffffffffffffffffffffffff167f6719d08c1888103bea251a4ed56406bd0c3e69723c8a1686e017e7bbe159b6f860405160405180910390a250565b600082821115151561182957600080fd5b600082840390508091505092915050565b600080821415151561184b57600080fd5b818381151561185657fe5b06905092915050565b600073ffffffffffffffffffffffffffffffffffffffff168173ffffffffffffffffffffffffffffffffffffffff161415151561189b57600080fd5b6118a582826116d0565b15156118b057600080fd5b60008260000160008373ffffffffffffffffffffffffffffffffffffffff1673ffffffffffffffffffffffffffffffffffffffff16815260200190815260200160002060006101000a81548160ff0219169083151502179055505050565b600073ffffffffffffffffffffffffffffffffffffffff168173ffffffffffffffffffffffffffffffffffffffff161415151561194a57600080fd5b61195482826116d0565b15151561196057600080fd5b60018260000160008373ffffffffffffffffffffffffffffffffffffffff1673ffffffffffffffffffffffffffffffffffffffff16815260200190815260200160002060006101000a81548160ff021916908315150217905550505056fea165627a7a72305820fef483a74608f120c9d7e11d4a2ad2195a4f842df81da60fb4fbf4241005dadd00295061796d656e7420696e74657276616c206d7573742062652067726561746572207468616e2030",
  "source": "pragma solidity 0.5.2;\n\nimport 'openzeppelin-solidity/contracts/ownership/Secondary.sol';\nimport \"openzeppelin-solidity/contracts/lifecycle/Pausable.sol\";\nimport 'openzeppelin-solidity/contracts/math/SafeMath.sol';\nimport 'openzeppelin-solidity/contracts/token/ERC20/ERC20.sol';\n\ncontract Subscription is Secondary, Pausable {\n    using SafeMath for uint;\n\n    event Subscribed(address indexed subscriber, uint nextPaymentAt);\n    event Unsubscribed(address indexed subscriber);\n    event PaymentProcessed(address indexed subscriber, uint nextPaymentAt);\n\n    address payable public owner;\n    address public token;\n    uint public amount;\n    uint public interval;\n\n    struct Subscriber {\n      uint subscribedAt;\n      uint nextPaymentAt;\n    }\n\n    mapping(address => Subscriber) public subscribers;\n\n    modifier checkTokenBalanceAfterTransfer(address addr, uint diff) {\n      uint balanceBefore = ERC20(token).balanceOf(addr);\n      _;\n      uint balanceAfter = ERC20(token).balanceOf(addr);\n\n      require(balanceAfter.sub(balanceBefore) == diff, \"Check token balance failed\");\n    }\n\n    constructor(address payable _owner, address _token, uint _amount, uint _interval)\n      public\n    {\n        require(_owner != address(0), \"Owner address cannot be 0\");\n        require(_token != address(0), \"Token address cannot be 0\");\n        require(_amount > 0, \"Amount must be greater than 0\");\n        require(_interval > 0, \"Payment interval must be greater than 0\");\n\n        owner = _owner;\n        token = _token;\n        amount =_amount;\n        interval = _interval;\n    }\n\n    // TODO only Owner pause / unpause\n\n    function isSubscribed(address addr) public view returns (bool) {\n      return subscribers[addr].subscribedAt > 0;\n    }\n\n    function subscribe(address subscriber) public onlyPrimary whenNotPaused {\n        require(!isSubscribed(subscriber), \"Address is already subscribed\");\n\n        subscribers[subscriber] = Subscriber({\n          subscribedAt: block.timestamp,\n          nextPaymentAt: block.timestamp.add(interval)\n        });\n\n        emit Subscribed(subscriber, subscribers[subscriber].nextPaymentAt);\n    }\n\n    function unsubscribe(address subscriber) public onlyPrimary whenNotPaused {\n        require(isSubscribed(subscriber), \"Not subscribed\");\n\n        delete subscribers[subscriber];\n\n        emit Unsubscribed(subscriber);\n    }\n\n    function canProcessPayment(address subscriber) public view returns (bool) {\n        if (!isSubscribed(subscriber)) {\n            return false;\n        }\n\n        uint allowance = ERC20(token).allowance(subscriber, address(this));\n        uint balance = ERC20(token).balanceOf(subscriber);\n\n        return (\n            !paused() &&\n            block.timestamp >= subscribers[subscriber].nextPaymentAt &&\n            allowance >= amount &&\n            balance >= amount\n        );\n    }\n\n    function processPayment(address subscriber)\n      public\n      whenNotPaused\n      checkTokenBalanceAfterTransfer(owner, amount)\n    {\n        require(canProcessPayment(subscriber), \"Cannot process payment\");\n\n        uint start = subscribers[subscriber].subscribedAt;\n        uint duration = block.timestamp.sub(start);\n        uint diff = duration.mod(interval);\n        uint nextPaymentAt = block.timestamp.sub(diff).add(interval);\n\n        subscribers[subscriber].nextPaymentAt =  nextPaymentAt;\n\n        require(\n          ERC20(token).transferFrom(subscriber, owner, amount),\n          \"Failed to transfer tokens\"\n        );\n\n        emit PaymentProcessed(subscriber, nextPaymentAt);\n    }\n\n    function kill() external onlyPrimary {\n        selfdestruct(owner);\n    }\n  }\n",
  "sourcePath": "/home/t4sk/bkp/dev/t4sk/d-monetize/contracts/contracts/Subscription.sol",
  "compiler": {
    "name": "solc",
    "version": "0.5.2+commit.1df8f40c.Linux.g++"
  },
  "schemaVersion": "3.0.2",
  "updatedAt": "2019-03-12T09:03:40.151Z",
  "devdoc": {
    "methods": {
      "pause()": {
        "details": "called by the owner to pause, triggers stopped state"
      },
      "paused()": {
        "return": "true if the contract is paused, false otherwise."
      },
      "primary()": {
        "return": "the address of the primary."
      },
      "transferPrimary(address)": {
        "details": "Transfers contract to a new primary.",
        "params": {
          "recipient": "The address of new primary."
        }
      },
      "unpause()": {
        "details": "called by the owner to unpause, returns to normal state"
      }
    }
  },
  "userdoc": {
    "methods": {}
  }
}