{
  "contractName": "SubscriptionRegistry",
  "abi": [
    {
      "anonymous": false,
      "inputs": [
        {
          "indexed": true,
          "name": "subscription",
          "type": "address"
        },
        {
          "indexed": true,
          "name": "owner",
          "type": "address"
        },
        {
          "indexed": true,
          "name": "token",
          "type": "address"
        },
        {
          "indexed": false,
          "name": "amount",
          "type": "uint256"
        },
        {
          "indexed": false,
          "name": "interval",
          "type": "uint256"
        },
        {
          "indexed": false,
          "name": "bounty",
          "type": "uint256"
        }
      ],
      "name": "SubscriptionCreated",
      "type": "event"
    },
    {
      "constant": false,
      "inputs": [
        {
          "name": "token",
          "type": "address"
        },
        {
          "name": "amount",
          "type": "uint256"
        },
        {
          "name": "interval",
          "type": "uint256"
        },
        {
          "name": "bounty",
          "type": "uint256"
        }
      ],
      "name": "create",
      "outputs": [],
      "payable": false,
      "stateMutability": "nonpayable",
      "type": "function"
    }
  ],
  "bytecode": "0x608060405234801561001057600080fd5b50612118806100206000396000f3fe608060405234801561001057600080fd5b5060043610610048576000357c0100000000000000000000000000000000000000000000000000000000900480638c71ec161461004d575b600080fd5b6100ad6004803603608081101561006357600080fd5b81019080803573ffffffffffffffffffffffffffffffffffffffff1690602001909291908035906020019092919080359060200190929190803590602001909291905050506100af565b005b6000848484846040516100c190610271565b808573ffffffffffffffffffffffffffffffffffffffff1673ffffffffffffffffffffffffffffffffffffffff168152602001848152602001838152602001828152602001945050505050604051809103906000f080158015610128573d6000803e3d6000fd5b5090508073ffffffffffffffffffffffffffffffffffffffff1663f2fde38b336040518263ffffffff167c0100000000000000000000000000000000000000000000000000000000028152600401808273ffffffffffffffffffffffffffffffffffffffff1673ffffffffffffffffffffffffffffffffffffffff168152602001915050600060405180830381600087803b1580156101c657600080fd5b505af11580156101da573d6000803e3d6000fd5b505050508473ffffffffffffffffffffffffffffffffffffffff163373ffffffffffffffffffffffffffffffffffffffff168273ffffffffffffffffffffffffffffffffffffffff167f6050fd6a47da923ef04659f907e0422dc8b7ab529332644e4eeb52719bbb756687878760405180848152602001838152602001828152602001935050505060405180910390a45050505050565b611e6e8061027f8339019056fe60806040523480156200001157600080fd5b5060405160808062001e6e833981018060405260808110156200003357600080fd5b8101908080519060200190929190805190602001909291908051906020019092919080519060200190929190505050336000806101000a81548173ffffffffffffffffffffffffffffffffffffffff021916908373ffffffffffffffffffffffffffffffffffffffff1602179055506000809054906101000a900473ffffffffffffffffffffffffffffffffffffffff1673ffffffffffffffffffffffffffffffffffffffff16600073ffffffffffffffffffffffffffffffffffffffff167f8be0079c531659141344cd1fd0a4f28419497f9722a3daafe3b4186f6b6457e060405160405180910390a3620001383362000394640100000000026401000000009004565b6000600260006101000a81548160ff021916908315150217905550600073ffffffffffffffffffffffffffffffffffffffff168473ffffffffffffffffffffffffffffffffffffffff161415620001f7576040517f08c379a00000000000000000000000000000000000000000000000000000000081526004018080602001828103825260198152602001807f546f6b656e20616464726573732063616e6e6f7420626520300000000000000081525060200191505060405180910390fd5b600083116200026e576040517f08c379a000000000000000000000000000000000000000000000000000000000815260040180806020018281038252601d8152602001807f416d6f756e74206d7573742062652067726561746572207468616e203000000081525060200191505060405180910390fd5b82811115620002c9576040517f08c379a000000000000000000000000000000000000000000000000000000000815260040180806020018281038252602881526020018062001e466028913960400191505060405180910390fd5b600082118015620002dd57506283d6008211155b62000334576040517f08c379a000000000000000000000000000000000000000000000000000000000815260040180806020018281038252604281526020018062001e046042913960600191505060405180910390fd5b83600260016101000a81548173ffffffffffffffffffffffffffffffffffffffff021916908373ffffffffffffffffffffffffffffffffffffffff1602179055508260038190555081600481905550806005819055505050505062000550565b620003b8816001620003fe64010000000002620017cc179091906401000000009004565b8073ffffffffffffffffffffffffffffffffffffffff167f6719d08c1888103bea251a4ed56406bd0c3e69723c8a1686e017e7bbe159b6f860405160405180910390a250565b600073ffffffffffffffffffffffffffffffffffffffff168173ffffffffffffffffffffffffffffffffffffffff1614156200043957600080fd5b620004548282620004bd640100000000026401000000009004565b156200045f57600080fd5b60018260000160008373ffffffffffffffffffffffffffffffffffffffff1673ffffffffffffffffffffffffffffffffffffffff16815260200190815260200160002060006101000a81548160ff0219169083151502179055505050565b60008073ffffffffffffffffffffffffffffffffffffffff168273ffffffffffffffffffffffffffffffffffffffff161415620004f957600080fd5b8260000160008373ffffffffffffffffffffffffffffffffffffffff1673ffffffffffffffffffffffffffffffffffffffff16815260200190815260200160002060009054906101000a900460ff16905092915050565b6118a480620005606000396000f3fe608060405234801561001057600080fd5b506004361061015f576000357c0100000000000000000000000000000000000000000000000000000000900480638da5cb5b116100d5578063aa8c217c11610099578063aa8c217c146103ec578063b92ae87c1461040a578063f2fde38b14610466578063fc0c546a146104aa578063fc6bd76a146104f4578063fcae4484146105385761015f565b80638da5cb5b1461033a5780638f32d59b146103845780638f449a05146103a6578063943dfef1146103b0578063947a36fb146103ce5761015f565b80635c975abb116101275780635c975abb1461025e5780636ef8d66d14610280578063715018a61461028a57806382dc1ec41461029457806383873eca146102d85780638456cb59146103305761015f565b80631d6aa02c146101645780633615770f146101c05780633f4ba83a146101ee57806341c0e1b5146101f857806346fbf68e14610202575b600080fd5b6101a66004803603602081101561017a57600080fd5b81019080803573ffffffffffffffffffffffffffffffffffffffff169060200190929190505050610542565b604051808215151515815260200191505060405180910390f35b6101ec600480360360208110156101d657600080fd5b8101908080359060200190929190505050610928565b005b6101f6610994565b005b610200610a3f565b005b6102446004803603602081101561021857600080fd5b81019080803573ffffffffffffffffffffffffffffffffffffffff169060200190929190505050610a69565b604051808215151515815260200191505060405180910390f35b610266610a86565b604051808215151515815260200191505060405180910390f35b610288610a9d565b005b610292610aa8565b005b6102d6600480360360208110156102aa57600080fd5b81019080803573ffffffffffffffffffffffffffffffffffffffff169060200190929190505050610b78565b005b61031a600480360360208110156102ee57600080fd5b81019080803573ffffffffffffffffffffffffffffffffffffffff169060200190929190505050610b96565b6040518082815260200191505060405180910390f35b610338610bae565b005b610342610c5a565b604051808273ffffffffffffffffffffffffffffffffffffffff1673ffffffffffffffffffffffffffffffffffffffff16815260200191505060405180910390f35b61038c610c83565b604051808215151515815260200191505060405180910390f35b6103ae610cda565b005b6103b8610df9565b6040518082815260200191505060405180910390f35b6103d6610dff565b6040518082815260200191505060405180910390f35b6103f4610e05565b6040518082815260200191505060405180910390f35b61044c6004803603602081101561042057600080fd5b81019080803573ffffffffffffffffffffffffffffffffffffffff169060200190929190505050610e0b565b604051808215151515815260200191505060405180910390f35b6104a86004803603602081101561047c57600080fd5b81019080803573ffffffffffffffffffffffffffffffffffffffff169060200190929190505050610e56565b005b6104b2610e73565b604051808273ffffffffffffffffffffffffffffffffffffffff1673ffffffffffffffffffffffffffffffffffffffff16815260200191505060405180910390f35b6105366004803603602081101561050a57600080fd5b81019080803573ffffffffffffffffffffffffffffffffffffffff169060200190929190505050610e99565b005b6105406113c4565b005b600061054c610a86565b15801561055e575061055d82610e0b565b5b80156105a95750600660008373ffffffffffffffffffffffffffffffffffffffff1673ffffffffffffffffffffffffffffffffffffffff168152602001908152602001600020544210155b80156106e05750600354600260019054906101000a900473ffffffffffffffffffffffffffffffffffffffff1673ffffffffffffffffffffffffffffffffffffffff1663dd62ed3e84306040518363ffffffff167c0100000000000000000000000000000000000000000000000000000000028152600401808373ffffffffffffffffffffffffffffffffffffffff1673ffffffffffffffffffffffffffffffffffffffff1681526020018273ffffffffffffffffffffffffffffffffffffffff1673ffffffffffffffffffffffffffffffffffffffff1681526020019250505060206040518083038186803b1580156106a257600080fd5b505afa1580156106b6573d6000803e3d6000fd5b505050506040513d60208110156106cc57600080fd5b810190808051906020019092919050505010155b80156107e35750600354600260019054906101000a900473ffffffffffffffffffffffffffffffffffffffff1673ffffffffffffffffffffffffffffffffffffffff166370a08231846040518263ffffffff167c0100000000000000000000000000000000000000000000000000000000028152600401808273ffffffffffffffffffffffffffffffffffffffff1673ffffffffffffffffffffffffffffffffffffffff16815260200191505060206040518083038186803b1580156107a557600080fd5b505afa1580156107b9573d6000803e3d6000fd5b505050506040513d60208110156107cf57600080fd5b810190808051906020019092919050505010155b80156109215750600554600260019054906101000a900473ffffffffffffffffffffffffffffffffffffffff1673ffffffffffffffffffffffffffffffffffffffff1663dd62ed3e610833610c5a565b306040518363ffffffff167c0100000000000000000000000000000000000000000000000000000000028152600401808373ffffffffffffffffffffffffffffffffffffffff1673ffffffffffffffffffffffffffffffffffffffff1681526020018273ffffffffffffffffffffffffffffffffffffffff1673ffffffffffffffffffffffffffffffffffffffff1681526020019250505060206040518083038186803b1580156108e357600080fd5b505afa1580156108f7573d6000803e3d6000fd5b505050506040513d602081101561090d57600080fd5b810190808051906020019092919050505010155b9050919050565b610930610c83565b61093957600080fd5b600260009054906101000a900460ff161561095357600080fd5b806005819055507f16bad55f7ea4a80796c6f907e775cc23057b180a4bfbc4a3e25ea0d06fd37a68816040518082815260200191505060405180910390a150565b61099d33610a69565b6109a657600080fd5b600260009054906101000a900460ff166109bf57600080fd5b6000600260006101000a81548160ff0219169083151502179055507f5db9ee0a495bf2e6ff9c91a7834c1ba4fdd244a5e8aa4e537bd38aeae4b073aa33604051808273ffffffffffffffffffffffffffffffffffffffff1673ffffffffffffffffffffffffffffffffffffffff16815260200191505060405180910390a1565b610a47610c83565b610a5057600080fd5b3373ffffffffffffffffffffffffffffffffffffffff16ff5b6000610a7f8260016114e390919063ffffffff16565b9050919050565b6000600260009054906101000a900460ff16905090565b610aa633611575565b565b610ab0610c83565b610ab957600080fd5b600073ffffffffffffffffffffffffffffffffffffffff166000809054906101000a900473ffffffffffffffffffffffffffffffffffffffff1673ffffffffffffffffffffffffffffffffffffffff167f8be0079c531659141344cd1fd0a4f28419497f9722a3daafe3b4186f6b6457e060405160405180910390a360008060006101000a81548173ffffffffffffffffffffffffffffffffffffffff021916908373ffffffffffffffffffffffffffffffffffffffff160217905550565b610b8133610a69565b610b8a57600080fd5b610b93816115cf565b50565b60066020528060005260406000206000915090505481565b610bb733610a69565b610bc057600080fd5b600260009054906101000a900460ff1615610bda57600080fd5b6001600260006101000a81548160ff0219169083151502179055507f62e78cea01bee320cd4e420270b5ea74000d11b0c9f74754ebdbfc544b05a25833604051808273ffffffffffffffffffffffffffffffffffffffff1673ffffffffffffffffffffffffffffffffffffffff16815260200191505060405180910390a1565b60008060009054906101000a900473ffffffffffffffffffffffffffffffffffffffff16905090565b60008060009054906101000a900473ffffffffffffffffffffffffffffffffffffffff1673ffffffffffffffffffffffffffffffffffffffff163373ffffffffffffffffffffffffffffffffffffffff1614905090565b600260009054906101000a900460ff1615610cf457600080fd5b610cfd33610e0b565b15610d70576040517f08c379a00000000000000000000000000000000000000000000000000000000081526004018080602001828103825260128152602001807f416c72656164792073756273637269626564000000000000000000000000000081525060200191505060405180910390fd5b42600660003373ffffffffffffffffffffffffffffffffffffffff1673ffffffffffffffffffffffffffffffffffffffff168152602001908152602001600020819055503373ffffffffffffffffffffffffffffffffffffffff167fa88fac53823b534c72d6958345adbe6801e072750d83b490d52ebbac51473a6360405160405180910390a2565b60055481565b60045481565b60035481565b600080600660008473ffffffffffffffffffffffffffffffffffffffff1673ffffffffffffffffffffffffffffffffffffffff16815260200190815260200160002054119050919050565b610e5e610c83565b610e6757600080fd5b610e7081611629565b50565b600260019054906101000a900473ffffffffffffffffffffffffffffffffffffffff1681565b600260009054906101000a900460ff1615610eb357600080fd5b610ebc81610542565b610f2e576040517f08c379a000000000000000000000000000000000000000000000000000000000815260040180806020018281038252600d8152602001807f43616e6e6f74206368617267650000000000000000000000000000000000000081525060200191505060405180910390fd5b6000600454600660008473ffffffffffffffffffffffffffffffffffffffff1673ffffffffffffffffffffffffffffffffffffffff16815260200190815260200160002054420381610f7c57fe5b06905080600454034201600660008473ffffffffffffffffffffffffffffffffffffffff1673ffffffffffffffffffffffffffffffffffffffff16815260200190815260200160002081905550600260019054906101000a900473ffffffffffffffffffffffffffffffffffffffff1673ffffffffffffffffffffffffffffffffffffffff166323b872dd83611010610c5a565b6003546040518463ffffffff167c0100000000000000000000000000000000000000000000000000000000028152600401808473ffffffffffffffffffffffffffffffffffffffff1673ffffffffffffffffffffffffffffffffffffffff1681526020018373ffffffffffffffffffffffffffffffffffffffff1673ffffffffffffffffffffffffffffffffffffffff1681526020018281526020019350505050602060405180830381600087803b1580156110cb57600080fd5b505af11580156110df573d6000803e3d6000fd5b505050506040513d60208110156110f557600080fd5b8101908080519060200190929190505050611178576040517f08c379a000000000000000000000000000000000000000000000000000000000815260040180806020018281038252601b8152602001807f4661696c656420746f207472616e7366657220746f206f776e6572000000000081525060200191505060405180910390fd5b6000600554111561133357600260019054906101000a900473ffffffffffffffffffffffffffffffffffffffff1673ffffffffffffffffffffffffffffffffffffffff166323b872dd6111c9610c5a565b336005546040518463ffffffff167c0100000000000000000000000000000000000000000000000000000000028152600401808473ffffffffffffffffffffffffffffffffffffffff1673ffffffffffffffffffffffffffffffffffffffff1681526020018373ffffffffffffffffffffffffffffffffffffffff1673ffffffffffffffffffffffffffffffffffffffff1681526020018281526020019350505050602060405180830381600087803b15801561128557600080fd5b505af1158015611299573d6000803e3d6000fd5b505050506040513d60208110156112af57600080fd5b8101908080519060200190929190505050611332576040517f08c379a00000000000000000000000000000000000000000000000000000000081526004018080602001828103825260128152602001807f4661696c656420746f207472616e73666572000000000000000000000000000081525060200191505060405180910390fd5b5b8173ffffffffffffffffffffffffffffffffffffffff167ff1c444ccb4378dbb8659f4ea38920ec0f501fc70c8299cc202055f62f33f190e600660008573ffffffffffffffffffffffffffffffffffffffff1673ffffffffffffffffffffffffffffffffffffffff168152602001908152602001600020546040518082815260200191505060405180910390a25050565b600260009054906101000a900460ff16156113de57600080fd5b6113e733610e0b565b611459576040517f08c379a000000000000000000000000000000000000000000000000000000000815260040180806020018281038252600e8152602001807f4e6f74207375627363726962656400000000000000000000000000000000000081525060200191505060405180910390fd5b6000600660003373ffffffffffffffffffffffffffffffffffffffff1673ffffffffffffffffffffffffffffffffffffffff168152602001908152602001600020819055503373ffffffffffffffffffffffffffffffffffffffff167fae563681ccc696fae58fe830f401bc9c043a43ddb9f7c2830b32c3c70d9966e760405160405180910390a2565b60008073ffffffffffffffffffffffffffffffffffffffff168273ffffffffffffffffffffffffffffffffffffffff16141561151e57600080fd5b8260000160008373ffffffffffffffffffffffffffffffffffffffff1673ffffffffffffffffffffffffffffffffffffffff16815260200190815260200160002060009054906101000a900460ff16905092915050565b61158981600161172190919063ffffffff16565b8073ffffffffffffffffffffffffffffffffffffffff167fcd265ebaf09df2871cc7bd4133404a235ba12eff2041bb89d9c714a2621c7c7e60405160405180910390a250565b6115e38160016117cc90919063ffffffff16565b8073ffffffffffffffffffffffffffffffffffffffff167f6719d08c1888103bea251a4ed56406bd0c3e69723c8a1686e017e7bbe159b6f860405160405180910390a250565b600073ffffffffffffffffffffffffffffffffffffffff168173ffffffffffffffffffffffffffffffffffffffff16141561166357600080fd5b8073ffffffffffffffffffffffffffffffffffffffff166000809054906101000a900473ffffffffffffffffffffffffffffffffffffffff1673ffffffffffffffffffffffffffffffffffffffff167f8be0079c531659141344cd1fd0a4f28419497f9722a3daafe3b4186f6b6457e060405160405180910390a3806000806101000a81548173ffffffffffffffffffffffffffffffffffffffff021916908373ffffffffffffffffffffffffffffffffffffffff16021790555050565b600073ffffffffffffffffffffffffffffffffffffffff168173ffffffffffffffffffffffffffffffffffffffff16141561175b57600080fd5b61176582826114e3565b61176e57600080fd5b60008260000160008373ffffffffffffffffffffffffffffffffffffffff1673ffffffffffffffffffffffffffffffffffffffff16815260200190815260200160002060006101000a81548160ff0219169083151502179055505050565b600073ffffffffffffffffffffffffffffffffffffffff168173ffffffffffffffffffffffffffffffffffffffff16141561180657600080fd5b61181082826114e3565b1561181a57600080fd5b60018260000160008373ffffffffffffffffffffffffffffffffffffffff1673ffffffffffffffffffffffffffffffffffffffff16815260200190815260200160002060006101000a81548160ff021916908315150217905550505056fea165627a7a7230582044b3d1b96fae48d66151fd6a0700f6cce89789443103b0571d8b65b5c3cbb7880029496e74657276616c206d7573742062652067726561746572207468616e203020616e64206c657373207468616e206f7220657175616c20746f203130302064617973426f756e7479206d757374206265206c657373207468616e206f7220657175616c20616d6f756e74a165627a7a72305820a2644192c3e9a90d81108e1913022e80b263a396fd48f003ab760dba36bd15c30029",
  "source": "pragma solidity 0.5.8;\n\nimport \"./Subscription.sol\";\n\ncontract SubscriptionRegistry {\n  event SubscriptionCreated(\n    address indexed subscription,\n    address indexed owner,\n    address indexed token,\n    uint amount,\n    uint interval,\n    uint bounty\n  );\n\n  function create(address token, uint amount, uint interval, uint bounty)\n    public\n  {\n    Subscription subscription = new Subscription(token, amount, interval, bounty);\n\n    subscription.transferOwnership(msg.sender);\n\n    emit SubscriptionCreated(\n      address(subscription), msg.sender, token, amount, interval, bounty\n    );\n  }\n}\n",
  "sourcePath": "/home/t4sk/bkp/dev/t4sk/d-monetize/contracts/contracts/SubscriptionRegistry.sol",
  "compiler": {
    "name": "solc",
    "version": "0.5.8+commit.23d335f2.Linux.g++"
  },
  "schemaVersion": "3.0.9",
  "updatedAt": "2019-05-30T12:12:20.275Z",
  "devdoc": {
    "methods": {}
  },
  "userdoc": {
    "methods": {}
  }
}