{
  "contractName": "Subscription",
  "abi": [
    {
      "constant": false,
      "inputs": [],
      "name": "unpause",
      "outputs": [],
      "payable": false,
      "stateMutability": "nonpayable",
      "type": "function"
    },
    {
      "constant": true,
      "inputs": [
        {
          "name": "account",
          "type": "address"
        }
      ],
      "name": "isPauser",
      "outputs": [
        {
          "name": "",
          "type": "bool"
        }
      ],
      "payable": false,
      "stateMutability": "view",
      "type": "function"
    },
    {
      "constant": true,
      "inputs": [
        {
          "name": "",
          "type": "address"
        }
      ],
      "name": "subscribers",
      "outputs": [
        {
          "name": "subscribedAt",
          "type": "uint256"
        },
        {
          "name": "nextPaymentAt",
          "type": "uint256"
        }
      ],
      "payable": false,
      "stateMutability": "view",
      "type": "function"
    },
    {
      "constant": true,
      "inputs": [],
      "name": "paused",
      "outputs": [
        {
          "name": "",
          "type": "bool"
        }
      ],
      "payable": false,
      "stateMutability": "view",
      "type": "function"
    },
    {
      "constant": false,
      "inputs": [],
      "name": "renouncePauser",
      "outputs": [],
      "payable": false,
      "stateMutability": "nonpayable",
      "type": "function"
    },
    {
      "constant": false,
      "inputs": [],
      "name": "renounceOwnership",
      "outputs": [],
      "payable": false,
      "stateMutability": "nonpayable",
      "type": "function"
    },
    {
      "constant": false,
      "inputs": [
        {
          "name": "account",
          "type": "address"
        }
      ],
      "name": "addPauser",
      "outputs": [],
      "payable": false,
      "stateMutability": "nonpayable",
      "type": "function"
    },
    {
      "constant": false,
      "inputs": [],
      "name": "pause",
      "outputs": [],
      "payable": false,
      "stateMutability": "nonpayable",
      "type": "function"
    },
    {
      "constant": true,
      "inputs": [],
      "name": "owner",
      "outputs": [
        {
          "name": "",
          "type": "address"
        }
      ],
      "payable": false,
      "stateMutability": "view",
      "type": "function"
    },
    {
      "constant": true,
      "inputs": [],
      "name": "isOwner",
      "outputs": [
        {
          "name": "",
          "type": "bool"
        }
      ],
      "payable": false,
      "stateMutability": "view",
      "type": "function"
    },
    {
      "constant": true,
      "inputs": [],
      "name": "interval",
      "outputs": [
        {
          "name": "",
          "type": "uint256"
        }
      ],
      "payable": false,
      "stateMutability": "view",
      "type": "function"
    },
    {
      "constant": true,
      "inputs": [],
      "name": "amount",
      "outputs": [
        {
          "name": "",
          "type": "uint256"
        }
      ],
      "payable": false,
      "stateMutability": "view",
      "type": "function"
    },
    {
      "constant": true,
      "inputs": [],
      "name": "payee",
      "outputs": [
        {
          "name": "",
          "type": "address"
        }
      ],
      "payable": false,
      "stateMutability": "view",
      "type": "function"
    },
    {
      "constant": false,
      "inputs": [
        {
          "name": "newOwner",
          "type": "address"
        }
      ],
      "name": "transferOwnership",
      "outputs": [],
      "payable": false,
      "stateMutability": "nonpayable",
      "type": "function"
    },
    {
      "constant": true,
      "inputs": [],
      "name": "token",
      "outputs": [
        {
          "name": "",
          "type": "address"
        }
      ],
      "payable": false,
      "stateMutability": "view",
      "type": "function"
    },
    {
      "inputs": [
        {
          "name": "_payee",
          "type": "address"
        },
        {
          "name": "_token",
          "type": "address"
        },
        {
          "name": "_amount",
          "type": "uint256"
        },
        {
          "name": "_interval",
          "type": "uint256"
        }
      ],
      "payable": false,
      "stateMutability": "nonpayable",
      "type": "constructor"
    },
    {
      "anonymous": false,
      "inputs": [
        {
          "indexed": true,
          "name": "subscriber",
          "type": "address"
        },
        {
          "indexed": false,
          "name": "nextPaymentAt",
          "type": "uint256"
        }
      ],
      "name": "Subscribed",
      "type": "event"
    },
    {
      "anonymous": false,
      "inputs": [
        {
          "indexed": true,
          "name": "subscriber",
          "type": "address"
        }
      ],
      "name": "Unsubscribed",
      "type": "event"
    },
    {
      "anonymous": false,
      "inputs": [
        {
          "indexed": true,
          "name": "subscriber",
          "type": "address"
        },
        {
          "indexed": false,
          "name": "nextPaymentAt",
          "type": "uint256"
        }
      ],
      "name": "PaymentProcessed",
      "type": "event"
    },
    {
      "anonymous": false,
      "inputs": [
        {
          "indexed": false,
          "name": "account",
          "type": "address"
        }
      ],
      "name": "Paused",
      "type": "event"
    },
    {
      "anonymous": false,
      "inputs": [
        {
          "indexed": false,
          "name": "account",
          "type": "address"
        }
      ],
      "name": "Unpaused",
      "type": "event"
    },
    {
      "anonymous": false,
      "inputs": [
        {
          "indexed": true,
          "name": "account",
          "type": "address"
        }
      ],
      "name": "PauserAdded",
      "type": "event"
    },
    {
      "anonymous": false,
      "inputs": [
        {
          "indexed": true,
          "name": "account",
          "type": "address"
        }
      ],
      "name": "PauserRemoved",
      "type": "event"
    },
    {
      "anonymous": false,
      "inputs": [
        {
          "indexed": true,
          "name": "previousOwner",
          "type": "address"
        },
        {
          "indexed": true,
          "name": "newOwner",
          "type": "address"
        }
      ],
      "name": "OwnershipTransferred",
      "type": "event"
    },
    {
      "constant": true,
      "inputs": [
        {
          "name": "addr",
          "type": "address"
        }
      ],
      "name": "isSubscribed",
      "outputs": [
        {
          "name": "",
          "type": "bool"
        }
      ],
      "payable": false,
      "stateMutability": "view",
      "type": "function"
    },
    {
      "constant": false,
      "inputs": [
        {
          "name": "subscriber",
          "type": "address"
        }
      ],
      "name": "subscribe",
      "outputs": [],
      "payable": false,
      "stateMutability": "nonpayable",
      "type": "function"
    },
    {
      "constant": false,
      "inputs": [
        {
          "name": "subscriber",
          "type": "address"
        }
      ],
      "name": "unsubscribe",
      "outputs": [],
      "payable": false,
      "stateMutability": "nonpayable",
      "type": "function"
    },
    {
      "constant": true,
      "inputs": [
        {
          "name": "subscriber",
          "type": "address"
        }
      ],
      "name": "canProcessPayment",
      "outputs": [
        {
          "name": "",
          "type": "bool"
        }
      ],
      "payable": false,
      "stateMutability": "view",
      "type": "function"
    },
    {
      "constant": false,
      "inputs": [
        {
          "name": "subscriber",
          "type": "address"
        }
      ],
      "name": "processPayment",
      "outputs": [],
      "payable": false,
      "stateMutability": "nonpayable",
      "type": "function"
    },
    {
      "constant": false,
      "inputs": [],
      "name": "kill",
      "outputs": [],
      "payable": false,
      "stateMutability": "nonpayable",
      "type": "function"
    }
  ],
  "bytecode": "0x60806040523480156200001157600080fd5b50604051608080620020a3833981018060405260808110156200003357600080fd5b8101908080519060200190929190805190602001909291908051906020019092919080519060200190929190505050336000806101000a81548173ffffffffffffffffffffffffffffffffffffffff021916908373ffffffffffffffffffffffffffffffffffffffff1602179055506000809054906101000a900473ffffffffffffffffffffffffffffffffffffffff1673ffffffffffffffffffffffffffffffffffffffff16600073ffffffffffffffffffffffffffffffffffffffff167f8be0079c531659141344cd1fd0a4f28419497f9722a3daafe3b4186f6b6457e060405160405180910390a362000138336200041f640100000000026401000000009004565b6000600260006101000a81548160ff021916908315150217905550600073ffffffffffffffffffffffffffffffffffffffff168473ffffffffffffffffffffffffffffffffffffffff1614151515620001f9576040517f08c379a00000000000000000000000000000000000000000000000000000000081526004018080602001828103825260198152602001807f506179656520616464726573732063616e6e6f7420626520300000000000000081525060200191505060405180910390fd5b600073ffffffffffffffffffffffffffffffffffffffff168373ffffffffffffffffffffffffffffffffffffffff16141515156200029f576040517f08c379a00000000000000000000000000000000000000000000000000000000081526004018080602001828103825260198152602001807f546f6b656e20616464726573732063616e6e6f7420626520300000000000000081525060200191505060405180910390fd5b60008211151562000318576040517f08c379a000000000000000000000000000000000000000000000000000000000815260040180806020018281038252601d8152602001807f416d6f756e74206d7573742062652067726561746572207468616e203000000081525060200191505060405180910390fd5b6000811180156200032c575063039ada0081105b151562000385576040517f08c379a00000000000000000000000000000000000000000000000000000000081526004018080602001828103825260278152602001806200207c6027913960400191505060405180910390fd5b83600260016101000a81548173ffffffffffffffffffffffffffffffffffffffff021916908373ffffffffffffffffffffffffffffffffffffffff16021790555082600360006101000a81548173ffffffffffffffffffffffffffffffffffffffff021916908373ffffffffffffffffffffffffffffffffffffffff160217905550816004819055508060058190555050505050620005e1565b620004438160016200048964010000000002620019af179091906401000000009004565b8073ffffffffffffffffffffffffffffffffffffffff167f6719d08c1888103bea251a4ed56406bd0c3e69723c8a1686e017e7bbe159b6f860405160405180910390a250565b600073ffffffffffffffffffffffffffffffffffffffff168173ffffffffffffffffffffffffffffffffffffffff1614151515620004c657600080fd5b620004e182826200054c640100000000026401000000009004565b151515620004ee57600080fd5b60018260000160008373ffffffffffffffffffffffffffffffffffffffff1673ffffffffffffffffffffffffffffffffffffffff16815260200190815260200160002060006101000a81548160ff0219169083151502179055505050565b60008073ffffffffffffffffffffffffffffffffffffffff168273ffffffffffffffffffffffffffffffffffffffff16141515156200058a57600080fd5b8260000160008373ffffffffffffffffffffffffffffffffffffffff1673ffffffffffffffffffffffffffffffffffffffff16815260200190815260200160002060009054906101000a900460ff16905092915050565b611a8b80620005f16000396000f3fe608060405234801561001057600080fd5b5060043610610154576000357c01000000000000000000000000000000000000000000000000000000009004806382dc1ec4116100d5578063947a36fb11610099578063947a36fb14610440578063aa8c217c1461045e578063ae90b2131461047c578063b92ae87c146104c6578063f2fde38b14610522578063fc0c546a1461056657610154565b806382dc1ec4146103425780638456cb59146103865780638da5cb5b146103905780638f32d59b146103da5780638fe123d7146103fc57610154565b80635745ae281161011c5780635745ae28146102695780635c975abb146102c85780636ef8d66d146102ea578063715018a6146102f45780637262561c146102fe57610154565b80630fd80f7e146101595780633f4ba83a146101b557806341a7726a146101bf57806341c0e1b51461020357806346fbf68e1461020d575b600080fd5b61019b6004803603602081101561016f57600080fd5b81019080803573ffffffffffffffffffffffffffffffffffffffff1690602001909291905050506105b0565b604051808215151515815260200191505060405180910390f35b6101bd61086f565b005b610201600480360360208110156101d557600080fd5b81019080803573ffffffffffffffffffffffffffffffffffffffff16906020019092919050505061091e565b005b61020b610b6e565b005b61024f6004803603602081101561022357600080fd5b81019080803573ffffffffffffffffffffffffffffffffffffffff169060200190929190505050610bbc565b604051808215151515815260200191505060405180910390f35b6102ab6004803603602081101561027f57600080fd5b81019080803573ffffffffffffffffffffffffffffffffffffffff169060200190929190505050610bd9565b604051808381526020018281526020019250505060405180910390f35b6102d0610bfd565b604051808215151515815260200191505060405180910390f35b6102f2610c14565b005b6102fc610c1f565b005b6103406004803603602081101561031457600080fd5b81019080803573ffffffffffffffffffffffffffffffffffffffff169060200190929190505050610cf1565b005b6103846004803603602081101561035857600080fd5b81019080803573ffffffffffffffffffffffffffffffffffffffff169060200190929190505050610e35565b005b61038e610e55565b005b610398610f05565b604051808273ffffffffffffffffffffffffffffffffffffffff1673ffffffffffffffffffffffffffffffffffffffff16815260200191505060405180910390f35b6103e2610f2e565b604051808215151515815260200191505060405180910390f35b61043e6004803603602081101561041257600080fd5b81019080803573ffffffffffffffffffffffffffffffffffffffff169060200190929190505050610f85565b005b6104486115f9565b6040518082815260200191505060405180910390f35b6104666115ff565b6040518082815260200191505060405180910390f35b610484611605565b604051808273ffffffffffffffffffffffffffffffffffffffff1673ffffffffffffffffffffffffffffffffffffffff16815260200191505060405180910390f35b610508600480360360208110156104dc57600080fd5b81019080803573ffffffffffffffffffffffffffffffffffffffff16906020019092919050505061162b565b604051808215151515815260200191505060405180910390f35b6105646004803603602081101561053857600080fd5b81019080803573ffffffffffffffffffffffffffffffffffffffff169060200190929190505050611679565b005b61056e611698565b604051808273ffffffffffffffffffffffffffffffffffffffff1673ffffffffffffffffffffffffffffffffffffffff16815260200191505060405180910390f35b60006105bb8261162b565b15156105ca576000905061086a565b6000600360009054906101000a900473ffffffffffffffffffffffffffffffffffffffff1673ffffffffffffffffffffffffffffffffffffffff1663dd62ed3e84306040518363ffffffff167c0100000000000000000000000000000000000000000000000000000000028152600401808373ffffffffffffffffffffffffffffffffffffffff1673ffffffffffffffffffffffffffffffffffffffff1681526020018273ffffffffffffffffffffffffffffffffffffffff1673ffffffffffffffffffffffffffffffffffffffff1681526020019250505060206040518083038186803b1580156106bb57600080fd5b505afa1580156106cf573d6000803e3d6000fd5b505050506040513d60208110156106e557600080fd5b810190808051906020019092919050505090506000600360009054906101000a900473ffffffffffffffffffffffffffffffffffffffff1673ffffffffffffffffffffffffffffffffffffffff166370a08231856040518263ffffffff167c0100000000000000000000000000000000000000000000000000000000028152600401808273ffffffffffffffffffffffffffffffffffffffff1673ffffffffffffffffffffffffffffffffffffffff16815260200191505060206040518083038186803b1580156107b557600080fd5b505afa1580156107c9573d6000803e3d6000fd5b505050506040513d60208110156107df57600080fd5b810190808051906020019092919050505090506107fa610bfd565b1580156108495750600660008573ffffffffffffffffffffffffffffffffffffffff1673ffffffffffffffffffffffffffffffffffffffff168152602001908152602001600020600101544210155b801561085757506004548210155b801561086557506004548110155b925050505b919050565b61087833610bbc565b151561088357600080fd5b600260009054906101000a900460ff16151561089e57600080fd5b6000600260006101000a81548160ff0219169083151502179055507f5db9ee0a495bf2e6ff9c91a7834c1ba4fdd244a5e8aa4e537bd38aeae4b073aa33604051808273ffffffffffffffffffffffffffffffffffffffff1673ffffffffffffffffffffffffffffffffffffffff16815260200191505060405180910390a1565b610926610f2e565b151561093157600080fd5b600260009054906101000a900460ff1615151561094d57600080fd5b600073ffffffffffffffffffffffffffffffffffffffff168173ffffffffffffffffffffffffffffffffffffffff16141515156109f2576040517f08c379a000000000000000000000000000000000000000000000000000000000815260040180806020018281038252600f8152602001807f496e76616c69642061646472657373000000000000000000000000000000000081525060200191505060405180910390fd5b6109fb8161162b565b151515610a70576040517f08c379a000000000000000000000000000000000000000000000000000000000815260040180806020018281038252601d8152602001807f4164647265737320697320616c7265616479207375627363726962656400000081525060200191505060405180910390fd5b604080519081016040528042815260200142815250600660008373ffffffffffffffffffffffffffffffffffffffff1673ffffffffffffffffffffffffffffffffffffffff16815260200190815260200160002060008201518160000155602082015181600101559050508073ffffffffffffffffffffffffffffffffffffffff167f4b90d6788928d63c1821907a6a8b95f40d26562d8fe41b105f7489db9966dfcb600660008473ffffffffffffffffffffffffffffffffffffffff1673ffffffffffffffffffffffffffffffffffffffff168152602001908152602001600020600101546040518082815260200191505060405180910390a250565b610b76610f2e565b1515610b8157600080fd5b600260019054906101000a900473ffffffffffffffffffffffffffffffffffffffff1673ffffffffffffffffffffffffffffffffffffffff16ff5b6000610bd28260016116be90919063ffffffff16565b9050919050565b60066020528060005260406000206000915090508060000154908060010154905082565b6000600260009054906101000a900460ff16905090565b610c1d33611752565b565b610c27610f2e565b1515610c3257600080fd5b600073ffffffffffffffffffffffffffffffffffffffff166000809054906101000a900473ffffffffffffffffffffffffffffffffffffffff1673ffffffffffffffffffffffffffffffffffffffff167f8be0079c531659141344cd1fd0a4f28419497f9722a3daafe3b4186f6b6457e060405160405180910390a360008060006101000a81548173ffffffffffffffffffffffffffffffffffffffff021916908373ffffffffffffffffffffffffffffffffffffffff160217905550565b610cf9610f2e565b1515610d0457600080fd5b600260009054906101000a900460ff16151515610d2057600080fd5b610d298161162b565b1515610d9d576040517f08c379a000000000000000000000000000000000000000000000000000000000815260040180806020018281038252600e8152602001807f4e6f74207375627363726962656400000000000000000000000000000000000081525060200191505060405180910390fd5b600660008273ffffffffffffffffffffffffffffffffffffffff1673ffffffffffffffffffffffffffffffffffffffff168152602001908152602001600020600080820160009055600182016000905550508073ffffffffffffffffffffffffffffffffffffffff167fae563681ccc696fae58fe830f401bc9c043a43ddb9f7c2830b32c3c70d9966e760405160405180910390a250565b610e3e33610bbc565b1515610e4957600080fd5b610e52816117ac565b50565b610e5e33610bbc565b1515610e6957600080fd5b600260009054906101000a900460ff16151515610e8557600080fd5b6001600260006101000a81548160ff0219169083151502179055507f62e78cea01bee320cd4e420270b5ea74000d11b0c9f74754ebdbfc544b05a25833604051808273ffffffffffffffffffffffffffffffffffffffff1673ffffffffffffffffffffffffffffffffffffffff16815260200191505060405180910390a1565b60008060009054906101000a900473ffffffffffffffffffffffffffffffffffffffff16905090565b60008060009054906101000a900473ffffffffffffffffffffffffffffffffffffffff1673ffffffffffffffffffffffffffffffffffffffff163373ffffffffffffffffffffffffffffffffffffffff1614905090565b600260009054906101000a900460ff16151515610fa157600080fd5b600260019054906101000a900473ffffffffffffffffffffffffffffffffffffffff166004546000600360009054906101000a900473ffffffffffffffffffffffffffffffffffffffff1673ffffffffffffffffffffffffffffffffffffffff166370a08231846040518263ffffffff167c0100000000000000000000000000000000000000000000000000000000028152600401808273ffffffffffffffffffffffffffffffffffffffff1673ffffffffffffffffffffffffffffffffffffffff16815260200191505060206040518083038186803b15801561108457600080fd5b505afa158015611098573d6000803e3d6000fd5b505050506040513d60208110156110ae57600080fd5b810190808051906020019092919050505090506110ca846105b0565b151561113e576040517f08c379a00000000000000000000000000000000000000000000000000000000081526004018080602001828103825260168152602001807f43616e6e6f742070726f63657373207061796d656e740000000000000000000081525060200191505060405180910390fd5b6000600660008673ffffffffffffffffffffffffffffffffffffffff1673ffffffffffffffffffffffffffffffffffffffff1681526020019081526020016000206000015490506000814203905060006005546005548381151561119e57fe5b06420301905080600660008973ffffffffffffffffffffffffffffffffffffffff1673ffffffffffffffffffffffffffffffffffffffff16815260200190815260200160002060010181905550600360009054906101000a900473ffffffffffffffffffffffffffffffffffffffff1673ffffffffffffffffffffffffffffffffffffffff166323b872dd88600260019054906101000a900473ffffffffffffffffffffffffffffffffffffffff166004546040518463ffffffff167c0100000000000000000000000000000000000000000000000000000000028152600401808473ffffffffffffffffffffffffffffffffffffffff1673ffffffffffffffffffffffffffffffffffffffff1681526020018373ffffffffffffffffffffffffffffffffffffffff1673ffffffffffffffffffffffffffffffffffffffff1681526020018281526020019350505050602060405180830381600087803b15801561130857600080fd5b505af115801561131c573d6000803e3d6000fd5b505050506040513d602081101561133257600080fd5b810190808051906020019092919050505015156113b7576040517f08c379a00000000000000000000000000000000000000000000000000000000081526004018080602001828103825260198152602001807f4661696c656420746f207472616e7366657220746f6b656e730000000000000081525060200191505060405180910390fd5b8673ffffffffffffffffffffffffffffffffffffffff167fa5957fefb5b0f981554450d4d8dde003083cd202e3d5a2992e09c88ad1f0d791826040518082815260200191505060405180910390a25050506000600360009054906101000a900473ffffffffffffffffffffffffffffffffffffffff1673ffffffffffffffffffffffffffffffffffffffff166370a08231856040518263ffffffff167c0100000000000000000000000000000000000000000000000000000000028152600401808273ffffffffffffffffffffffffffffffffffffffff1673ffffffffffffffffffffffffffffffffffffffff16815260200191505060206040518083038186803b1580156114c557600080fd5b505afa1580156114d9573d6000803e3d6000fd5b505050506040513d60208110156114ef57600080fd5b810190808051906020019092919050505090508181111515611579576040517f08c379a00000000000000000000000000000000000000000000000000000000081526004018080602001828103825260158152602001807f546f6b656e207472616e73666572206661696c6564000000000000000000000081525060200191505060405180910390fd5b828282031415156115f2576040517f08c379a000000000000000000000000000000000000000000000000000000000815260040180806020018281038252601a8152602001807f436865636b20746f6b656e2062616c616e6365206661696c656400000000000081525060200191505060405180910390fd5b5050505050565b60055481565b60045481565b600260019054906101000a900473ffffffffffffffffffffffffffffffffffffffff1681565b600080600660008473ffffffffffffffffffffffffffffffffffffffff1673ffffffffffffffffffffffffffffffffffffffff16815260200190815260200160002060000154119050919050565b611681610f2e565b151561168c57600080fd5b61169581611806565b50565b600360009054906101000a900473ffffffffffffffffffffffffffffffffffffffff1681565b60008073ffffffffffffffffffffffffffffffffffffffff168273ffffffffffffffffffffffffffffffffffffffff16141515156116fb57600080fd5b8260000160008373ffffffffffffffffffffffffffffffffffffffff1673ffffffffffffffffffffffffffffffffffffffff16815260200190815260200160002060009054906101000a900460ff16905092915050565b61176681600161190090919063ffffffff16565b8073ffffffffffffffffffffffffffffffffffffffff167fcd265ebaf09df2871cc7bd4133404a235ba12eff2041bb89d9c714a2621c7c7e60405160405180910390a250565b6117c08160016119af90919063ffffffff16565b8073ffffffffffffffffffffffffffffffffffffffff167f6719d08c1888103bea251a4ed56406bd0c3e69723c8a1686e017e7bbe159b6f860405160405180910390a250565b600073ffffffffffffffffffffffffffffffffffffffff168173ffffffffffffffffffffffffffffffffffffffff161415151561184257600080fd5b8073ffffffffffffffffffffffffffffffffffffffff166000809054906101000a900473ffffffffffffffffffffffffffffffffffffffff1673ffffffffffffffffffffffffffffffffffffffff167f8be0079c531659141344cd1fd0a4f28419497f9722a3daafe3b4186f6b6457e060405160405180910390a3806000806101000a81548173ffffffffffffffffffffffffffffffffffffffff021916908373ffffffffffffffffffffffffffffffffffffffff16021790555050565b600073ffffffffffffffffffffffffffffffffffffffff168173ffffffffffffffffffffffffffffffffffffffff161415151561193c57600080fd5b61194682826116be565b151561195157600080fd5b60008260000160008373ffffffffffffffffffffffffffffffffffffffff1673ffffffffffffffffffffffffffffffffffffffff16815260200190815260200160002060006101000a81548160ff0219169083151502179055505050565b600073ffffffffffffffffffffffffffffffffffffffff168173ffffffffffffffffffffffffffffffffffffffff16141515156119eb57600080fd5b6119f582826116be565b151515611a0157600080fd5b60018260000160008373ffffffffffffffffffffffffffffffffffffffff1673ffffffffffffffffffffffffffffffffffffffff16815260200190815260200160002060006101000a81548160ff021916908315150217905550505056fea165627a7a72305820f33e52c80f74821755b7133036d75698dd6677ad94fd1ef42d91477276fd250800295061796d656e7420696e74657276616c206d7573742062652067726561746572207468616e2030",
  "source": "pragma solidity 0.5.2;\n\nimport 'openzeppelin-solidity/contracts/ownership/Ownable.sol';\nimport \"openzeppelin-solidity/contracts/lifecycle/Pausable.sol\";\nimport 'openzeppelin-solidity/contracts/token/ERC20/ERC20.sol';\n\ncontract Subscription is Ownable, Pausable {\n    event Subscribed(address indexed subscriber, uint nextPaymentAt);\n    event Unsubscribed(address indexed subscriber);\n    event PaymentProcessed(address indexed subscriber, uint nextPaymentAt);\n\n    address payable public payee;\n    address public token;\n    uint public amount;\n    uint public interval;\n\n    struct Subscriber {\n      uint subscribedAt;\n      uint nextPaymentAt;\n    }\n\n    mapping(address => Subscriber) public subscribers;\n\n    modifier checkTokenBalanceAfterTransfer(address addr, uint diff) {\n      uint balanceBefore = ERC20(token).balanceOf(addr);\n      _;\n      uint balanceAfter = ERC20(token).balanceOf(addr);\n\n      require(balanceAfter > balanceBefore, \"Token transfer failed\");\n      require(balanceAfter - balanceBefore == diff, \"Check token balance failed\");\n    }\n\n    constructor(\n      address payable _payee, address _token, uint _amount, uint _interval\n    )\n      public\n    {\n        require(_payee != address(0), \"Payee address cannot be 0\");\n        require(_token != address(0), \"Token address cannot be 0\");\n        require(_amount > 0, \"Amount must be greater than 0\");\n        require(\n          _interval > 0 && _interval < 100 weeks,\n          \"Payment interval must be greater than 0\"\n        );\n\n        payee = _payee;\n        token = _token;\n        amount =_amount;\n        interval = _interval;\n    }\n\n    function isSubscribed(address addr) public view returns (bool) {\n      return subscribers[addr].subscribedAt > 0;\n    }\n\n    function subscribe(address subscriber) public onlyOwner whenNotPaused {\n        require(subscriber != address(0), \"Invalid address\");\n        require(!isSubscribed(subscriber), \"Address is already subscribed\");\n\n        subscribers[subscriber] = Subscriber({\n          subscribedAt: block.timestamp,\n          nextPaymentAt: block.timestamp\n        });\n\n        emit Subscribed(subscriber, subscribers[subscriber].nextPaymentAt);\n    }\n\n    function unsubscribe(address subscriber) public onlyOwner whenNotPaused {\n        require(isSubscribed(subscriber), \"Not subscribed\");\n\n        delete subscribers[subscriber];\n\n        emit Unsubscribed(subscriber);\n    }\n\n    function canProcessPayment(address subscriber) public view returns (bool) {\n        if (!isSubscribed(subscriber)) {\n            return false;\n        }\n\n        uint allowance = ERC20(token).allowance(subscriber, address(this));\n        uint balance = ERC20(token).balanceOf(subscriber);\n\n        return (\n            !paused() &&\n            block.timestamp >= subscribers[subscriber].nextPaymentAt &&\n            allowance >= amount &&\n            balance >= amount\n        );\n    }\n\n    function processPayment(address subscriber)\n      public\n      whenNotPaused\n      checkTokenBalanceAfterTransfer(payee, amount)\n    {\n        require(canProcessPayment(subscriber), \"Cannot process payment\");\n\n        uint start = subscribers[subscriber].subscribedAt;\n        uint duration = block.timestamp - start;\n        uint nextPaymentAt = block.timestamp - (duration % interval) + interval;\n\n        subscribers[subscriber].nextPaymentAt =  nextPaymentAt;\n\n        require(\n          ERC20(token).transferFrom(subscriber, payee, amount),\n          \"Failed to transfer tokens\"\n        );\n\n        emit PaymentProcessed(subscriber, nextPaymentAt);\n    }\n\n    function kill() external onlyOwner {\n        selfdestruct(payee);\n    }\n  }\n",
  "sourcePath": "/home/t4sk/bkp/dev/t4sk/d-monetize/contracts/contracts/Subscription.sol",
  "compiler": {
    "name": "solc",
    "version": "0.5.2+commit.1df8f40c.Linux.g++"
  },
  "schemaVersion": "3.0.2",
  "updatedAt": "2019-03-16T06:56:41.670Z",
  "devdoc": {
    "methods": {
      "isOwner()": {
        "return": "true if `msg.sender` is the owner of the contract."
      },
      "owner()": {
        "return": "the address of the owner."
      },
      "pause()": {
        "details": "called by the owner to pause, triggers stopped state"
      },
      "paused()": {
        "return": "true if the contract is paused, false otherwise."
      },
      "renounceOwnership()": {
        "details": "Allows the current owner to relinquish control of the contract."
      },
      "transferOwnership(address)": {
        "details": "Allows the current owner to transfer control of the contract to a newOwner.",
        "params": {
          "newOwner": "The address to transfer ownership to."
        }
      },
      "unpause()": {
        "details": "called by the owner to unpause, returns to normal state"
      }
    }
  },
  "userdoc": {
    "methods": {
      "renounceOwnership()": {
        "notice": "Renouncing to ownership will leave the contract without an owner. It will not be possible to call the functions with the `onlyOwner` modifier anymore."
      }
    }
  }
}